{
  "contractName": "ApprovalVoting",
  "abi": [
    {
      "inputs": [],
      "stateMutability": "nonpayable",
      "type": "constructor"
    },
    {
      "inputs": [
        {
          "internalType": "uint256",
          "name": "",
          "type": "uint256"
        },
        {
          "internalType": "string",
          "name": "",
          "type": "string"
        }
      ],
      "name": "differentSystemVotes",
      "outputs": [
        {
          "internalType": "uint256",
          "name": "",
          "type": "uint256"
        }
      ],
      "stateMutability": "view",
      "type": "function",
      "constant": true
    },
    {
      "inputs": [],
      "name": "systemCount",
      "outputs": [
        {
          "internalType": "uint256",
          "name": "",
          "type": "uint256"
        }
      ],
      "stateMutability": "view",
      "type": "function",
      "constant": true
    },
    {
      "inputs": [
        {
          "internalType": "uint256",
          "name": "",
          "type": "uint256"
        }
      ],
      "name": "systems",
      "outputs": [
        {
          "internalType": "uint256",
          "name": "uniqueId",
          "type": "uint256"
        },
        {
          "internalType": "string",
          "name": "systemName",
          "type": "string"
        },
        {
          "internalType": "uint256",
          "name": "numberOfCandidates",
          "type": "uint256"
        },
        {
          "internalType": "uint256",
          "name": "votingPeriod",
          "type": "uint256"
        },
        {
          "internalType": "string",
          "name": "electionHelderName",
          "type": "string"
        },
        {
          "internalType": "string",
          "name": "description",
          "type": "string"
        }
      ],
      "stateMutability": "view",
      "type": "function",
      "constant": true
    },
    {
      "inputs": [
        {
          "internalType": "uint256",
          "name": "_uniqueId",
          "type": "uint256"
        }
      ],
      "name": "getSystemDetails",
      "outputs": [
        {
          "internalType": "uint256",
          "name": "",
          "type": "uint256"
        },
        {
          "internalType": "string",
          "name": "",
          "type": "string"
        },
        {
          "internalType": "uint256",
          "name": "",
          "type": "uint256"
        },
        {
          "internalType": "string[]",
          "name": "",
          "type": "string[]"
        },
        {
          "internalType": "uint256",
          "name": "",
          "type": "uint256"
        },
        {
          "internalType": "string[]",
          "name": "",
          "type": "string[]"
        },
        {
          "internalType": "string",
          "name": "",
          "type": "string"
        },
        {
          "internalType": "string",
          "name": "",
          "type": "string"
        }
      ],
      "stateMutability": "view",
      "type": "function",
      "constant": true
    },
    {
      "inputs": [
        {
          "internalType": "uint256",
          "name": "_uniqueId",
          "type": "uint256"
        },
        {
          "internalType": "string",
          "name": "_systemName",
          "type": "string"
        },
        {
          "internalType": "uint256",
          "name": "_numberOfCandidates",
          "type": "uint256"
        },
        {
          "internalType": "string[]",
          "name": "_candidates",
          "type": "string[]"
        },
        {
          "internalType": "uint256",
          "name": "numberOfDays",
          "type": "uint256"
        },
        {
          "internalType": "string[]",
          "name": "_votersForElection",
          "type": "string[]"
        },
        {
          "internalType": "string",
          "name": "_electionHelderName",
          "type": "string"
        },
        {
          "internalType": "string",
          "name": "_description",
          "type": "string"
        }
      ],
      "name": "createSystem",
      "outputs": [],
      "stateMutability": "nonpayable",
      "type": "function"
    },
    {
      "inputs": [],
      "name": "showBalance",
      "outputs": [
        {
          "internalType": "uint256",
          "name": "",
          "type": "uint256"
        }
      ],
      "stateMutability": "view",
      "type": "function",
      "constant": true
    },
    {
      "inputs": [
        {
          "internalType": "uint256",
          "name": "_uniqueId",
          "type": "uint256"
        },
        {
          "internalType": "string",
          "name": "_candidateName",
          "type": "string"
        },
        {
          "internalType": "string",
          "name": "_candidateAadhar",
          "type": "string"
        }
      ],
      "name": "voteKarteRaho",
      "outputs": [],
      "stateMutability": "nonpayable",
      "type": "function"
    },
    {
      "inputs": [
        {
          "internalType": "uint256",
          "name": "_uniqueId",
          "type": "uint256"
        }
      ],
      "name": "getCandidates",
      "outputs": [
        {
          "internalType": "string[]",
          "name": "",
          "type": "string[]"
        }
      ],
      "stateMutability": "view",
      "type": "function",
      "constant": true
    },
    {
      "inputs": [
        {
          "internalType": "uint256",
          "name": "_uniqueId",
          "type": "uint256"
        }
      ],
      "name": "getVoters",
      "outputs": [
        {
          "internalType": "string[]",
          "name": "",
          "type": "string[]"
        }
      ],
      "stateMutability": "view",
      "type": "function",
      "constant": true
    },
    {
      "inputs": [],
      "name": "addMoneyToOwner",
      "outputs": [],
      "stateMutability": "payable",
      "type": "function",
      "payable": true
    },
    {
      "inputs": [
        {
          "internalType": "uint256",
          "name": "_uniqueId",
          "type": "uint256"
        }
      ],
      "name": "getWinner",
      "outputs": [
        {
          "internalType": "string",
          "name": "",
          "type": "string"
        }
      ],
      "stateMutability": "view",
      "type": "function",
      "constant": true
    },
    {
      "inputs": [
        {
          "internalType": "string",
          "name": "_voterAddress",
          "type": "string"
        }
      ],
      "name": "getSystemIdsOfVoter",
      "outputs": [
        {
          "internalType": "uint256[]",
          "name": "",
          "type": "uint256[]"
        }
      ],
      "stateMutability": "view",
      "type": "function",
      "constant": true
    },
    {
      "inputs": [
        {
          "internalType": "uint256",
          "name": "_uniqueId",
          "type": "uint256"
        },
        {
          "internalType": "string",
          "name": "_voterAadhar",
          "type": "string"
        }
      ],
      "name": "getOtherCandidates",
      "outputs": [
        {
          "internalType": "string[]",
          "name": "",
          "type": "string[]"
        }
      ],
      "stateMutability": "view",
      "type": "function",
      "constant": true
    },
    {
      "inputs": [
        {
          "internalType": "uint256",
          "name": "_uniqueId",
          "type": "uint256"
        }
      ],
      "name": "getTimeRemaining",
      "outputs": [
        {
          "internalType": "uint256",
          "name": "",
          "type": "uint256"
        }
      ],
      "stateMutability": "view",
      "type": "function",
      "constant": true
    }
  ],
  "bytecode": "0x608060405234801561001057600080fd5b5033600560006101000a81548173ffffffffffffffffffffffffffffffffffffffff021916908373ffffffffffffffffffffffffffffffffffffffff160217905550612953806100616000396000f3fe6080604052600436106100dd5760003560e01c806384f3f1481161007f578063b4ed7f7611610059578063b4ed7f76146102de578063c2967b5e14610307578063cd9cf10414610344578063cff29c1c14610388576100dd565b806384f3f1481461025a57806386b646f2146102645780638cd42991146102a1576100dd565b80633ab59bb6116100bb5780633ab59bb61461018a5780633e39a7a5146101b55780634129b2c9146101f257806381b2d07b1461022f576100dd565b80630ffca604146100e257806326906827146101245780632b22d0f51461014d575b600080fd5b3480156100ee57600080fd5b5061010960048036038101906101049190611805565b6103c5565b60405161011b969594939291906118d1565b60405180910390f35b34801561013057600080fd5b5061014b60048036038101906101469190611b62565b610599565b005b34801561015957600080fd5b50610174600480360381019061016f9190611ca4565b6106c9565b6040516101819190611e0c565b60405180910390f35b34801561019657600080fd5b5061019f6108f8565b6040516101ac9190611e2e565b60405180910390f35b3480156101c157600080fd5b506101dc60048036038101906101d79190611805565b6108fe565b6040516101e99190611e0c565b60405180910390f35b3480156101fe57600080fd5b5061021960048036038101906102149190611805565b6109ed565b6040516102269190611e49565b60405180910390f35b34801561023b57600080fd5b50610244610c49565b6040516102519190611e2e565b60405180910390f35b610262610c51565b005b34801561027057600080fd5b5061028b60048036038101906102869190611805565b610d32565b6040516102989190611e0c565b60405180910390f35b3480156102ad57600080fd5b506102c860048036038101906102c39190611805565b610e21565b6040516102d59190611e2e565b60405180910390f35b3480156102ea57600080fd5b5061030560048036038101906103009190611e6b565b610f02565b005b34801561031357600080fd5b5061032e60048036038101906103299190611ca4565b610f12565b60405161033b9190611e2e565b60405180910390f35b34801561035057600080fd5b5061036b60048036038101906103669190611805565b610f4d565b60405161037f989796959493929190611ef6565b60405180910390f35b34801561039457600080fd5b506103af60048036038101906103aa9190611f97565b611349565b6040516103bc919061209e565b60405180910390f35b60046020528060005260406000206000915090508060000154908060010180546103ee906120ef565b80601f016020809104026020016040519081016040528092919081815260200182805461041a906120ef565b80156104675780601f1061043c57610100808354040283529160200191610467565b820191906000526020600020905b81548152906001019060200180831161044a57829003601f168201915b505050505090806002015490806004015490806006018054610488906120ef565b80601f01602080910402602001604051908101604052809291908181526020018280546104b4906120ef565b80156105015780601f106104d657610100808354040283529160200191610501565b820191906000526020600020905b8154815290600101906020018083116104e457829003601f168201915b505050505090806007018054610516906120ef565b80601f0160208091040260200160405190810160405280929190818152602001828054610542906120ef565b801561058f5780601f106105645761010080835404028352916020019161058f565b820191906000526020600020905b81548152906001019060200180831161057257829003601f168201915b5050505050905086565b600062015180856105aa919061214f565b426105b59190612191565b905060006040518061010001604052808b81526020018a815260200189815260200188815260200183815260200186815260200185815260200184815250905080600460008c81526020019081526020016000206000820151816000015560208201518160010190816106289190612371565b5060408201518160020155606082015181600301908051906020019061064f9291906116e1565b506080820151816004015560a08201518160050190805190602001906106769291906116e1565b5060c082015181600601908161068c9190612371565b5060e08201518160070190816106a29190612371565b509050506000808154809291906106b890612443565b919050555050505050505050505050565b6060600060046000858152602001908152602001600020600301805480602002602001604051908101604052809291908181526020016000905b828210156107af578382906000526020600020018054610722906120ef565b80601f016020809104026020016040519081016040528092919081815260200182805461074e906120ef565b801561079b5780601f106107705761010080835404028352916020019161079b565b820191906000526020600020905b81548152906001019060200180831161077e57829003601f168201915b505050505081526020019060010190610703565b50505050905060006004600086815260200190815260200160002060020154905060006001826107df919061248b565b67ffffffffffffffff8111156107f8576107f7611951565b5b60405190808252806020026020018201604052801561082b57816020015b60608152602001906001900390816108165790505b5090506000805b838110156108ea578680519060200120600460008a8152602001908152602001600020600501828154811061086a576108696124bf565b5b906000526020600020016040516108819190612591565b604051809103902003156108d7578481815181106108a2576108a16124bf565b5b60200260200101518383815181106108bd576108bc6124bf565b5b602002602001018190525081806108d390612443565b9250505b80806108e290612443565b915050610832565b508194505050505092915050565b60005481565b606060046000838152602001908152602001600020600301805480602002602001604051908101604052809291908181526020016000905b828210156109e2578382906000526020600020018054610955906120ef565b80601f0160208091040260200160405190810160405280929190818152602001828054610981906120ef565b80156109ce5780601f106109a3576101008083540402835291602001916109ce565b820191906000526020600020905b8154815290600101906020018083116109b157829003601f168201915b505050505081526020019060010190610936565b505050509050919050565b6060600560009054906101000a900473ffffffffffffffffffffffffffffffffffffffff1673ffffffffffffffffffffffffffffffffffffffff163373ffffffffffffffffffffffffffffffffffffffff1614610a7f576040517f08c379a0000000000000000000000000000000000000000000000000000000008152600401610a76906125f4565b60405180910390fd5b42600460008481526020019081526020016000206004015410610ad7576040517f08c379a0000000000000000000000000000000000000000000000000000000008152600401610ace90612660565b60405180910390fd5b6000606060005b6004600086815260200190815260200160002060020154811015610c3e57600060016000878152602001908152602001600020600460008881526020019081526020016000206003018381548110610b3957610b386124bf565b5b90600052602060002001604051610b50919061270e565b908152602001604051809103902054905083811115610c2a57809350600460008781526020019081526020016000206003018281548110610b9457610b936124bf565b5b906000526020600020018054610ba9906120ef565b80601f0160208091040260200160405190810160405280929190818152602001828054610bd5906120ef565b8015610c225780601f10610bf757610100808354040283529160200191610c22565b820191906000526020600020905b815481529060010190602001808311610c0557829003601f168201915b505050505092505b508080610c3690612443565b915050610ade565b508092505050919050565b600047905090565b600560009054906101000a900473ffffffffffffffffffffffffffffffffffffffff1673ffffffffffffffffffffffffffffffffffffffff163373ffffffffffffffffffffffffffffffffffffffff1614610ce1576040517f08c379a0000000000000000000000000000000000000000000000000000000008152600401610cd8906125f4565b60405180910390fd5b3373ffffffffffffffffffffffffffffffffffffffff166108fc670de0b6b3a76400009081150290604051600060405180830381858888f19350505050158015610d2f573d6000803e3d6000fd5b50565b606060046000838152602001908152602001600020600501805480602002602001604051908101604052809291908181526020016000905b82821015610e16578382906000526020600020018054610d89906120ef565b80601f0160208091040260200160405190810160405280929190818152602001828054610db5906120ef565b8015610e025780601f10610dd757610100808354040283529160200191610e02565b820191906000526020600020905b815481529060010190602001808311610de557829003601f168201915b505050505081526020019060010190610d6a565b505050509050919050565b600080600460008481526020019081526020016000206004015411610e7b576040517f08c379a0000000000000000000000000000000000000000000000000000000008152600401610e7290612771565b60405180910390fd5b42600460008481526020019081526020016000206004015411610ed3576040517f08c379a0000000000000000000000000000000000000000000000000000000008152600401610eca906127dd565b60405180910390fd5b6000426004600085815260200190815260200160002060040154610ef7919061248b565b905080915050919050565b610f0d83838361149d565b505050565b600160205281600052604060002081805160208101820180518482526020830160208501208183528095505050505050600091509150505481565b6000606060006060600060608060606000600460008b81526020019081526020016000206040518061010001604052908160008201548152602001600182018054610f97906120ef565b80601f0160208091040260200160405190810160405280929190818152602001828054610fc3906120ef565b80156110105780601f10610fe557610100808354040283529160200191611010565b820191906000526020600020905b815481529060010190602001808311610ff357829003601f168201915b505050505081526020016002820154815260200160038201805480602002602001604051908101604052809291908181526020016000905b828210156110f4578382906000526020600020018054611067906120ef565b80601f0160208091040260200160405190810160405280929190818152602001828054611093906120ef565b80156110e05780601f106110b5576101008083540402835291602001916110e0565b820191906000526020600020905b8154815290600101906020018083116110c357829003601f168201915b505050505081526020019060010190611048565b5050505081526020016004820154815260200160058201805480602002602001604051908101604052809291908181526020016000905b828210156111d757838290600052602060002001805461114a906120ef565b80601f0160208091040260200160405190810160405280929190818152602001828054611176906120ef565b80156111c35780601f10611198576101008083540402835291602001916111c3565b820191906000526020600020905b8154815290600101906020018083116111a657829003601f168201915b50505050508152602001906001019061112b565b5050505081526020016006820180546111ef906120ef565b80601f016020809104026020016040519081016040528092919081815260200182805461121b906120ef565b80156112685780601f1061123d57610100808354040283529160200191611268565b820191906000526020600020905b81548152906001019060200180831161124b57829003601f168201915b50505050508152602001600782018054611281906120ef565b80601f01602080910402602001604051908101604052809291908181526020018280546112ad906120ef565b80156112fa5780601f106112cf576101008083540402835291602001916112fa565b820191906000526020600020905b8154815290600101906020018083116112dd57829003601f168201915b5050505050815250509050806000015181602001518260400151836060015184608001518560a001518660c001518760e001519850985098509850985098509850985050919395975091939597565b60606000805467ffffffffffffffff81111561136857611367611951565b5b6040519080825280602002602001820160405280156113965781602001602082028036833780820191505090505b509050600080600190505b60005481116114925760005b600460008381526020019081526020016000206005018054905081101561147e5785805190602001206004600084815260200190815260200160002060050182815481106113fe576113fd6124bf565b5b906000526020600020016040516114159190612591565b60405180910390200361146b57600460008381526020019081526020016000206000015484848151811061144c5761144b6124bf565b5b602002602001018181525050828061146390612443565b93505061147e565b808061147690612443565b9150506113ad565b50808061148a90612443565b9150506113a1565b508192505050919050565b6114a7838261163b565b6114e6576040517f08c379a00000000000000000000000000000000000000000000000000000000081526004016114dd90612849565b60405180910390fd5b426004600085815260200190815260200160002060040154101561153f576040517f08c379a0000000000000000000000000000000000000000000000000000000008152600401611536906128b5565b60405180910390fd5b6001806000858152602001908152602001600020836040516115619190612906565b9081526020016040518091039020600082825461157e9190612191565b9250508190555060016002600085815260200190815260200160002060003373ffffffffffffffffffffffffffffffffffffffff1673ffffffffffffffffffffffffffffffffffffffff16815260200190815260200160002060006101000a81548160ff021916908315150217905550600160036000858152602001908152602001600020826040516116119190612906565b908152602001604051809103902060006101000a81548160ff021916908315150217905550505050565b600080600090505b60046000858152602001908152602001600020600501805490508110156116d5578280519060200120600460008681526020019081526020016000206005018281548110611694576116936124bf565b5b906000526020600020016040516116ab9190612591565b6040518091039020036116c25760019150506116db565b80806116cd90612443565b915050611643565b50600090505b92915050565b828054828255906000526020600020908101928215611729579160200282015b828111156117285782518290816117189190612371565b5091602001919060010190611701565b5b509050611736919061173a565b5090565b5b8082111561175a5760008181611751919061175e565b5060010161173b565b5090565b50805461176a906120ef565b6000825580601f1061177c575061179b565b601f01602090049060005260206000209081019061179a919061179e565b5b50565b5b808211156117b757600081600090555060010161179f565b5090565b6000604051905090565b600080fd5b600080fd5b6000819050919050565b6117e2816117cf565b81146117ed57600080fd5b50565b6000813590506117ff816117d9565b92915050565b60006020828403121561181b5761181a6117c5565b5b6000611829848285016117f0565b91505092915050565b61183b816117cf565b82525050565b600081519050919050565b600082825260208201905092915050565b60005b8381101561187b578082015181840152602081019050611860565b60008484015250505050565b6000601f19601f8301169050919050565b60006118a382611841565b6118ad818561184c565b93506118bd81856020860161185d565b6118c681611887565b840191505092915050565b600060c0820190506118e66000830189611832565b81810360208301526118f88188611898565b90506119076040830187611832565b6119146060830186611832565b81810360808301526119268185611898565b905081810360a083015261193a8184611898565b9050979650505050505050565b600080fd5b600080fd5b7f4e487b7100000000000000000000000000000000000000000000000000000000600052604160045260246000fd5b61198982611887565b810181811067ffffffffffffffff821117156119a8576119a7611951565b5b80604052505050565b60006119bb6117bb565b90506119c78282611980565b919050565b600067ffffffffffffffff8211156119e7576119e6611951565b5b6119f082611887565b9050602081019050919050565b82818337600083830152505050565b6000611a1f611a1a846119cc565b6119b1565b905082815260208101848484011115611a3b57611a3a61194c565b5b611a468482856119fd565b509392505050565b600082601f830112611a6357611a62611947565b5b8135611a73848260208601611a0c565b91505092915050565b600067ffffffffffffffff821115611a9757611a96611951565b5b602082029050602081019050919050565b600080fd5b6000611ac0611abb84611a7c565b6119b1565b90508083825260208201905060208402830185811115611ae357611ae2611aa8565b5b835b81811015611b2a57803567ffffffffffffffff811115611b0857611b07611947565b5b808601611b158982611a4e565b85526020850194505050602081019050611ae5565b5050509392505050565b600082601f830112611b4957611b48611947565b5b8135611b59848260208601611aad565b91505092915050565b600080600080600080600080610100898b031215611b8357611b826117c5565b5b6000611b918b828c016117f0565b985050602089013567ffffffffffffffff811115611bb257611bb16117ca565b5b611bbe8b828c01611a4e565b9750506040611bcf8b828c016117f0565b965050606089013567ffffffffffffffff811115611bf057611bef6117ca565b5b611bfc8b828c01611b34565b9550506080611c0d8b828c016117f0565b94505060a089013567ffffffffffffffff811115611c2e57611c2d6117ca565b5b611c3a8b828c01611b34565b93505060c089013567ffffffffffffffff811115611c5b57611c5a6117ca565b5b611c678b828c01611a4e565b92505060e089013567ffffffffffffffff811115611c8857611c876117ca565b5b611c948b828c01611a4e565b9150509295985092959890939650565b60008060408385031215611cbb57611cba6117c5565b5b6000611cc9858286016117f0565b925050602083013567ffffffffffffffff811115611cea57611ce96117ca565b5b611cf685828601611a4e565b9150509250929050565b600081519050919050565b600082825260208201905092915050565b6000819050602082019050919050565b600082825260208201905092915050565b6000611d4882611841565b611d528185611d2c565b9350611d6281856020860161185d565b611d6b81611887565b840191505092915050565b6000611d828383611d3d565b905092915050565b6000602082019050919050565b6000611da282611d00565b611dac8185611d0b565b935083602082028501611dbe85611d1c565b8060005b85811015611dfa5784840389528151611ddb8582611d76565b9450611de683611d8a565b925060208a01995050600181019050611dc2565b50829750879550505050505092915050565b60006020820190508181036000830152611e268184611d97565b905092915050565b6000602082019050611e436000830184611832565b92915050565b60006020820190508181036000830152611e638184611898565b905092915050565b600080600060608486031215611e8457611e836117c5565b5b6000611e92868287016117f0565b935050602084013567ffffffffffffffff811115611eb357611eb26117ca565b5b611ebf86828701611a4e565b925050604084013567ffffffffffffffff811115611ee057611edf6117ca565b5b611eec86828701611a4e565b9150509250925092565b600061010082019050611f0c600083018b611832565b8181036020830152611f1e818a611898565b9050611f2d6040830189611832565b8181036060830152611f3f8188611d97565b9050611f4e6080830187611832565b81810360a0830152611f608186611d97565b905081810360c0830152611f748185611898565b905081810360e0830152611f888184611898565b90509998505050505050505050565b600060208284031215611fad57611fac6117c5565b5b600082013567ffffffffffffffff811115611fcb57611fca6117ca565b5b611fd784828501611a4e565b91505092915050565b600081519050919050565b600082825260208201905092915050565b6000819050602082019050919050565b612015816117cf565b82525050565b6000612027838361200c565b60208301905092915050565b6000602082019050919050565b600061204b82611fe0565b6120558185611feb565b935061206083611ffc565b8060005b83811015612091578151612078888261201b565b975061208383612033565b925050600181019050612064565b5085935050505092915050565b600060208201905081810360008301526120b88184612040565b905092915050565b7f4e487b7100000000000000000000000000000000000000000000000000000000600052602260045260246000fd5b6000600282049050600182168061210757607f821691505b60208210810361211a576121196120c0565b5b50919050565b7f4e487b7100000000000000000000000000000000000000000000000000000000600052601160045260246000fd5b600061215a826117cf565b9150612165836117cf565b9250828202612173816117cf565b9150828204841483151761218a57612189612120565b5b5092915050565b600061219c826117cf565b91506121a7836117cf565b92508282019050808211156121bf576121be612120565b5b92915050565b60008190508160005260206000209050919050565b60006020601f8301049050919050565b600082821b905092915050565b6000600883026122277fffffffffffffffffffffffffffffffffffffffffffffffffffffffffffffffff826121ea565b61223186836121ea565b95508019841693508086168417925050509392505050565b6000819050919050565b600061226e612269612264846117cf565b612249565b6117cf565b9050919050565b6000819050919050565b61228883612253565b61229c61229482612275565b8484546121f7565b825550505050565b600090565b6122b16122a4565b6122bc81848461227f565b505050565b5b818110156122e0576122d56000826122a9565b6001810190506122c2565b5050565b601f821115612325576122f6816121c5565b6122ff846121da565b8101602085101561230e578190505b61232261231a856121da565b8301826122c1565b50505b505050565b600082821c905092915050565b60006123486000198460080261232a565b1980831691505092915050565b60006123618383612337565b9150826002028217905092915050565b61237a82611841565b67ffffffffffffffff81111561239357612392611951565b5b61239d82546120ef565b6123a88282856122e4565b600060209050601f8311600181146123db57600084156123c9578287015190505b6123d38582612355565b86555061243b565b601f1984166123e9866121c5565b60005b82811015612411578489015182556001820191506020850194506020810190506123ec565b8683101561242e578489015161242a601f891682612337565b8355505b6001600288020188555050505b505050505050565b600061244e826117cf565b91507fffffffffffffffffffffffffffffffffffffffffffffffffffffffffffffffff82036124805761247f612120565b5b600182019050919050565b6000612496826117cf565b91506124a1836117cf565b92508282039050818111156124b9576124b8612120565b5b92915050565b7f4e487b7100000000000000000000000000000000000000000000000000000000600052603260045260246000fd5b600081905092915050565b60008190508160005260206000209050919050565b6000815461251b816120ef565b61252581866124ee565b94506001821660008114612540576001811461255557612588565b60ff1983168652811515820286019350612588565b61255e856124f9565b60005b8381101561258057815481890152600182019150602081019050612561565b838801955050505b50505092915050565b600061259d828461250e565b915081905092915050565b7f4e6f7420417574686f72697a6564000000000000000000000000000000000000600082015250565b60006125de600e8361184c565b91506125e9826125a8565b602082019050919050565b6000602082019050818103600083015261260d816125d1565b9050919050565b7f566f74696e6720706572696f6420686173206e6f7420656e6465642079657400600082015250565b600061264a601f8361184c565b915061265582612614565b602082019050919050565b600060208201905081810360008301526126798161263d565b9050919050565b600081905092915050565b60008154612698816120ef565b6126a28186612680565b945060018216600081146126bd57600181146126d257612705565b60ff1983168652811515820286019350612705565b6126db856121c5565b60005b838110156126fd578154818901526001820191506020810190506126de565b838801955050505b50505092915050565b600061271a828461268b565b915081905092915050565b7f506f6c6c20686173206e6f742073746172746564207965740000000000000000600082015250565b600061275b60188361184c565b915061276682612725565b602082019050919050565b6000602082019050818103600083015261278a8161274e565b9050919050565b7f506f6c6c2068617320656e646564000000000000000000000000000000000000600082015250565b60006127c7600e8361184c565b91506127d282612791565b602082019050919050565b600060208201905081810360008301526127f6816127ba565b9050919050565b7f596f7520617265206e6f7420417574686f72697a656420746f20566f74650000600082015250565b6000612833601e8361184c565b915061283e826127fd565b602082019050919050565b6000602082019050818103600083015261286281612826565b9050919050565b7f54686520766f74696e672074696d65206973204f766572210000000000000000600082015250565b600061289f60188361184c565b91506128aa82612869565b602082019050919050565b600060208201905081810360008301526128ce81612892565b9050919050565b60006128e082611841565b6128ea8185612680565b93506128fa81856020860161185d565b80840191505092915050565b600061291282846128d5565b91508190509291505056fea2646970667358221220f1e540c64c0aef505380e73cf6bd597b6d77cb7cd8b52497fde6159258ce67e664736f6c63430008120033",
  "immutableReferences": {},
  "source": "// SPDX-License-Identifier: GPL-3.0\r\n\r\npragma solidity >=0.7.0 <0.9.0;\r\n// import \"@openzeppelin/contracts/utils/Strings.sol\";\r\n\r\ncontract ApprovalVoting{\r\n    uint public systemCount;\r\n    struct VotingSystem{\r\n        uint uniqueId;\r\n        string systemName;\r\n        uint numberOfCandidates;\r\n        string[] candidates;\r\n        uint votingPeriod;       \r\n        string[] votersForElection;\r\n        string electionHelderName;\r\n        string description;\r\n    }\r\n\r\n    mapping (uint => mapping (string => uint)) public differentSystemVotes;\r\n    mapping (uint => mapping (address => bool)) differentSystemVotingDone;\r\n    mapping (uint => mapping (string => bool)) differentPanCardsVoting;\r\n    mapping (uint => VotingSystem) public systems;\r\n\r\n    function getSystemDetails(uint _uniqueId) public view returns (uint, string memory, uint, string[] memory, uint, string[] memory, string memory, string memory) {\r\n        VotingSystem memory system = systems[_uniqueId];\r\n        return (system.uniqueId, system.systemName, system.numberOfCandidates, system.candidates, system.votingPeriod, system.votersForElection, system.electionHelderName, system.description);\r\n    }\r\n\r\n    function createSystem(uint _uniqueId, string memory _systemName, uint _numberOfCandidates, string[] memory _candidates,uint numberOfDays,string[] memory _votersForElection, string memory _electionHelderName,string memory _description) public   {\r\n        uint _votingPeriod = block.timestamp + (numberOfDays * 1 days);\r\n        VotingSystem memory system =  VotingSystem(_uniqueId,_systemName,_numberOfCandidates,_candidates,_votingPeriod,_votersForElection,_electionHelderName,_description);\r\n        systems[_uniqueId] = system;\r\n        systemCount++;\r\n    }\r\n\r\n\r\n    address payable owner;\r\n    mapping (address => uint) votingDone;\r\n  \r\n    constructor() {\r\n        owner = payable(msg.sender);\r\n    }\r\n\r\n\r\n    function showBalance() public view returns(uint) {\r\n        return address(this).balance;\r\n    }\r\n\r\n    function voteKarteRaho(uint _uniqueId,string memory _candidateName,string memory _candidateAadhar) public  {\r\n        voteNow(_uniqueId,_candidateName,_candidateAadhar);\r\n    }\r\n\r\n    function checkIfUserExists(uint _uniqueId,string memory _candidateAadhar) internal view returns(bool){\r\n        for(uint i=0;i<systems[_uniqueId].votersForElection.length;i++){\r\n            if (keccak256(bytes(systems[_uniqueId].votersForElection[i])) == keccak256(bytes(_candidateAadhar))){\r\n                return true;\r\n            }\r\n        }\r\n        return false;\r\n    }\r\n\r\n    function voteNow(uint _uniqueId,string memory _candidateName,string memory _candidateAadhar) internal{\r\n        require(checkIfUserExists(_uniqueId, _candidateAadhar),\"You are not Authorized to Vote\");\r\n        // require(differentSystemVotingDone[_uniqueId][msg.sender]==false,\"You have already Voted\");\r\n        // require(differentPanCardsVoting[_uniqueId][_candidateAadhar]==false,\"You have already Voted\");\r\n        require(systems[_uniqueId].votingPeriod >= block.timestamp, \"The voting time is Over!\");\r\n        differentSystemVotes[_uniqueId][_candidateName] +=1;\r\n        differentSystemVotingDone[_uniqueId][msg.sender] = true;\r\n        differentPanCardsVoting[_uniqueId][_candidateAadhar]=true;\r\n    }\r\n\r\n    function getCandidates(uint _uniqueId) public view returns (string[] memory)  {\r\n        return systems[_uniqueId].candidates;\r\n    }\r\n\r\n    function getVoters(uint _uniqueId) public view returns (string[] memory)  {\r\n        return systems[_uniqueId].votersForElection;\r\n    }\r\n\r\n    function addMoneyToOwner() public payable{\r\n        require(msg.sender == owner, \"Not Authorized\");\r\n        payable(msg.sender).transfer(1 ether);\r\n    }\r\n\r\n    function getWinner(uint _uniqueId) public view returns (string memory) {\r\n        require(msg.sender == owner, \"Not Authorized\");\r\n        require(systems[_uniqueId].votingPeriod < block.timestamp, \"Voting period has not ended yet\");\r\n\r\n        uint maxVotes = 0;\r\n        string memory winner;\r\n\r\n        for (uint i = 0; i < systems[_uniqueId].numberOfCandidates; i++) {\r\n            uint candidateVotes = differentSystemVotes[_uniqueId][systems[_uniqueId].candidates[i]];\r\n            if (candidateVotes > maxVotes) {\r\n                maxVotes = candidateVotes;\r\n                winner = systems[_uniqueId].candidates[i];\r\n            }\r\n        }\r\n        return winner;\r\n    }\r\n\r\n    function getSystemIdsOfVoter(string memory _voterAddress) public view returns (uint[] memory) {\r\n        uint[] memory systemIds = new uint[](systemCount);\r\n        uint systemIndex = 0;\r\n        for (uint i = 1; i <= systemCount; i++) {\r\n            for (uint j = 0; j < systems[i].votersForElection.length; j++) {\r\n                if (keccak256(bytes(systems[i].votersForElection[j])) == keccak256(bytes(_voterAddress))) {\r\n                    systemIds[systemIndex] = systems[i].uniqueId;\r\n                    systemIndex++;\r\n                    break;\r\n                }\r\n            }\r\n        }\r\n        return systemIds;\r\n    }\r\n\r\n    function getOtherCandidates(uint _uniqueId, string memory _voterAadhar) public view returns (string[] memory) {\r\n        string[] memory candidates = systems[_uniqueId].candidates;\r\n        uint numCandidates = systems[_uniqueId].numberOfCandidates;\r\n        string[] memory otherCandidates = new string[](numCandidates - 1);\r\n        uint index = 0;\r\n\r\n        for (uint i = 0; i < numCandidates; i++) {\r\n            if (keccak256(bytes(systems[_uniqueId].votersForElection[i])) == keccak256(bytes(_voterAadhar))) {\r\n                // If the current voter has voted for this candidate, skip to the next candidate\r\n                continue;\r\n            }\r\n\r\n            otherCandidates[index] = candidates[i];\r\n            index++;\r\n        }\r\n\r\n        return otherCandidates;\r\n    }\r\n\r\n    function getTimeRemaining(uint _uniqueId) public view returns (uint) {\r\n        require(systems[_uniqueId].votingPeriod > 0, \"Poll has not started yet\");\r\n        require(systems[_uniqueId].votingPeriod > block.timestamp, \"Poll has ended\");\r\n\r\n        uint timeRemaining = systems[_uniqueId].votingPeriod - block.timestamp;\r\n\r\n        return timeRemaining;\r\n    }\r\n\r\n}",
  "sourcePath": "C:\\Users\\Meet\\OneDrive\\Desktop\\React\\clash_of_codes\\contracts\\ApprovalVoting.sol",
  "compiler": {
    "name": "solc",
    "version": "0.8.18+commit.87f61d96.Emscripten.clang"
  },
  "schemaVersion": "3.4.13",
  "updatedAt": "2023-03-05T02:16:05.821Z",
  "networkType": "ethereum",
  "devdoc": {
    "kind": "dev",
    "methods": {},
    "version": 1
  },
  "userdoc": {
    "kind": "user",
    "methods": {},
    "version": 1
  }
}