{
  "contractName": "ApprovalVoting",
  "abi": [
    {
      "inputs": [],
      "stateMutability": "nonpayable",
      "type": "constructor"
    },
    {
      "inputs": [
        {
          "internalType": "uint256",
          "name": "",
          "type": "uint256"
        },
        {
          "internalType": "string",
          "name": "",
          "type": "string"
        }
      ],
      "name": "differentSystemVotes",
      "outputs": [
        {
          "internalType": "uint256",
          "name": "",
          "type": "uint256"
        }
      ],
      "stateMutability": "view",
      "type": "function"
    },
    {
      "inputs": [],
      "name": "systemCount",
      "outputs": [
        {
          "internalType": "uint256",
          "name": "",
          "type": "uint256"
        }
      ],
      "stateMutability": "view",
      "type": "function"
    },
    {
      "inputs": [
        {
          "internalType": "uint256",
          "name": "",
          "type": "uint256"
        }
      ],
      "name": "systems",
      "outputs": [
        {
          "internalType": "uint256",
          "name": "uniqueId",
          "type": "uint256"
        },
        {
          "internalType": "string",
          "name": "systemName",
          "type": "string"
        },
        {
          "internalType": "uint256",
          "name": "numberOfCandidates",
          "type": "uint256"
        },
        {
          "internalType": "uint256",
          "name": "votingPeriod",
          "type": "uint256"
        },
        {
          "internalType": "string",
          "name": "electionHelderName",
          "type": "string"
        },
        {
          "internalType": "string",
          "name": "description",
          "type": "string"
        }
      ],
      "stateMutability": "view",
      "type": "function"
    },
    {
      "inputs": [
        {
          "internalType": "uint256",
          "name": "_uniqueId",
          "type": "uint256"
        }
      ],
      "name": "getSystemDetails",
      "outputs": [
        {
          "internalType": "uint256",
          "name": "",
          "type": "uint256"
        },
        {
          "internalType": "string",
          "name": "",
          "type": "string"
        },
        {
          "internalType": "uint256",
          "name": "",
          "type": "uint256"
        },
        {
          "internalType": "string[]",
          "name": "",
          "type": "string[]"
        },
        {
          "internalType": "uint256",
          "name": "",
          "type": "uint256"
        },
        {
          "internalType": "string[]",
          "name": "",
          "type": "string[]"
        },
        {
          "internalType": "string",
          "name": "",
          "type": "string"
        },
        {
          "internalType": "string",
          "name": "",
          "type": "string"
        }
      ],
      "stateMutability": "view",
      "type": "function"
    },
    {
      "inputs": [
        {
          "internalType": "uint256",
          "name": "_uniqueId",
          "type": "uint256"
        },
        {
          "internalType": "string",
          "name": "_systemName",
          "type": "string"
        },
        {
          "internalType": "uint256",
          "name": "_numberOfCandidates",
          "type": "uint256"
        },
        {
          "internalType": "string[]",
          "name": "_candidates",
          "type": "string[]"
        },
        {
          "internalType": "uint256",
          "name": "numberOfDays",
          "type": "uint256"
        },
        {
          "internalType": "string[]",
          "name": "_votersForElection",
          "type": "string[]"
        },
        {
          "internalType": "string",
          "name": "_electionHelderName",
          "type": "string"
        },
        {
          "internalType": "string",
          "name": "_description",
          "type": "string"
        }
      ],
      "name": "createSystem",
      "outputs": [],
      "stateMutability": "nonpayable",
      "type": "function"
    },
    {
      "inputs": [],
      "name": "showBalance",
      "outputs": [
        {
          "internalType": "uint256",
          "name": "",
          "type": "uint256"
        }
      ],
      "stateMutability": "view",
      "type": "function"
    },
    {
      "inputs": [
        {
          "internalType": "uint256",
          "name": "_uniqueId",
          "type": "uint256"
        },
        {
          "internalType": "string",
          "name": "_candidateName",
          "type": "string"
        },
        {
          "internalType": "string",
          "name": "_candidateAadhar",
          "type": "string"
        }
      ],
      "name": "voteKarteRaho",
      "outputs": [],
      "stateMutability": "nonpayable",
      "type": "function"
    },
    {
      "inputs": [
        {
          "internalType": "uint256",
          "name": "_uniqueId",
          "type": "uint256"
        }
      ],
      "name": "getCandidates",
      "outputs": [
        {
          "internalType": "string[]",
          "name": "",
          "type": "string[]"
        }
      ],
      "stateMutability": "view",
      "type": "function"
    },
    {
      "inputs": [
        {
          "internalType": "uint256",
          "name": "_uniqueId",
          "type": "uint256"
        }
      ],
      "name": "getVoters",
      "outputs": [
        {
          "internalType": "string[]",
          "name": "",
          "type": "string[]"
        }
      ],
      "stateMutability": "view",
      "type": "function"
    },
    {
      "inputs": [],
      "name": "addMoneyToOwner",
      "outputs": [],
      "stateMutability": "payable",
      "type": "function"
    },
    {
      "inputs": [
        {
          "internalType": "uint256",
          "name": "_uniqueId",
          "type": "uint256"
        }
      ],
      "name": "getWinner",
      "outputs": [
        {
          "internalType": "string",
          "name": "",
          "type": "string"
        }
      ],
      "stateMutability": "view",
      "type": "function"
    },
    {
      "inputs": [
        {
          "internalType": "string",
          "name": "_voterAddress",
          "type": "string"
        }
      ],
      "name": "getSystemIdsOfVoter",
      "outputs": [
        {
          "internalType": "uint256[]",
          "name": "",
          "type": "uint256[]"
        }
      ],
      "stateMutability": "view",
      "type": "function"
    },
    {
      "inputs": [
        {
          "internalType": "uint256",
          "name": "_uniqueId",
          "type": "uint256"
        },
        {
          "internalType": "string",
          "name": "_voterAadhar",
          "type": "string"
        }
      ],
      "name": "getOtherCandidates",
      "outputs": [
        {
          "internalType": "string[]",
          "name": "",
          "type": "string[]"
        }
      ],
      "stateMutability": "view",
      "type": "function"
    },
    {
      "inputs": [
        {
          "internalType": "uint256",
          "name": "uniqueId",
          "type": "uint256"
        }
      ],
      "name": "getCandidateVoteCounts",
      "outputs": [
        {
          "internalType": "uint256[]",
          "name": "",
          "type": "uint256[]"
        }
      ],
      "stateMutability": "view",
      "type": "function"
    },
    {
      "inputs": [
        {
          "internalType": "uint256",
          "name": "_uniqueId",
          "type": "uint256"
        }
      ],
      "name": "getTimeRemaining",
      "outputs": [
        {
          "internalType": "uint256",
          "name": "",
          "type": "uint256"
        }
      ],
      "stateMutability": "view",
      "type": "function"
    }
  ],
  "bytecode": "0x608060405234801561001057600080fd5b5033600560006101000a81548173ffffffffffffffffffffffffffffffffffffffff021916908373ffffffffffffffffffffffffffffffffffffffff1602179055506129f0806100616000396000f3fe6080604052600436106100e85760003560e01c806384f3f1481161008a578063b4ed7f7611610059578063b4ed7f7614610326578063c2967b5e1461034f578063cd9cf1041461038c578063cff29c1c146103d0576100e8565b806384f3f1481461026557806386b646f21461026f5780638cd42991146102ac5780639baafbcf146102e9576100e8565b80633ab59bb6116100c65780633ab59bb6146101955780633e39a7a5146101c05780634129b2c9146101fd57806381b2d07b1461023a576100e8565b80630ffca604146100ed578063269068271461012f5780632b22d0f514610158575b600080fd5b3480156100f957600080fd5b50610114600480360381019061010f9190611b9b565b61040d565b604051610126969594939291906123eb565b60405180910390f35b34801561013b57600080fd5b5061015660048036038101906101519190611caf565b6105e1565b005b34801561016457600080fd5b5061017f600480360381019061017a9190611bc8565b610724565b60405161018c91906121e9565b60405180910390f35b3480156101a157600080fd5b506101aa610958565b6040516101b7919061232f565b60405180910390f35b3480156101cc57600080fd5b506101e760048036038101906101e29190611b9b565b61095e565b6040516101f491906121e9565b60405180910390f35b34801561020957600080fd5b50610224600480360381019061021f9190611b9b565b610a4d565b604051610231919061222d565b60405180910390f35b34801561024657600080fd5b5061024f610ca9565b60405161025c919061232f565b60405180910390f35b61026d610cb1565b005b34801561027b57600080fd5b5061029660048036038101906102919190611b9b565b610d92565b6040516102a391906121e9565b60405180910390f35b3480156102b857600080fd5b506102d360048036038101906102ce9190611b9b565b610e81565b6040516102e0919061232f565b60405180910390f35b3480156102f557600080fd5b50610310600480360381019061030b9190611b9b565b610f62565b60405161031d919061220b565b60405180910390f35b34801561033257600080fd5b5061034d60048036038101906103489190611c24565b6110c9565b005b34801561035b57600080fd5b5061037660048036038101906103719190611bc8565b6110d9565b604051610383919061232f565b60405180910390f35b34801561039857600080fd5b506103b360048036038101906103ae9190611b9b565b611114565b6040516103c798979695949392919061234a565b60405180910390f35b3480156103dc57600080fd5b506103f760048036038101906103f29190611b52565b611510565b604051610404919061220b565b60405180910390f35b6004602052806000526040600020600091509050806000015490806001018054610436906126f2565b80601f0160208091040260200160405190810160405280929190818152602001828054610462906126f2565b80156104af5780601f10610484576101008083540402835291602001916104af565b820191906000526020600020905b81548152906001019060200180831161049257829003601f168201915b5050505050908060020154908060040154908060060180546104d0906126f2565b80601f01602080910402602001604051908101604052809291908181526020018280546104fc906126f2565b80156105495780601f1061051e57610100808354040283529160200191610549565b820191906000526020600020905b81548152906001019060200180831161052c57829003601f168201915b50505050509080600701805461055e906126f2565b80601f016020809104026020016040519081016040528092919081815260200182805461058a906126f2565b80156105d75780601f106105ac576101008083540402835291602001916105d7565b820191906000526020600020905b8154815290600101906020018083116105ba57829003601f168201915b5050505050905086565b6000603c856105f09190612618565b426105fb91906125c2565b905060006040518061010001604052808b81526020018a815260200189815260200188815260200183815260200186815260200185815260200184815250905080600460008c81526020019081526020016000206000820151816000015560208201518160010190805190602001906106759291906118aa565b5060408201518160020155606082015181600301908051906020019061069c929190611930565b506080820151816004015560a08201518160050190805190602001906106c3929190611930565b5060c08201518160060190805190602001906106e09291906118aa565b5060e08201518160070190805190602001906106fd9291906118aa565b5090505060008081548092919061071390612755565b919050555050505050505050505050565b6060600060046000858152602001908152602001600020600301805480602002602001604051908101604052809291908181526020016000905b8282101561080a57838290600052602060002001805461077d906126f2565b80601f01602080910402602001604051908101604052809291908181526020018280546107a9906126f2565b80156107f65780601f106107cb576101008083540402835291602001916107f6565b820191906000526020600020905b8154815290600101906020018083116107d957829003601f168201915b50505050508152602001906001019061075e565b505050509050600060046000868152602001908152602001600020600201549050600060018261083a9190612672565b67ffffffffffffffff8111156108535761085261282b565b5b60405190808252806020026020018201604052801561088657816020015b60608152602001906001900390816108715790505b5090506000805b8381101561094a578680519060200120600460008a815260200190815260200160002060050182815481106108c5576108c46127fc565b5b906000526020600020016040516108dc91906121a4565b604051809103902014156108ef57610937565b848181518110610902576109016127fc565b5b602002602001015183838151811061091d5761091c6127fc565b5b6020026020010181905250818061093390612755565b9250505b808061094290612755565b91505061088d565b508194505050505092915050565b60005481565b606060046000838152602001908152602001600020600301805480602002602001604051908101604052809291908181526020016000905b82821015610a425783829060005260206000200180546109b5906126f2565b80601f01602080910402602001604051908101604052809291908181526020018280546109e1906126f2565b8015610a2e5780601f10610a0357610100808354040283529160200191610a2e565b820191906000526020600020905b815481529060010190602001808311610a1157829003601f168201915b505050505081526020019060010190610996565b505050509050919050565b6060600560009054906101000a900473ffffffffffffffffffffffffffffffffffffffff1673ffffffffffffffffffffffffffffffffffffffff163373ffffffffffffffffffffffffffffffffffffffff1614610adf576040517f08c379a0000000000000000000000000000000000000000000000000000000008152600401610ad69061228f565b60405180910390fd5b42600460008481526020019081526020016000206004015410610b37576040517f08c379a0000000000000000000000000000000000000000000000000000000008152600401610b2e906122af565b60405180910390fd5b6000606060005b6004600086815260200190815260200160002060020154811015610c9e57600060016000878152602001908152602001600020600460008881526020019081526020016000206003018381548110610b9957610b986127fc565b5b90600052602060002001604051610bb091906121d2565b908152602001604051809103902054905083811115610c8a57809350600460008781526020019081526020016000206003018281548110610bf457610bf36127fc565b5b906000526020600020018054610c09906126f2565b80601f0160208091040260200160405190810160405280929190818152602001828054610c35906126f2565b8015610c825780601f10610c5757610100808354040283529160200191610c82565b820191906000526020600020905b815481529060010190602001808311610c6557829003601f168201915b505050505092505b508080610c9690612755565b915050610b3e565b508092505050919050565b600047905090565b600560009054906101000a900473ffffffffffffffffffffffffffffffffffffffff1673ffffffffffffffffffffffffffffffffffffffff163373ffffffffffffffffffffffffffffffffffffffff1614610d41576040517f08c379a0000000000000000000000000000000000000000000000000000000008152600401610d389061228f565b60405180910390fd5b3373ffffffffffffffffffffffffffffffffffffffff166108fc670de0b6b3a76400009081150290604051600060405180830381858888f19350505050158015610d8f573d6000803e3d6000fd5b50565b606060046000838152602001908152602001600020600501805480602002602001604051908101604052809291908181526020016000905b82821015610e76578382906000526020600020018054610de9906126f2565b80601f0160208091040260200160405190810160405280929190818152602001828054610e15906126f2565b8015610e625780601f10610e3757610100808354040283529160200191610e62565b820191906000526020600020905b815481529060010190602001808311610e4557829003601f168201915b505050505081526020019060010190610dca565b505050509050919050565b600080600460008481526020019081526020016000206004015411610edb576040517f08c379a0000000000000000000000000000000000000000000000000000000008152600401610ed2906122cf565b60405180910390fd5b42600460008481526020019081526020016000206004015411610f33576040517f08c379a0000000000000000000000000000000000000000000000000000000008152600401610f2a9061226f565b60405180910390fd5b6000426004600085815260200190815260200160002060040154610f579190612672565b905080915050919050565b60606000821415610fa8576040517f08c379a0000000000000000000000000000000000000000000000000000000008152600401610f9f9061224f565b60405180910390fd5b6000600460008481526020019081526020016000206002015467ffffffffffffffff811115610fda57610fd961282b565b5b6040519080825280602002602001820160405280156110085781602001602082028036833780820191505090505b50905060005b60046000858152602001908152602001600020600201548110156110bf5760016000858152602001908152602001600020600460008681526020019081526020016000206003018281548110611067576110666127fc565b5b9060005260206000200160405161107e91906121d2565b9081526020016040518091039020548282815181106110a05761109f6127fc565b5b60200260200101818152505080806110b790612755565b91505061100e565b5080915050919050565b6110d4838383611665565b505050565b600160205281600052604060002081805160208101820180518482526020830160208501208183528095505050505050600091509150505481565b6000606060006060600060608060606000600460008b8152602001908152602001600020604051806101000160405290816000820154815260200160018201805461115e906126f2565b80601f016020809104026020016040519081016040528092919081815260200182805461118a906126f2565b80156111d75780601f106111ac576101008083540402835291602001916111d7565b820191906000526020600020905b8154815290600101906020018083116111ba57829003601f168201915b505050505081526020016002820154815260200160038201805480602002602001604051908101604052809291908181526020016000905b828210156112bb57838290600052602060002001805461122e906126f2565b80601f016020809104026020016040519081016040528092919081815260200182805461125a906126f2565b80156112a75780601f1061127c576101008083540402835291602001916112a7565b820191906000526020600020905b81548152906001019060200180831161128a57829003601f168201915b50505050508152602001906001019061120f565b5050505081526020016004820154815260200160058201805480602002602001604051908101604052809291908181526020016000905b8282101561139e578382906000526020600020018054611311906126f2565b80601f016020809104026020016040519081016040528092919081815260200182805461133d906126f2565b801561138a5780601f1061135f5761010080835404028352916020019161138a565b820191906000526020600020905b81548152906001019060200180831161136d57829003601f168201915b5050505050815260200190600101906112f2565b5050505081526020016006820180546113b6906126f2565b80601f01602080910402602001604051908101604052809291908181526020018280546113e2906126f2565b801561142f5780601f106114045761010080835404028352916020019161142f565b820191906000526020600020905b81548152906001019060200180831161141257829003601f168201915b50505050508152602001600782018054611448906126f2565b80601f0160208091040260200160405190810160405280929190818152602001828054611474906126f2565b80156114c15780601f10611496576101008083540402835291602001916114c1565b820191906000526020600020905b8154815290600101906020018083116114a457829003601f168201915b5050505050815250509050806000015181602001518260400151836060015184608001518560a001518660c001518760e001519850985098509850985098509850985050919395975091939597565b60606000805467ffffffffffffffff81111561152f5761152e61282b565b5b60405190808252806020026020018201604052801561155d5781602001602082028036833780820191505090505b509050600080600190505b600054811161165a5760005b60046000838152602001908152602001600020600501805490508110156116465785805190602001206004600084815260200190815260200160002060050182815481106115c5576115c46127fc565b5b906000526020600020016040516115dc91906121a4565b60405180910390201415611633576004600083815260200190815260200160002060000154848481518110611614576116136127fc565b5b602002602001018181525050828061162b90612755565b935050611646565b808061163e90612755565b915050611574565b50808061165290612755565b915050611568565b508192505050919050565b61166f8382611803565b6116ae576040517f08c379a00000000000000000000000000000000000000000000000000000000081526004016116a59061230f565b60405180910390fd5b4260046000858152602001908152602001600020600401541015611707576040517f08c379a00000000000000000000000000000000000000000000000000000000081526004016116fe906122ef565b60405180910390fd5b60018060008581526020019081526020016000208360405161172991906121bb565b9081526020016040518091039020600082825461174691906125c2565b9250508190555060016002600085815260200190815260200160002060003373ffffffffffffffffffffffffffffffffffffffff1673ffffffffffffffffffffffffffffffffffffffff16815260200190815260200160002060006101000a81548160ff021916908315150217905550600160036000858152602001908152602001600020826040516117d991906121bb565b908152602001604051809103902060006101000a81548160ff021916908315150217905550505050565b600080600090505b600460008581526020019081526020016000206005018054905081101561189e57828051906020012060046000868152602001908152602001600020600501828154811061185c5761185b6127fc565b5b9060005260206000200160405161187391906121a4565b6040518091039020141561188b5760019150506118a4565b808061189690612755565b91505061180b565b50600090505b92915050565b8280546118b6906126f2565b90600052602060002090601f0160209004810192826118d8576000855561191f565b82601f106118f157805160ff191683800117855561191f565b8280016001018555821561191f579182015b8281111561191e578251825591602001919060010190611903565b5b50905061192c9190611990565b5090565b82805482825590600052602060002090810192821561197f579160200282015b8281111561197e57825182908051906020019061196e9291906118aa565b5091602001919060010190611950565b5b50905061198c91906119ad565b5090565b5b808211156119a9576000816000905550600101611991565b5090565b5b808211156119cd57600081816119c491906119d1565b506001016119ae565b5090565b5080546119dd906126f2565b6000825580601f106119ef5750611a0e565b601f016020900490600052602060002090810190611a0d9190611990565b5b50565b6000611a24611a1f84612486565b612461565b90508083825260208201905082856020860282011115611a4757611a4661285f565b5b60005b85811015611a9557813567ffffffffffffffff811115611a6d57611a6c61285a565b5b808601611a7a8982611b0f565b85526020850194506020840193505050600181019050611a4a565b5050509392505050565b6000611ab2611aad846124b2565b612461565b905082815260208101848484011115611ace57611acd612864565b5b611ad98482856126b0565b509392505050565b600082601f830112611af657611af561285a565b5b8135611b06848260208601611a11565b91505092915050565b600082601f830112611b2457611b2361285a565b5b8135611b34848260208601611a9f565b91505092915050565b600081359050611b4c816129a3565b92915050565b600060208284031215611b6857611b6761286e565b5b600082013567ffffffffffffffff811115611b8657611b85612869565b5b611b9284828501611b0f565b91505092915050565b600060208284031215611bb157611bb061286e565b5b6000611bbf84828501611b3d565b91505092915050565b60008060408385031215611bdf57611bde61286e565b5b6000611bed85828601611b3d565b925050602083013567ffffffffffffffff811115611c0e57611c0d612869565b5b611c1a85828601611b0f565b9150509250929050565b600080600060608486031215611c3d57611c3c61286e565b5b6000611c4b86828701611b3d565b935050602084013567ffffffffffffffff811115611c6c57611c6b612869565b5b611c7886828701611b0f565b925050604084013567ffffffffffffffff811115611c9957611c98612869565b5b611ca586828701611b0f565b9150509250925092565b600080600080600080600080610100898b031215611cd057611ccf61286e565b5b6000611cde8b828c01611b3d565b985050602089013567ffffffffffffffff811115611cff57611cfe612869565b5b611d0b8b828c01611b0f565b9750506040611d1c8b828c01611b3d565b965050606089013567ffffffffffffffff811115611d3d57611d3c612869565b5b611d498b828c01611ae1565b9550506080611d5a8b828c01611b3d565b94505060a089013567ffffffffffffffff811115611d7b57611d7a612869565b5b611d878b828c01611ae1565b93505060c089013567ffffffffffffffff811115611da857611da7612869565b5b611db48b828c01611b0f565b92505060e089013567ffffffffffffffff811115611dd557611dd4612869565b5b611de18b828c01611b0f565b9150509295985092959890939650565b6000611dfd8383611f6f565b905092915050565b6000611e118383612186565b60208301905092915050565b6000611e288261252d565b611e328185612568565b935083602082028501611e44856124e3565b8060005b85811015611e805784840389528151611e618582611df1565b9450611e6c8361254e565b925060208a01995050600181019050611e48565b50829750879550505050505092915050565b6000611e9d82612538565b611ea78185612579565b9350611eb2836124f3565b8060005b83811015611ee3578151611eca8882611e05565b9750611ed58361255b565b925050600181019050611eb6565b5085935050505092915050565b60008154611efd816126f2565b611f07818661258a565b94506001821660008114611f225760018114611f3357611f66565b60ff19831686528186019350611f66565b611f3c85612503565b60005b83811015611f5e57815481890152600182019150602081019050611f3f565b838801955050505b50505092915050565b6000611f7a82612543565b611f848185612595565b9350611f948185602086016126bf565b611f9d81612873565b840191505092915050565b6000611fb382612543565b611fbd81856125a6565b9350611fcd8185602086016126bf565b611fd681612873565b840191505092915050565b6000611fec82612543565b611ff681856125b7565b93506120068185602086016126bf565b80840191505092915050565b6000815461201f816126f2565b61202981866125b7565b94506001821660008114612044576001811461205557612088565b60ff19831686528186019350612088565b61205e85612518565b60005b8381101561208057815481890152600182019150602081019050612061565b838801955050505b50505092915050565b600061209e6011836125a6565b91506120a982612884565b602082019050919050565b60006120c1600e836125a6565b91506120cc826128ad565b602082019050919050565b60006120e4600e836125a6565b91506120ef826128d6565b602082019050919050565b6000612107601f836125a6565b9150612112826128ff565b602082019050919050565b600061212a6018836125a6565b915061213582612928565b602082019050919050565b600061214d6018836125a6565b915061215882612951565b602082019050919050565b6000612170601e836125a6565b915061217b8261297a565b602082019050919050565b61218f816126a6565b82525050565b61219e816126a6565b82525050565b60006121b08284611ef0565b915081905092915050565b60006121c78284611fe1565b915081905092915050565b60006121de8284612012565b915081905092915050565b600060208201905081810360008301526122038184611e1d565b905092915050565b600060208201905081810360008301526122258184611e92565b905092915050565b600060208201905081810360008301526122478184611fa8565b905092915050565b6000602082019050818103600083015261226881612091565b9050919050565b60006020820190508181036000830152612288816120b4565b9050919050565b600060208201905081810360008301526122a8816120d7565b9050919050565b600060208201905081810360008301526122c8816120fa565b9050919050565b600060208201905081810360008301526122e88161211d565b9050919050565b6000602082019050818103600083015261230881612140565b9050919050565b6000602082019050818103600083015261232881612163565b9050919050565b60006020820190506123446000830184612195565b92915050565b600061010082019050612360600083018b612195565b8181036020830152612372818a611fa8565b90506123816040830189612195565b81810360608301526123938188611e1d565b90506123a26080830187612195565b81810360a08301526123b48186611e1d565b905081810360c08301526123c88185611fa8565b905081810360e08301526123dc8184611fa8565b90509998505050505050505050565b600060c0820190506124006000830189612195565b81810360208301526124128188611fa8565b90506124216040830187612195565b61242e6060830186612195565b81810360808301526124408185611fa8565b905081810360a08301526124548184611fa8565b9050979650505050505050565b600061246b61247c565b90506124778282612724565b919050565b6000604051905090565b600067ffffffffffffffff8211156124a1576124a061282b565b5b602082029050602081019050919050565b600067ffffffffffffffff8211156124cd576124cc61282b565b5b6124d682612873565b9050602081019050919050565b6000819050602082019050919050565b6000819050602082019050919050565b60008190508160005260206000209050919050565b60008190508160005260206000209050919050565b600081519050919050565b600081519050919050565b600081519050919050565b6000602082019050919050565b6000602082019050919050565b600082825260208201905092915050565b600082825260208201905092915050565b600081905092915050565b600082825260208201905092915050565b600082825260208201905092915050565b600081905092915050565b60006125cd826126a6565b91506125d8836126a6565b9250827fffffffffffffffffffffffffffffffffffffffffffffffffffffffffffffffff0382111561260d5761260c61279e565b5b828201905092915050565b6000612623826126a6565b915061262e836126a6565b9250817fffffffffffffffffffffffffffffffffffffffffffffffffffffffffffffffff04831182151516156126675761266661279e565b5b828202905092915050565b600061267d826126a6565b9150612688836126a6565b92508282101561269b5761269a61279e565b5b828203905092915050565b6000819050919050565b82818337600083830152505050565b60005b838110156126dd5780820151818401526020810190506126c2565b838111156126ec576000848401525b50505050565b6000600282049050600182168061270a57607f821691505b6020821081141561271e5761271d6127cd565b5b50919050565b61272d82612873565b810181811067ffffffffffffffff8211171561274c5761274b61282b565b5b80604052505050565b6000612760826126a6565b91507fffffffffffffffffffffffffffffffffffffffffffffffffffffffffffffffff8214156127935761279261279e565b5b600182019050919050565b7f4e487b7100000000000000000000000000000000000000000000000000000000600052601160045260246000fd5b7f4e487b7100000000000000000000000000000000000000000000000000000000600052602260045260246000fd5b7f4e487b7100000000000000000000000000000000000000000000000000000000600052603260045260246000fd5b7f4e487b7100000000000000000000000000000000000000000000000000000000600052604160045260246000fd5b600080fd5b600080fd5b600080fd5b600080fd5b600080fd5b6000601f19601f8301169050919050565b7f496e76616c696420756e69717565204944000000000000000000000000000000600082015250565b7f506f6c6c2068617320656e646564000000000000000000000000000000000000600082015250565b7f4e6f7420417574686f72697a6564000000000000000000000000000000000000600082015250565b7f566f74696e6720706572696f6420686173206e6f7420656e6465642079657400600082015250565b7f506f6c6c20686173206e6f742073746172746564207965740000000000000000600082015250565b7f54686520766f74696e672074696d65206973204f766572210000000000000000600082015250565b7f596f7520617265206e6f7420417574686f72697a656420746f20566f74650000600082015250565b6129ac816126a6565b81146129b757600080fd5b5056fea264697066735822122026e2d914b9d6d4d3ed9dbc62d18f5351812641f581d9a29ccd7abb391f30f3c564736f6c63430008070033",
  "immutableReferences": {},
  "source": "// SPDX-License-Identifier: GPL-3.0\r\n\r\npragma solidity >=0.7.0 <0.9.0;\r\n// import \"@openzeppelin/contracts/utils/Strings.sol\";\r\n\r\ncontract ApprovalVoting{\r\n    uint public systemCount;\r\n    struct VotingSystem{\r\n        uint uniqueId;\r\n        string systemName;\r\n        uint numberOfCandidates;\r\n        string[] candidates;\r\n        uint votingPeriod;       \r\n        string[] votersForElection;\r\n        string electionHelderName;\r\n        string description;\r\n    }\r\n\r\n    mapping (uint => mapping (string => uint)) public differentSystemVotes;\r\n    mapping (uint => mapping (address => bool)) differentSystemVotingDone;\r\n    mapping (uint => mapping (string => bool)) differentPanCardsVoting;\r\n    mapping (uint => VotingSystem) public systems;\r\n\r\n    function getSystemDetails(uint _uniqueId) public view returns (uint, string memory, uint, string[] memory, uint, string[] memory, string memory, string memory) {\r\n        VotingSystem memory system = systems[_uniqueId];\r\n        return (system.uniqueId, system.systemName, system.numberOfCandidates, system.candidates, system.votingPeriod, system.votersForElection, system.electionHelderName, system.description);\r\n    }\r\n\r\n    function createSystem(uint _uniqueId, string memory _systemName, uint _numberOfCandidates, string[] memory _candidates,uint numberOfDays,string[] memory _votersForElection, string memory _electionHelderName,string memory _description) public   {\r\n        uint _votingPeriod = block.timestamp + (numberOfDays * 1 minutes);\r\n        VotingSystem memory system =  VotingSystem(_uniqueId,_systemName,_numberOfCandidates,_candidates,_votingPeriod,_votersForElection,_electionHelderName,_description);\r\n        systems[_uniqueId] = system;\r\n        systemCount++;\r\n    }\r\n\r\n\r\n    address payable owner;\r\n    mapping (address => uint) votingDone;\r\n  \r\n    constructor() {\r\n        owner = payable(msg.sender);\r\n    }\r\n\r\n\r\n    function showBalance() public view returns(uint) {\r\n        return address(this).balance;\r\n    }\r\n\r\n    function voteKarteRaho(uint _uniqueId,string memory _candidateName,string memory _candidateAadhar) public  {\r\n        voteNow(_uniqueId,_candidateName,_candidateAadhar);\r\n    }\r\n\r\n    function checkIfUserExists(uint _uniqueId,string memory _candidateAadhar) internal view returns(bool){\r\n        for(uint i=0;i<systems[_uniqueId].votersForElection.length;i++){\r\n            if (keccak256(bytes(systems[_uniqueId].votersForElection[i])) == keccak256(bytes(_candidateAadhar))){\r\n                return true;\r\n            }\r\n        }\r\n        return false;\r\n    }\r\n\r\n    function voteNow(uint _uniqueId,string memory _candidateName,string memory _candidateAadhar) internal{\r\n        require(checkIfUserExists(_uniqueId, _candidateAadhar),\"You are not Authorized to Vote\");\r\n        // require(differentSystemVotingDone[_uniqueId][msg.sender]==false,\"You have already Voted\");\r\n        // require(differentPanCardsVoting[_uniqueId][_candidateAadhar]==false,\"You have already Voted\");\r\n        require(systems[_uniqueId].votingPeriod >= block.timestamp, \"The voting time is Over!\");\r\n        differentSystemVotes[_uniqueId][_candidateName] +=1;\r\n        differentSystemVotingDone[_uniqueId][msg.sender] = true;\r\n        differentPanCardsVoting[_uniqueId][_candidateAadhar]=true;\r\n    }\r\n\r\n    function getCandidates(uint _uniqueId) public view returns (string[] memory)  {\r\n        return systems[_uniqueId].candidates;\r\n    }\r\n\r\n    function getVoters(uint _uniqueId) public view returns (string[] memory)  {\r\n        return systems[_uniqueId].votersForElection;\r\n    }\r\n\r\n    function addMoneyToOwner() public payable{\r\n        require(msg.sender == owner, \"Not Authorized\");\r\n        payable(msg.sender).transfer(1 ether);\r\n    }\r\n\r\n    function getWinner(uint _uniqueId) public view returns (string memory) {\r\n        require(msg.sender == owner, \"Not Authorized\");\r\n        require(systems[_uniqueId].votingPeriod < block.timestamp, \"Voting period has not ended yet\");\r\n\r\n        uint maxVotes = 0;\r\n        string memory winner;\r\n\r\n        for (uint i = 0; i < systems[_uniqueId].numberOfCandidates; i++) {\r\n            uint candidateVotes = differentSystemVotes[_uniqueId][systems[_uniqueId].candidates[i]];\r\n            if (candidateVotes > maxVotes) {\r\n                maxVotes = candidateVotes;\r\n                winner = systems[_uniqueId].candidates[i];\r\n            }\r\n        }\r\n        return winner;\r\n    }\r\n\r\n    function getSystemIdsOfVoter(string memory _voterAddress) public view returns (uint[] memory) {\r\n        uint[] memory systemIds = new uint[](systemCount);\r\n        uint systemIndex = 0;\r\n        for (uint i = 1; i <= systemCount; i++) {\r\n            for (uint j = 0; j < systems[i].votersForElection.length; j++) {\r\n                if (keccak256(bytes(systems[i].votersForElection[j])) == keccak256(bytes(_voterAddress))) {\r\n                    systemIds[systemIndex] = systems[i].uniqueId;\r\n                    systemIndex++;\r\n                    break;\r\n                }\r\n            }\r\n        }\r\n        return systemIds;\r\n    }\r\n\r\n    function getOtherCandidates(uint _uniqueId, string memory _voterAadhar) public view returns (string[] memory) {\r\n        string[] memory candidates = systems[_uniqueId].candidates;\r\n        uint numCandidates = systems[_uniqueId].numberOfCandidates;\r\n        string[] memory otherCandidates = new string[](numCandidates - 1);\r\n        uint index = 0;\r\n\r\n        for (uint i = 0; i < numCandidates; i++) {\r\n            if (keccak256(bytes(systems[_uniqueId].votersForElection[i])) == keccak256(bytes(_voterAadhar))) {\r\n                // If the current voter has voted for this candidate, skip to the next candidate\r\n                continue;\r\n            }\r\n\r\n            otherCandidates[index] = candidates[i];\r\n            index++;\r\n        }\r\n\r\n        return otherCandidates;\r\n    }\r\n\r\n    function getCandidateVoteCounts(uint uniqueId) public view returns (uint[] memory) {\r\n        require(uniqueId != 0, \"Invalid unique ID\");\r\n\r\n        uint[] memory voteCounts = new uint[](systems[uniqueId].numberOfCandidates);\r\n        for (uint i = 0; i < systems[uniqueId].numberOfCandidates; i++) {\r\n            voteCounts[i] = differentSystemVotes[uniqueId][systems[uniqueId].candidates[i]];\r\n        }\r\n        return voteCounts;\r\n    }\r\n\r\n    \r\n\r\n    function getTimeRemaining(uint _uniqueId) public view returns (uint) {\r\n        require(systems[_uniqueId].votingPeriod > 0, \"Poll has not started yet\");\r\n        require(systems[_uniqueId].votingPeriod > block.timestamp, \"Poll has ended\");\r\n\r\n        uint timeRemaining = systems[_uniqueId].votingPeriod - block.timestamp;\r\n\r\n        return timeRemaining;\r\n    }\r\n\r\n}",
  "sourcePath": "C:\\Users\\Anish Kulkarni\\Blockchain\\Code-a-palooza\\contracts\\ApprovalVoting.sol",
  "compiler": {
    "name": "solc",
    "version": "0.8.7+commit.e28d00a7.Emscripten.clang"
  },
  "schemaVersion": "3.4.12",
  "updatedAt": "2023-03-05T03:22:19.022Z",
  "devdoc": {
    "kind": "dev",
    "methods": {},
    "version": 1
  },
  "userdoc": {
    "kind": "user",
    "methods": {},
    "version": 1
  }
}