{
  "contractName": "QuadVoting",
  "abi": [
    {
      "inputs": [],
      "stateMutability": "nonpayable",
      "type": "constructor"
    },
    {
      "inputs": [
        {
          "internalType": "uint256",
          "name": "",
          "type": "uint256"
        },
        {
          "internalType": "string",
          "name": "",
          "type": "string"
        }
      ],
      "name": "differentSystemVotes",
      "outputs": [
        {
          "internalType": "uint256",
          "name": "",
          "type": "uint256"
        }
      ],
      "stateMutability": "view",
      "type": "function"
    },
    {
      "inputs": [],
      "name": "systemCount",
      "outputs": [
        {
          "internalType": "uint256",
          "name": "",
          "type": "uint256"
        }
      ],
      "stateMutability": "view",
      "type": "function"
    },
    {
      "inputs": [
        {
          "internalType": "uint256",
          "name": "",
          "type": "uint256"
        }
      ],
      "name": "systems",
      "outputs": [
        {
          "internalType": "uint256",
          "name": "uniqueId",
          "type": "uint256"
        },
        {
          "internalType": "string",
          "name": "systemName",
          "type": "string"
        },
        {
          "internalType": "uint256",
          "name": "numberOfCandidates",
          "type": "uint256"
        },
        {
          "internalType": "uint256",
          "name": "votingPeriod",
          "type": "uint256"
        },
        {
          "internalType": "string",
          "name": "electionHelderName",
          "type": "string"
        },
        {
          "internalType": "string",
          "name": "description",
          "type": "string"
        }
      ],
      "stateMutability": "view",
      "type": "function"
    },
    {
      "inputs": [
        {
          "internalType": "uint256",
          "name": "_uniqueId",
          "type": "uint256"
        }
      ],
      "name": "getSystemDetails",
      "outputs": [
        {
          "internalType": "uint256",
          "name": "",
          "type": "uint256"
        },
        {
          "internalType": "string",
          "name": "",
          "type": "string"
        },
        {
          "internalType": "uint256",
          "name": "",
          "type": "uint256"
        },
        {
          "components": [
            {
              "internalType": "string",
              "name": "name",
              "type": "string"
            },
            {
              "internalType": "uint256",
              "name": "availableCredits",
              "type": "uint256"
            }
          ],
          "internalType": "struct QuadVoting.Candidate[]",
          "name": "",
          "type": "tuple[]"
        },
        {
          "internalType": "uint256",
          "name": "",
          "type": "uint256"
        },
        {
          "internalType": "string[]",
          "name": "",
          "type": "string[]"
        },
        {
          "internalType": "string",
          "name": "",
          "type": "string"
        },
        {
          "internalType": "string",
          "name": "",
          "type": "string"
        }
      ],
      "stateMutability": "view",
      "type": "function"
    },
    {
      "inputs": [
        {
          "internalType": "string",
          "name": "_systemName",
          "type": "string"
        },
        {
          "internalType": "uint256",
          "name": "_numberOfCandidates",
          "type": "uint256"
        },
        {
          "internalType": "string[]",
          "name": "_candidates",
          "type": "string[]"
        },
        {
          "internalType": "uint256",
          "name": "_votingPeriod",
          "type": "uint256"
        },
        {
          "internalType": "string[]",
          "name": "_votersForElection",
          "type": "string[]"
        },
        {
          "internalType": "string",
          "name": "_electionHelderName",
          "type": "string"
        },
        {
          "internalType": "string",
          "name": "_description",
          "type": "string"
        }
      ],
      "name": "createVotingSystem",
      "outputs": [
        {
          "internalType": "uint256",
          "name": "systemId",
          "type": "uint256"
        }
      ],
      "stateMutability": "nonpayable",
      "type": "function"
    },
    {
      "inputs": [],
      "name": "showBalance",
      "outputs": [
        {
          "internalType": "uint256",
          "name": "",
          "type": "uint256"
        }
      ],
      "stateMutability": "view",
      "type": "function"
    },
    {
      "inputs": [
        {
          "internalType": "uint256",
          "name": "_systemId",
          "type": "uint256"
        },
        {
          "internalType": "uint256",
          "name": "_candidateIndex",
          "type": "uint256"
        },
        {
          "internalType": "uint256",
          "name": "_value",
          "type": "uint256"
        }
      ],
      "name": "castQuadraticVote",
      "outputs": [],
      "stateMutability": "nonpayable",
      "type": "function"
    },
    {
      "inputs": [
        {
          "internalType": "uint256",
          "name": "systemId",
          "type": "uint256"
        }
      ],
      "name": "getCandidateVoteCounts",
      "outputs": [
        {
          "internalType": "uint256[]",
          "name": "",
          "type": "uint256[]"
        }
      ],
      "stateMutability": "view",
      "type": "function"
    },
    {
      "inputs": [
        {
          "internalType": "uint256",
          "name": "systemId",
          "type": "uint256"
        }
      ],
      "name": "getLeadingCandidate",
      "outputs": [
        {
          "internalType": "string",
          "name": "",
          "type": "string"
        }
      ],
      "stateMutability": "view",
      "type": "function"
    },
    {
      "inputs": [
        {
          "internalType": "uint256",
          "name": "_uniqueId",
          "type": "uint256"
        }
      ],
      "name": "getWinner",
      "outputs": [
        {
          "internalType": "string",
          "name": "",
          "type": "string"
        }
      ],
      "stateMutability": "view",
      "type": "function"
    },
    {
      "inputs": [
        {
          "internalType": "uint256",
          "name": "_uniqueId",
          "type": "uint256"
        }
      ],
      "name": "getTimeRemaining",
      "outputs": [
        {
          "internalType": "uint256",
          "name": "",
          "type": "uint256"
        }
      ],
      "stateMutability": "view",
      "type": "function"
    }
  ],
  "bytecode": "0x608060405234801561001057600080fd5b5033600560006101000a81548173ffffffffffffffffffffffffffffffffffffffff021916908373ffffffffffffffffffffffffffffffffffffffff1602179055506122d0806100616000396000f3fe608060405234801561001057600080fd5b50600436106100a95760003560e01c806381b2d07b1161007157806381b2d07b146101915780638cd42991146101af5780639baafbcf146101df578063c2967b5e1461020f578063cd9cf1041461023f578063d4cb84c014610276576100a9565b80630ffca604146100ae5780633ab59bb6146100e35780634129b2c914610101578063591406611461013157806366e569e214610161575b600080fd5b6100c860048036038101906100c391906115f0565b610292565b6040516100da96959493929190611c8c565b60405180910390f35b6100eb610466565b6040516100f89190611bd0565b60405180910390f35b61011b600480360381019061011691906115f0565b61046c565b6040516101289190611ace565b60405180910390f35b61014b600480360381019061014691906114c2565b6106a8565b6040516101589190611bd0565b60405180910390f35b61017b600480360381019061017691906115f0565b610817565b6040516101889190611ace565b60405180910390f35b610199610981565b6040516101a69190611bd0565b60405180910390f35b6101c960048036038101906101c491906115f0565b610989565b6040516101d69190611bd0565b60405180910390f35b6101f960048036038101906101f491906115f0565b610a6a565b6040516102069190611aac565b60405180910390f35b6102296004803603810190610224919061161d565b610ba0565b6040516102369190611bd0565b60405180910390f35b610259600480360381019061025491906115f0565b610bdb565b60405161026d989796959493929190611beb565b60405180910390f35b610290600480360381019061028b9190611679565b610ff9565b005b60046020528060005260406000206000915090508060000154908060010180546102bb90611fac565b80601f01602080910402602001604051908101604052809291908181526020018280546102e790611fac565b80156103345780601f1061030957610100808354040283529160200191610334565b820191906000526020600020905b81548152906001019060200180831161031757829003601f168201915b50505050509080600201549080600401549080600601805461035590611fac565b80601f016020809104026020016040519081016040528092919081815260200182805461038190611fac565b80156103ce5780601f106103a3576101008083540402835291602001916103ce565b820191906000526020600020905b8154815290600101906020018083116103b157829003601f168201915b5050505050908060070180546103e390611fac565b80601f016020809104026020016040519081016040528092919081815260200182805461040f90611fac565b801561045c5780601f106104315761010080835404028352916020019161045c565b820191906000526020600020905b81548152906001019060200180831161043f57829003601f168201915b5050505050905086565b60005481565b6060600560009054906101000a900473ffffffffffffffffffffffffffffffffffffffff1673ffffffffffffffffffffffffffffffffffffffff163373ffffffffffffffffffffffffffffffffffffffff16146104fe576040517f08c379a00000000000000000000000000000000000000000000000000000000081526004016104f590611b10565b60405180910390fd5b42600460008481526020019081526020016000206004015410610556576040517f08c379a000000000000000000000000000000000000000000000000000000000815260040161054d90611b70565b60405180910390fd5b6000606060005b600460008681526020019081526020016000206002015481101561069d5760006004600087815260200190815260200160002060030182815481106105a5576105a46120b6565b5b906000526020600020906002020160010154905083811115610689578093506004600087815260200190815260200160002060030182815481106105ec576105eb6120b6565b5b9060005260206000209060020201600001805461060890611fac565b80601f016020809104026020016040519081016040528092919081815260200182805461063490611fac565b80156106815780601f1061065657610100808354040283529160200191610681565b820191906000526020600020905b81548152906001019060200180831161066457829003601f168201915b505050505092505b5080806106959061200f565b91505061055d565b508092505050919050565b60008060008154809291906106bc9061200f565b91905055506000600460008054815260200190815260200160002090506000548160000181905550888160010190805190602001906106fc92919061121a565b50878160020181905550858160040181905550848160050190805190602001906107279291906112a0565b508381600601908051906020019061074092919061121a565b508281600701908051906020019061075992919061121a565b5060005b875181101561080557600060405180604001604052808a8481518110610786576107856120b6565b5b60200260200101518152602001606481525090508260030181908060018154018082558091505060019003906000526020600020906002020160009091909190915060008201518160000190805190602001906107e492919061121a565b506020820151816001015550505080806107fd9061200f565b91505061075d565b50600054915050979650505050505050565b606060006040518060200160405280600081525090506000805b6004600086815260200190815260200160002060020154811015610976576000600460008781526020019081526020016000206003018281548110610879576108786120b6565b5b90600052602060002090600202019050600060016000888152602001908152602001600020826000016040516108af9190611a95565b9081526020016040518091039020549050600081905084811115610960578260000180546108dc90611fac565b80601f016020809104026020016040519081016040528092919081815260200182805461090890611fac565b80156109555780601f1061092a57610100808354040283529160200191610955565b820191906000526020600020905b81548152906001019060200180831161093857829003601f168201915b505050505095508094505b505050808061096e9061200f565b915050610831565b508192505050919050565b600047905090565b6000806004600084815260200190815260200160002060040154116109e3576040517f08c379a00000000000000000000000000000000000000000000000000000000081526004016109da90611bb0565b60405180910390fd5b42600460008481526020019081526020016000206004015411610a3b576040517f08c379a0000000000000000000000000000000000000000000000000000000008152600401610a3290611af0565b60405180910390fd5b6000426004600085815260200190815260200160002060040154610a5f9190611f2c565b905080915050919050565b60606000600460008481526020019081526020016000206002015467ffffffffffffffff811115610a9e57610a9d6120e5565b5b604051908082528060200260200182016040528015610acc5781602001602082028036833780820191505090505b50905060005b6004600085815260200190815260200160002060020154811015610b96576000600460008681526020019081526020016000206003018281548110610b1a57610b196120b6565b5b9060005260206000209060020201905060006001600087815260200190815260200160002082600001604051610b509190611a95565b908152602001604051809103902054905080848481518110610b7557610b746120b6565b5b60200260200101818152505050508080610b8e9061200f565b915050610ad2565b5080915050919050565b600160205281600052604060002081805160208101820180518482526020830160208501208183528095505050505050600091509150505481565b6000606060006060600060608060606000600460008b81526020019081526020016000206040518061010001604052908160008201548152602001600182018054610c2590611fac565b80601f0160208091040260200160405190810160405280929190818152602001828054610c5190611fac565b8015610c9e5780601f10610c7357610100808354040283529160200191610c9e565b820191906000526020600020905b815481529060010190602001808311610c8157829003601f168201915b505050505081526020016002820154815260200160038201805480602002602001604051908101604052809291908181526020016000905b82821015610da45783829060005260206000209060020201604051806040016040529081600082018054610d0990611fac565b80601f0160208091040260200160405190810160405280929190818152602001828054610d3590611fac565b8015610d825780601f10610d5757610100808354040283529160200191610d82565b820191906000526020600020905b815481529060010190602001808311610d6557829003601f168201915b5050505050815260200160018201548152505081526020019060010190610cd6565b5050505081526020016004820154815260200160058201805480602002602001604051908101604052809291908181526020016000905b82821015610e87578382906000526020600020018054610dfa90611fac565b80601f0160208091040260200160405190810160405280929190818152602001828054610e2690611fac565b8015610e735780601f10610e4857610100808354040283529160200191610e73565b820191906000526020600020905b815481529060010190602001808311610e5657829003601f168201915b505050505081526020019060010190610ddb565b505050508152602001600682018054610e9f90611fac565b80601f0160208091040260200160405190810160405280929190818152602001828054610ecb90611fac565b8015610f185780601f10610eed57610100808354040283529160200191610f18565b820191906000526020600020905b815481529060010190602001808311610efb57829003601f168201915b50505050508152602001600782018054610f3190611fac565b80601f0160208091040260200160405190810160405280929190818152602001828054610f5d90611fac565b8015610faa5780601f10610f7f57610100808354040283529160200191610faa565b820191906000526020600020905b815481529060010190602001808311610f8d57829003601f168201915b5050505050815250509050806000015181602001518260400151836060015184608001518560a001518660c001518760e001519850985098509850985098509850985050919395975091939597565b4260046000858152602001908152602001600020600401541015611052576040517f08c379a000000000000000000000000000000000000000000000000000000000815260040161104990611b90565b60405180910390fd5b600460008481526020019081526020016000206002015482106110aa576040517f08c379a00000000000000000000000000000000000000000000000000000000081526004016110a190611b30565b60405180910390fd5b60006004600085815260200190815260200160002060030183815481106110d4576110d36120b6565b5b9060005260206000209060020201905081826110f09190611ed2565b81600101541015611136576040517f08c379a000000000000000000000000000000000000000000000000000000000815260040161112d90611b50565b60405180910390fd5b81826111429190611ed2565b8160010160008282546111559190611f2c565b9250508190555060008290508060016000878152602001908152602001600020836000016040516111869190611a95565b908152602001604051809103902060008282546111a39190611e7c565b9250508190555060016002600087815260200190815260200160002060003373ffffffffffffffffffffffffffffffffffffffff1673ffffffffffffffffffffffffffffffffffffffff16815260200190815260200160002060006101000a81548160ff0219169083151502179055505050505050565b82805461122690611fac565b90600052602060002090601f016020900481019282611248576000855561128f565b82601f1061126157805160ff191683800117855561128f565b8280016001018555821561128f579182015b8281111561128e578251825591602001919060010190611273565b5b50905061129c9190611300565b5090565b8280548282559060005260206000209081019282156112ef579160200282015b828111156112ee5782518290805190602001906112de92919061121a565b50916020019190600101906112c0565b5b5090506112fc919061131d565b5090565b5b80821115611319576000816000905550600101611301565b5090565b5b8082111561133d57600081816113349190611341565b5060010161131e565b5090565b50805461134d90611fac565b6000825580601f1061135f575061137e565b601f01602090049060005260206000209081019061137d9190611300565b5b50565b600061139461138f84611d27565b611d02565b905080838252602082019050828560208602820111156113b7576113b6612119565b5b60005b8581101561140557813567ffffffffffffffff8111156113dd576113dc612114565b5b8086016113ea898261147f565b855260208501945060208401935050506001810190506113ba565b5050509392505050565b600061142261141d84611d53565b611d02565b90508281526020810184848401111561143e5761143d61211e565b5b611449848285611f6a565b509392505050565b600082601f83011261146657611465612114565b5b8135611476848260208601611381565b91505092915050565b600082601f83011261149457611493612114565b5b81356114a484826020860161140f565b91505092915050565b6000813590506114bc81612283565b92915050565b600080600080600080600060e0888a0312156114e1576114e0612128565b5b600088013567ffffffffffffffff8111156114ff576114fe612123565b5b61150b8a828b0161147f565b975050602061151c8a828b016114ad565b965050604088013567ffffffffffffffff81111561153d5761153c612123565b5b6115498a828b01611451565b955050606061155a8a828b016114ad565b945050608088013567ffffffffffffffff81111561157b5761157a612123565b5b6115878a828b01611451565b93505060a088013567ffffffffffffffff8111156115a8576115a7612123565b5b6115b48a828b0161147f565b92505060c088013567ffffffffffffffff8111156115d5576115d4612123565b5b6115e18a828b0161147f565b91505092959891949750929550565b60006020828403121561160657611605612128565b5b6000611614848285016114ad565b91505092915050565b6000806040838503121561163457611633612128565b5b6000611642858286016114ad565b925050602083013567ffffffffffffffff81111561166357611662612123565b5b61166f8582860161147f565b9150509250929050565b60008060006060848603121561169257611691612128565b5b60006116a0868287016114ad565b93505060206116b1868287016114ad565b92505060406116c2868287016114ad565b9150509250925092565b60006116d88383611854565b905092915050565b60006116ec8383611a3a565b905092915050565b60006117008383611a77565b60208301905092915050565b600061171782611dc9565b6117218185611e1c565b93508360208202850161173385611d84565b8060005b8581101561176f578484038952815161175085826116cc565b945061175b83611df5565b925060208a01995050600181019050611737565b50829750879550505050505092915050565b600061178c82611dd4565b6117968185611e2d565b9350836020820285016117a885611d94565b8060005b858110156117e457848403895281516117c585826116e0565b94506117d083611e02565b925060208a019950506001810190506117ac565b50829750879550505050505092915050565b600061180182611ddf565b61180b8185611e3e565b935061181683611da4565b8060005b8381101561184757815161182e88826116f4565b975061183983611e0f565b92505060018101905061181a565b5085935050505092915050565b600061185f82611dea565b6118698185611e4f565b9350611879818560208601611f79565b6118828161212d565b840191505092915050565b600061189882611dea565b6118a28185611e60565b93506118b2818560208601611f79565b6118bb8161212d565b840191505092915050565b600081546118d381611fac565b6118dd8186611e71565b945060018216600081146118f857600181146119095761193c565b60ff1983168652818601935061193c565b61191285611db4565b60005b8381101561193457815481890152600182019150602081019050611915565b838801955050505b50505092915050565b6000611952600e83611e60565b915061195d8261213e565b602082019050919050565b6000611975600e83611e60565b915061198082612167565b602082019050919050565b6000611998601783611e60565b91506119a382612190565b602082019050919050565b60006119bb602f83611e60565b91506119c6826121b9565b604082019050919050565b60006119de601f83611e60565b91506119e982612208565b602082019050919050565b6000611a01601783611e60565b9150611a0c82612231565b602082019050919050565b6000611a24601883611e60565b9150611a2f8261225a565b602082019050919050565b60006040830160008301518482036000860152611a578282611854565b9150506020830151611a6c6020860182611a77565b508091505092915050565b611a8081611f60565b82525050565b611a8f81611f60565b82525050565b6000611aa182846118c6565b915081905092915050565b60006020820190508181036000830152611ac681846117f6565b905092915050565b60006020820190508181036000830152611ae8818461188d565b905092915050565b60006020820190508181036000830152611b0981611945565b9050919050565b60006020820190508181036000830152611b2981611968565b9050919050565b60006020820190508181036000830152611b498161198b565b9050919050565b60006020820190508181036000830152611b69816119ae565b9050919050565b60006020820190508181036000830152611b89816119d1565b9050919050565b60006020820190508181036000830152611ba9816119f4565b9050919050565b60006020820190508181036000830152611bc981611a17565b9050919050565b6000602082019050611be56000830184611a86565b92915050565b600061010082019050611c01600083018b611a86565b8181036020830152611c13818a61188d565b9050611c226040830189611a86565b8181036060830152611c348188611781565b9050611c436080830187611a86565b81810360a0830152611c55818661170c565b905081810360c0830152611c69818561188d565b905081810360e0830152611c7d818461188d565b90509998505050505050505050565b600060c082019050611ca16000830189611a86565b8181036020830152611cb3818861188d565b9050611cc26040830187611a86565b611ccf6060830186611a86565b8181036080830152611ce1818561188d565b905081810360a0830152611cf5818461188d565b9050979650505050505050565b6000611d0c611d1d565b9050611d188282611fde565b919050565b6000604051905090565b600067ffffffffffffffff821115611d4257611d416120e5565b5b602082029050602081019050919050565b600067ffffffffffffffff821115611d6e57611d6d6120e5565b5b611d778261212d565b9050602081019050919050565b6000819050602082019050919050565b6000819050602082019050919050565b6000819050602082019050919050565b60008190508160005260206000209050919050565b600081519050919050565b600081519050919050565b600081519050919050565b600081519050919050565b6000602082019050919050565b6000602082019050919050565b6000602082019050919050565b600082825260208201905092915050565b600082825260208201905092915050565b600082825260208201905092915050565b600082825260208201905092915050565b600082825260208201905092915050565b600081905092915050565b6000611e8782611f60565b9150611e9283611f60565b9250827fffffffffffffffffffffffffffffffffffffffffffffffffffffffffffffffff03821115611ec757611ec6612058565b5b828201905092915050565b6000611edd82611f60565b9150611ee883611f60565b9250817fffffffffffffffffffffffffffffffffffffffffffffffffffffffffffffffff0483118215151615611f2157611f20612058565b5b828202905092915050565b6000611f3782611f60565b9150611f4283611f60565b925082821015611f5557611f54612058565b5b828203905092915050565b6000819050919050565b82818337600083830152505050565b60005b83811015611f97578082015181840152602081019050611f7c565b83811115611fa6576000848401525b50505050565b60006002820490506001821680611fc457607f821691505b60208210811415611fd857611fd7612087565b5b50919050565b611fe78261212d565b810181811067ffffffffffffffff82111715612006576120056120e5565b5b80604052505050565b600061201a82611f60565b91507fffffffffffffffffffffffffffffffffffffffffffffffffffffffffffffffff82141561204d5761204c612058565b5b600182019050919050565b7f4e487b7100000000000000000000000000000000000000000000000000000000600052601160045260246000fd5b7f4e487b7100000000000000000000000000000000000000000000000000000000600052602260045260246000fd5b7f4e487b7100000000000000000000000000000000000000000000000000000000600052603260045260246000fd5b7f4e487b7100000000000000000000000000000000000000000000000000000000600052604160045260246000fd5b600080fd5b600080fd5b600080fd5b600080fd5b600080fd5b6000601f19601f8301169050919050565b7f506f6c6c2068617320656e646564000000000000000000000000000000000000600082015250565b7f4e6f7420417574686f72697a6564000000000000000000000000000000000000600082015250565b7f496e76616c69642063616e64696461746520696e646578000000000000000000600082015250565b7f53656c65637465642063616e64696461746520646f6573206e6f74206861766560008201527f20656e6f75676820637265646974730000000000000000000000000000000000602082015250565b7f566f74696e6720706572696f6420686173206e6f7420656e6465642079657400600082015250565b7f566f74696e6720706572696f642068617320656e646564000000000000000000600082015250565b7f506f6c6c20686173206e6f742073746172746564207965740000000000000000600082015250565b61228c81611f60565b811461229757600080fd5b5056fea2646970667358221220e2d1c540121a5d7fda4c0edd1dca31bfc318bdf2e9027e808dcafb286a0617c064736f6c63430008070033",
  "immutableReferences": {},
  "source": "// SPDX-License-Identifier: GPL-3.0\r\n\r\npragma solidity >=0.7.0 <0.9.0;\r\n// import \"@openzeppelin/contracts/utils/Strings.sol\";\r\n\r\ncontract QuadVoting{\r\n    // using Strings for string;\r\n    uint public systemCount;\r\n    struct VotingSystem{\r\n        uint uniqueId;\r\n        string systemName;\r\n        uint numberOfCandidates;\r\n        Candidate[] candidates;\r\n        uint votingPeriod;       \r\n        string[] votersForElection;\r\n        string electionHelderName;\r\n        string description;\r\n        \r\n    }\r\n\r\n    struct Candidate {\r\n        string name;\r\n        uint availableCredits;\r\n    }\r\n\r\n    mapping (uint => mapping (string => uint)) public differentSystemVotes;\r\n    mapping (uint => mapping (address => bool)) differentSystemVotingDone;\r\n    mapping (uint => mapping (string => bool)) differentPanCardsVoting;\r\n    mapping (uint => VotingSystem) public systems;\r\n\r\n    function getSystemDetails(uint _uniqueId) public view returns (uint, string memory, uint, Candidate[] memory, uint, string[] memory, string memory, string memory) {\r\n        VotingSystem memory system = systems[_uniqueId];\r\n        return (system.uniqueId, system.systemName, system.numberOfCandidates, system.candidates, system.votingPeriod, system.votersForElection, system.electionHelderName, system.description);\r\n    }\r\n\r\n    function createVotingSystem(string memory _systemName, uint _numberOfCandidates, string[] memory _candidates, uint _votingPeriod, string[] memory _votersForElection, string memory _electionHelderName, string memory _description) public returns (uint systemId) {\r\n        systemCount++;\r\n        VotingSystem storage system = systems[systemCount];\r\n        system.uniqueId = systemCount;\r\n        system.systemName = _systemName;\r\n        system.numberOfCandidates = _numberOfCandidates;\r\n        system.votingPeriod = _votingPeriod;\r\n        system.votersForElection = _votersForElection;\r\n        system.electionHelderName = _electionHelderName;\r\n        system.description = _description;\r\n\r\n        for (uint i = 0; i < _candidates.length; i++) {\r\n            Candidate memory candidate = Candidate({name: _candidates[i], availableCredits: 100});\r\n            system.candidates.push(candidate);\r\n        }\r\n\r\n        return systemCount;\r\n    }\r\n\r\n    address payable owner;\r\n    mapping (address => uint) votingDone;\r\n  \r\n    constructor() {\r\n        owner = payable(msg.sender);\r\n    }\r\n\r\n    function showBalance() public view returns(uint) {\r\n        return address(this).balance;\r\n    }\r\n\r\n    function checkIfUserExists(uint _uniqueId,string memory _candidateAadhar) internal view returns(bool){\r\n        for(uint i=0;i<systems[_uniqueId].votersForElection.length;i++){\r\n            if (keccak256(bytes(systems[_uniqueId].votersForElection[i])) == keccak256(bytes(_candidateAadhar))){\r\n                return true;\r\n            }\r\n        }\r\n        return false;\r\n    }\r\n    \r\n    function castQuadraticVote(uint _systemId, uint _candidateIndex, uint _value) public {\r\n        require(systems[_systemId].votingPeriod >= block.timestamp, \"Voting period has ended\");\r\n        // require(!differentSystemVotingDone[_systemId][msg.sender], \"You have already casted your vote for this system\");\r\n        require(_candidateIndex < systems[_systemId].numberOfCandidates, \"Invalid candidate index\");\r\n\r\n        Candidate storage selectedCandidate = systems[_systemId].candidates[_candidateIndex];\r\n        require(selectedCandidate.availableCredits >= _value * _value, \"Selected candidate does not have enough credits\");\r\n\r\n        selectedCandidate.availableCredits -= _value * _value;\r\n        uint votes = _value;\r\n        differentSystemVotes[_systemId][selectedCandidate.name] += votes;\r\n        differentSystemVotingDone[_systemId][msg.sender] = true;\r\n    }\r\n\r\n    function getCandidateVoteCounts(uint systemId) public view returns (uint[] memory) {\r\n        uint[] memory voteCounts = new uint[](systems[systemId].numberOfCandidates);\r\n        for (uint i = 0; i < systems[systemId].numberOfCandidates; i++) {\r\n            Candidate storage candidate = systems[systemId].candidates[i];\r\n            uint votes = differentSystemVotes[systemId][candidate.name];\r\n            voteCounts[i] = votes; \r\n        }\r\n        return voteCounts;\r\n    }\r\n\r\n\r\n    function getLeadingCandidate(uint systemId) public view returns (string memory) {\r\n        string memory leadingCandidate = \"\";\r\n        uint leadingVoteCount = 0;\r\n        for (uint i = 0; i < systems[systemId].numberOfCandidates; i++) {\r\n            Candidate storage candidate = systems[systemId].candidates[i];\r\n            uint votes = differentSystemVotes[systemId][candidate.name];\r\n            uint sqrtVotes = votes; // calculate square root of votes\r\n            if (sqrtVotes > leadingVoteCount) { // compare square root of votes\r\n                leadingCandidate = candidate.name;\r\n                leadingVoteCount = sqrtVotes;\r\n            }\r\n        }\r\n        return leadingCandidate;\r\n    }\r\n\r\n\r\n\r\n    function getWinner(uint _uniqueId) public view returns (string memory) {\r\n        require(msg.sender == owner, \"Not Authorized\");\r\n        require(systems[_uniqueId].votingPeriod < block.timestamp, \"Voting period has not ended yet\");\r\n\r\n        uint maxVotes = 0;\r\n        string memory winner;\r\n\r\n        for (uint i = 0; i < systems[_uniqueId].numberOfCandidates; i++) {\r\n            uint candidateVotes = systems[_uniqueId].candidates[i].availableCredits;\r\n            if (candidateVotes > maxVotes) {\r\n                maxVotes = candidateVotes;\r\n                winner = systems[_uniqueId].candidates[i].name;\r\n            }\r\n        }\r\n        return winner;\r\n    }\r\n\r\n    function getTimeRemaining(uint _uniqueId) public view returns (uint) {\r\n        require(systems[_uniqueId].votingPeriod > 0, \"Poll has not started yet\");\r\n        require(systems[_uniqueId].votingPeriod > block.timestamp, \"Poll has ended\");\r\n\r\n        uint timeRemaining = systems[_uniqueId].votingPeriod - block.timestamp;\r\n\r\n        return timeRemaining;\r\n    }\r\n\r\n}",
  "sourcePath": "C:\\Users\\Anish Kulkarni\\Blockchain\\Code-a-palooza\\contracts\\QuadVoting.sol",
  "compiler": {
    "name": "solc",
    "version": "0.8.7+commit.e28d00a7.Emscripten.clang"
  },
  "schemaVersion": "3.4.12",
  "updatedAt": "2023-03-05T03:22:19.046Z",
  "devdoc": {
    "kind": "dev",
    "methods": {},
    "version": 1
  },
  "userdoc": {
    "kind": "user",
    "methods": {},
    "version": 1
  }
}