{
  "contractName": "RankBasedVoting",
  "abi": [
    {
      "inputs": [],
      "stateMutability": "nonpayable",
      "type": "constructor"
    },
    {
      "inputs": [
        {
          "internalType": "uint256",
          "name": "",
          "type": "uint256"
        },
        {
          "internalType": "string",
          "name": "",
          "type": "string"
        }
      ],
      "name": "differentSystemVotes",
      "outputs": [
        {
          "internalType": "uint256",
          "name": "",
          "type": "uint256"
        }
      ],
      "stateMutability": "view",
      "type": "function",
      "constant": true
    },
    {
      "inputs": [],
      "name": "systemCount",
      "outputs": [
        {
          "internalType": "uint256",
          "name": "",
          "type": "uint256"
        }
      ],
      "stateMutability": "view",
      "type": "function",
      "constant": true
    },
    {
      "inputs": [
        {
          "internalType": "uint256",
          "name": "",
          "type": "uint256"
        }
      ],
      "name": "systems",
      "outputs": [
        {
          "internalType": "uint256",
          "name": "uniqueId",
          "type": "uint256"
        },
        {
          "internalType": "string",
          "name": "systemName",
          "type": "string"
        },
        {
          "internalType": "uint256",
          "name": "numberOfCandidates",
          "type": "uint256"
        },
        {
          "internalType": "uint256",
          "name": "votingPeriod",
          "type": "uint256"
        },
        {
          "internalType": "string",
          "name": "electionHelderName",
          "type": "string"
        },
        {
          "internalType": "string",
          "name": "description",
          "type": "string"
        }
      ],
      "stateMutability": "view",
      "type": "function",
      "constant": true
    },
    {
      "inputs": [
        {
          "internalType": "uint256",
          "name": "_uniqueId",
          "type": "uint256"
        }
      ],
      "name": "getSystemDetails",
      "outputs": [
        {
          "internalType": "uint256",
          "name": "",
          "type": "uint256"
        },
        {
          "internalType": "string",
          "name": "",
          "type": "string"
        },
        {
          "internalType": "uint256",
          "name": "",
          "type": "uint256"
        },
        {
          "internalType": "string[]",
          "name": "",
          "type": "string[]"
        },
        {
          "internalType": "uint256",
          "name": "",
          "type": "uint256"
        },
        {
          "internalType": "string[]",
          "name": "",
          "type": "string[]"
        },
        {
          "internalType": "string",
          "name": "",
          "type": "string"
        },
        {
          "internalType": "string",
          "name": "",
          "type": "string"
        }
      ],
      "stateMutability": "view",
      "type": "function",
      "constant": true
    },
    {
      "inputs": [
        {
          "internalType": "uint256",
          "name": "_uniqueId",
          "type": "uint256"
        },
        {
          "internalType": "string",
          "name": "_systemName",
          "type": "string"
        },
        {
          "internalType": "uint256",
          "name": "_numberOfCandidates",
          "type": "uint256"
        },
        {
          "internalType": "string[]",
          "name": "_candidates",
          "type": "string[]"
        },
        {
          "internalType": "uint256",
          "name": "numberOfDays",
          "type": "uint256"
        },
        {
          "internalType": "string[]",
          "name": "_votersForElection",
          "type": "string[]"
        },
        {
          "internalType": "string",
          "name": "_electionHelderName",
          "type": "string"
        },
        {
          "internalType": "string",
          "name": "_description",
          "type": "string"
        }
      ],
      "name": "createSystem",
      "outputs": [],
      "stateMutability": "nonpayable",
      "type": "function"
    },
    {
      "inputs": [],
      "name": "showBalance",
      "outputs": [
        {
          "internalType": "uint256",
          "name": "",
          "type": "uint256"
        }
      ],
      "stateMutability": "view",
      "type": "function",
      "constant": true
    },
    {
      "inputs": [
        {
          "internalType": "uint256",
          "name": "systemId",
          "type": "uint256"
        },
        {
          "internalType": "string",
          "name": "voter",
          "type": "string"
        },
        {
          "internalType": "uint256[]",
          "name": "rankings",
          "type": "uint256[]"
        }
      ],
      "name": "castRankVote",
      "outputs": [],
      "stateMutability": "nonpayable",
      "type": "function"
    },
    {
      "inputs": [
        {
          "internalType": "uint256",
          "name": "systemId",
          "type": "uint256"
        }
      ],
      "name": "getCandidateVoteCounts",
      "outputs": [
        {
          "internalType": "uint256[]",
          "name": "",
          "type": "uint256[]"
        }
      ],
      "stateMutability": "view",
      "type": "function",
      "constant": true
    },
    {
      "inputs": [
        {
          "internalType": "uint256",
          "name": "systemId",
          "type": "uint256"
        }
      ],
      "name": "getLeadingCandidate",
      "outputs": [
        {
          "internalType": "string",
          "name": "",
          "type": "string"
        }
      ],
      "stateMutability": "view",
      "type": "function",
      "constant": true
    },
    {
      "inputs": [
        {
          "internalType": "uint256",
          "name": "_uniqueId",
          "type": "uint256"
        }
      ],
      "name": "getCandidates",
      "outputs": [
        {
          "internalType": "string[]",
          "name": "",
          "type": "string[]"
        }
      ],
      "stateMutability": "view",
      "type": "function",
      "constant": true
    },
    {
      "inputs": [
        {
          "internalType": "uint256",
          "name": "_uniqueId",
          "type": "uint256"
        }
      ],
      "name": "getVoters",
      "outputs": [
        {
          "internalType": "string[]",
          "name": "",
          "type": "string[]"
        }
      ],
      "stateMutability": "view",
      "type": "function",
      "constant": true
    },
    {
      "inputs": [],
      "name": "addMoneyToOwner",
      "outputs": [],
      "stateMutability": "payable",
      "type": "function",
      "payable": true
    },
    {
      "inputs": [
        {
          "internalType": "uint256",
          "name": "_uniqueId",
          "type": "uint256"
        }
      ],
      "name": "getWinner",
      "outputs": [
        {
          "internalType": "string",
          "name": "",
          "type": "string"
        }
      ],
      "stateMutability": "view",
      "type": "function",
      "constant": true
    },
    {
      "inputs": [
        {
          "internalType": "string",
          "name": "_voterAddress",
          "type": "string"
        }
      ],
      "name": "getSystemIdsOfVoter",
      "outputs": [
        {
          "internalType": "uint256[]",
          "name": "",
          "type": "uint256[]"
        }
      ],
      "stateMutability": "view",
      "type": "function",
      "constant": true
    },
    {
      "inputs": [
        {
          "internalType": "uint256",
          "name": "_uniqueId",
          "type": "uint256"
        }
      ],
      "name": "getTimeRemaining",
      "outputs": [
        {
          "internalType": "uint256",
          "name": "",
          "type": "uint256"
        }
      ],
      "stateMutability": "view",
      "type": "function",
      "constant": true
    }
  ],
  "bytecode": "0x608060405234801561001057600080fd5b5033600560006101000a81548173ffffffffffffffffffffffffffffffffffffffff021916908373ffffffffffffffffffffffffffffffffffffffff160217905550612c5b806100616000396000f3fe6080604052600436106100e85760003560e01c806381b2d07b1161008a5780639baafbcf116100595780639baafbcf14610312578063c2967b5e1461034f578063cd9cf1041461038c578063cff29c1c146103d0576100e8565b806381b2d07b1461026357806384f3f1481461028e57806386b646f2146102985780638cd42991146102d5576100e8565b80633e39a7a5116100c65780633e39a7a5146101835780633f824dc7146101c05780634129b2c9146101e957806366e569e214610226576100e8565b80630ffca604146100ed578063269068271461012f5780633ab59bb614610158575b600080fd5b3480156100f957600080fd5b50610114600480360381019061010f9190611d6e565b61040d565b60405161012696959493929190612601565b60405180910390f35b34801561013b57600080fd5b5061015660048036038101906101519190611e82565b6105e1565b005b34801561016457600080fd5b5061016d610724565b60405161017a9190612545565b60405180910390f35b34801561018f57600080fd5b506101aa60048036038101906101a59190611d6e565b61072a565b6040516101b791906123df565b60405180910390f35b3480156101cc57600080fd5b506101e760048036038101906101e29190611df7565b610819565b005b3480156101f557600080fd5b50610210600480360381019061020b9190611d6e565b610c32565b60405161021d9190612423565b60405180910390f35b34801561023257600080fd5b5061024d60048036038101906102489190611d6e565b610e8e565b60405161025a9190612423565b60405180910390f35b34801561026f57600080fd5b50610278610fe8565b6040516102859190612545565b60405180910390f35b610296610ff0565b005b3480156102a457600080fd5b506102bf60048036038101906102ba9190611d6e565b6110d1565b6040516102cc91906123df565b60405180910390f35b3480156102e157600080fd5b506102fc60048036038101906102f79190611d6e565b6111c0565b6040516103099190612545565b60405180910390f35b34801561031e57600080fd5b5061033960048036038101906103349190611d6e565b6112a1565b6040516103469190612401565b60405180910390f35b34801561035b57600080fd5b5061037660048036038101906103719190611d9b565b611453565b6040516103839190612545565b60405180910390f35b34801561039857600080fd5b506103b360048036038101906103ae9190611d6e565b61148e565b6040516103c7989796959493929190612560565b60405180910390f35b3480156103dc57600080fd5b506103f760048036038101906103f29190611d25565b61188a565b6040516104049190612401565b60405180910390f35b600460205280600052604060002060009150905080600001549080600101805461043690612934565b80601f016020809104026020016040519081016040528092919081815260200182805461046290612934565b80156104af5780601f10610484576101008083540402835291602001916104af565b820191906000526020600020905b81548152906001019060200180831161049257829003601f168201915b5050505050908060020154908060040154908060060180546104d090612934565b80601f01602080910402602001604051908101604052809291908181526020018280546104fc90612934565b80156105495780601f1061051e57610100808354040283529160200191610549565b820191906000526020600020905b81548152906001019060200180831161052c57829003601f168201915b50505050509080600701805461055e90612934565b80601f016020809104026020016040519081016040528092919081815260200182805461058a90612934565b80156105d75780601f106105ac576101008083540402835291602001916105d7565b820191906000526020600020905b8154815290600101906020018083116105ba57829003601f168201915b5050505050905086565b6000603c856105f0919061285a565b426105fb9190612804565b905060006040518061010001604052808b81526020018a815260200189815260200188815260200183815260200186815260200185815260200184815250905080600460008c81526020019081526020016000206000820151816000015560208201518160010190805190602001906106759291906119df565b5060408201518160020155606082015181600301908051906020019061069c929190611a65565b506080820151816004015560a08201518160050190805190602001906106c3929190611a65565b5060c08201518160060190805190602001906106e09291906119df565b5060e08201518160070190805190602001906106fd9291906119df565b5090505060008081548092919061071390612997565b919050555050505050505050505050565b60005481565b606060046000838152602001908152602001600020600301805480602002602001604051908101604052809291908181526020016000905b8282101561080e57838290600052602060002001805461078190612934565b80601f01602080910402602001604051908101604052809291908181526020018280546107ad90612934565b80156107fa5780601f106107cf576101008083540402835291602001916107fa565b820191906000526020600020905b8154815290600101906020018083116107dd57829003601f168201915b505050505081526020019060010190610762565b505050509050919050565b60046000848152602001908152602001600020600401544210610871576040517f08c379a0000000000000000000000000000000000000000000000000000000008152600401610868906124e5565b60405180910390fd5b600360008481526020019081526020016000208260405161089291906123b1565b908152602001604051809103902060009054906101000a900460ff16156108ee576040517f08c379a00000000000000000000000000000000000000000000000000000000081526004016108e590612525565b60405180910390fd5b6004600084815260200190815260200160002060020154815114610947576040517f08c379a000000000000000000000000000000000000000000000000000000000815260040161093e90612445565b60405180910390fd5b6000600460008581526020019081526020016000206002015467ffffffffffffffff81111561097957610978612a6d565b5b6040519080825280602002602001820160405280156109a75781602001602082028036833780820191505090505b50905060005b8251811015610a8857600060018483815181106109cd576109cc612a3e565b5b60200260200101516109df91906128b4565b905060046000878152602001908152602001600020600201548110610a39576040517f08c379a0000000000000000000000000000000000000000000000000000000008152600401610a30906124a5565b60405180910390fd5b600182610a469190612804565b838281518110610a5957610a58612a3e565b5b60200260200101818151610a6d9190612804565b91508181525050508080610a8090612997565b9150506109ad565b5060005b6004600086815260200190815260200160002060020154811015610be3576000600460008781526020019081526020016000206003018281548110610ad457610ad3612a3e565b5b906000526020600020018054610ae990612934565b80601f0160208091040260200160405190810160405280929190818152602001828054610b1590612934565b8015610b625780601f10610b3757610100808354040283529160200191610b62565b820191906000526020600020905b815481529060010190602001808311610b4557829003601f168201915b505050505090506000838381518110610b7e57610b7d612a3e565b5b60200260200101519050806001600089815260200190815260200160002083604051610baa91906123b1565b90815260200160405180910390206000828254610bc79190612804565b9250508190555050508080610bdb90612997565b915050610a8c565b5060016003600086815260200190815260200160002084604051610c0791906123b1565b908152602001604051809103902060006101000a81548160ff02191690831515021790555050505050565b6060600560009054906101000a900473ffffffffffffffffffffffffffffffffffffffff1673ffffffffffffffffffffffffffffffffffffffff163373ffffffffffffffffffffffffffffffffffffffff1614610cc4576040517f08c379a0000000000000000000000000000000000000000000000000000000008152600401610cbb90612485565b60405180910390fd5b42600460008481526020019081526020016000206004015410610d1c576040517f08c379a0000000000000000000000000000000000000000000000000000000008152600401610d13906124c5565b60405180910390fd5b6000606060005b6004600086815260200190815260200160002060020154811015610e8357600060016000878152602001908152602001600020600460008881526020019081526020016000206003018381548110610d7e57610d7d612a3e565b5b90600052602060002001604051610d9591906123c8565b908152602001604051809103902054905083811115610e6f57809350600460008781526020019081526020016000206003018281548110610dd957610dd8612a3e565b5b906000526020600020018054610dee90612934565b80601f0160208091040260200160405190810160405280929190818152602001828054610e1a90612934565b8015610e675780601f10610e3c57610100808354040283529160200191610e67565b820191906000526020600020905b815481529060010190602001808311610e4a57829003601f168201915b505050505092505b508080610e7b90612997565b915050610d23565b508092505050919050565b606060006040518060200160405280600081525090506000805b6004600086815260200190815260200160002060020154811015610fdd576000600460008781526020019081526020016000206003018281548110610ef057610eef612a3e565b5b906000526020600020018054610f0590612934565b80601f0160208091040260200160405190810160405280929190818152602001828054610f3190612934565b8015610f7e5780601f10610f5357610100808354040283529160200191610f7e565b820191906000526020600020905b815481529060010190602001808311610f6157829003601f168201915b5050505050905060006001600088815260200190815260200160002082604051610fa891906123b1565b908152602001604051809103902054905083811115610fc8578194508093505b50508080610fd590612997565b915050610ea8565b508192505050919050565b600047905090565b600560009054906101000a900473ffffffffffffffffffffffffffffffffffffffff1673ffffffffffffffffffffffffffffffffffffffff163373ffffffffffffffffffffffffffffffffffffffff1614611080576040517f08c379a000000000000000000000000000000000000000000000000000000000815260040161107790612485565b60405180910390fd5b3373ffffffffffffffffffffffffffffffffffffffff166108fc670de0b6b3a76400009081150290604051600060405180830381858888f193505050501580156110ce573d6000803e3d6000fd5b50565b606060046000838152602001908152602001600020600501805480602002602001604051908101604052809291908181526020016000905b828210156111b557838290600052602060002001805461112890612934565b80601f016020809104026020016040519081016040528092919081815260200182805461115490612934565b80156111a15780601f10611176576101008083540402835291602001916111a1565b820191906000526020600020905b81548152906001019060200180831161118457829003601f168201915b505050505081526020019060010190611109565b505050509050919050565b60008060046000848152602001908152602001600020600401541161121a576040517f08c379a000000000000000000000000000000000000000000000000000000000815260040161121190612505565b60405180910390fd5b42600460008481526020019081526020016000206004015411611272576040517f08c379a000000000000000000000000000000000000000000000000000000000815260040161126990612465565b60405180910390fd5b600042600460008581526020019081526020016000206004015461129691906128b4565b905080915050919050565b60606000600460008481526020019081526020016000206002015467ffffffffffffffff8111156112d5576112d4612a6d565b5b6040519080825280602002602001820160405280156113035781602001602082028036833780820191505090505b50905060005b600460008581526020019081526020016000206002015481101561144957600060046000868152602001908152602001600020600301828154811061135157611350612a3e565b5b90600052602060002001805461136690612934565b80601f016020809104026020016040519081016040528092919081815260200182805461139290612934565b80156113df5780601f106113b4576101008083540402835291602001916113df565b820191906000526020600020905b8154815290600101906020018083116113c257829003601f168201915b50505050509050600160008681526020019081526020016000208160405161140791906123b1565b90815260200160405180910390205483838151811061142957611428612a3e565b5b60200260200101818152505050808061144190612997565b915050611309565b5080915050919050565b600160205281600052604060002081805160208101820180518482526020830160208501208183528095505050505050600091509150505481565b6000606060006060600060608060606000600460008b815260200190815260200160002060405180610100016040529081600082015481526020016001820180546114d890612934565b80601f016020809104026020016040519081016040528092919081815260200182805461150490612934565b80156115515780601f1061152657610100808354040283529160200191611551565b820191906000526020600020905b81548152906001019060200180831161153457829003601f168201915b505050505081526020016002820154815260200160038201805480602002602001604051908101604052809291908181526020016000905b828210156116355783829060005260206000200180546115a890612934565b80601f01602080910402602001604051908101604052809291908181526020018280546115d490612934565b80156116215780601f106115f657610100808354040283529160200191611621565b820191906000526020600020905b81548152906001019060200180831161160457829003601f168201915b505050505081526020019060010190611589565b5050505081526020016004820154815260200160058201805480602002602001604051908101604052809291908181526020016000905b8282101561171857838290600052602060002001805461168b90612934565b80601f01602080910402602001604051908101604052809291908181526020018280546116b790612934565b80156117045780601f106116d957610100808354040283529160200191611704565b820191906000526020600020905b8154815290600101906020018083116116e757829003601f168201915b50505050508152602001906001019061166c565b50505050815260200160068201805461173090612934565b80601f016020809104026020016040519081016040528092919081815260200182805461175c90612934565b80156117a95780601f1061177e576101008083540402835291602001916117a9565b820191906000526020600020905b81548152906001019060200180831161178c57829003601f168201915b505050505081526020016007820180546117c290612934565b80601f01602080910402602001604051908101604052809291908181526020018280546117ee90612934565b801561183b5780601f106118105761010080835404028352916020019161183b565b820191906000526020600020905b81548152906001019060200180831161181e57829003601f168201915b5050505050815250509050806000015181602001518260400151836060015184608001518560a001518660c001518760e001519850985098509850985098509850985050919395975091939597565b60606000805467ffffffffffffffff8111156118a9576118a8612a6d565b5b6040519080825280602002602001820160405280156118d75781602001602082028036833780820191505090505b509050600080600190505b60005481116119d45760005b60046000838152602001908152602001600020600501805490508110156119c057858051906020012060046000848152602001908152602001600020600501828154811061193f5761193e612a3e565b5b90600052602060002001604051611956919061239a565b604051809103902014156119ad57600460008381526020019081526020016000206000015484848151811061198e5761198d612a3e565b5b60200260200101818152505082806119a590612997565b9350506119c0565b80806119b890612997565b9150506118ee565b5080806119cc90612997565b9150506118e2565b508192505050919050565b8280546119eb90612934565b90600052602060002090601f016020900481019282611a0d5760008555611a54565b82601f10611a2657805160ff1916838001178555611a54565b82800160010185558215611a54579182015b82811115611a53578251825591602001919060010190611a38565b5b509050611a619190611ac5565b5090565b828054828255906000526020600020908101928215611ab4579160200282015b82811115611ab3578251829080519060200190611aa39291906119df565b5091602001919060010190611a85565b5b509050611ac19190611ae2565b5090565b5b80821115611ade576000816000905550600101611ac6565b5090565b5b80821115611b025760008181611af99190611b06565b50600101611ae3565b5090565b508054611b1290612934565b6000825580601f10611b245750611b43565b601f016020900490600052602060002090810190611b429190611ac5565b5b50565b6000611b59611b548461269c565b612677565b90508083825260208201905082856020860282011115611b7c57611b7b612aa1565b5b60005b85811015611bca57813567ffffffffffffffff811115611ba257611ba1612a9c565b5b808601611baf8982611ce2565b85526020850194506020840193505050600181019050611b7f565b5050509392505050565b6000611be7611be2846126c8565b612677565b90508083825260208201905082856020860282011115611c0a57611c09612aa1565b5b60005b85811015611c3a5781611c208882611d10565b845260208401935060208301925050600181019050611c0d565b5050509392505050565b6000611c57611c52846126f4565b612677565b905082815260208101848484011115611c7357611c72612aa6565b5b611c7e8482856128f2565b509392505050565b600082601f830112611c9b57611c9a612a9c565b5b8135611cab848260208601611b46565b91505092915050565b600082601f830112611cc957611cc8612a9c565b5b8135611cd9848260208601611bd4565b91505092915050565b600082601f830112611cf757611cf6612a9c565b5b8135611d07848260208601611c44565b91505092915050565b600081359050611d1f81612c0e565b92915050565b600060208284031215611d3b57611d3a612ab0565b5b600082013567ffffffffffffffff811115611d5957611d58612aab565b5b611d6584828501611ce2565b91505092915050565b600060208284031215611d8457611d83612ab0565b5b6000611d9284828501611d10565b91505092915050565b60008060408385031215611db257611db1612ab0565b5b6000611dc085828601611d10565b925050602083013567ffffffffffffffff811115611de157611de0612aab565b5b611ded85828601611ce2565b9150509250929050565b600080600060608486031215611e1057611e0f612ab0565b5b6000611e1e86828701611d10565b935050602084013567ffffffffffffffff811115611e3f57611e3e612aab565b5b611e4b86828701611ce2565b925050604084013567ffffffffffffffff811115611e6c57611e6b612aab565b5b611e7886828701611cb4565b9150509250925092565b600080600080600080600080610100898b031215611ea357611ea2612ab0565b5b6000611eb18b828c01611d10565b985050602089013567ffffffffffffffff811115611ed257611ed1612aab565b5b611ede8b828c01611ce2565b9750506040611eef8b828c01611d10565b965050606089013567ffffffffffffffff811115611f1057611f0f612aab565b5b611f1c8b828c01611c86565b9550506080611f2d8b828c01611d10565b94505060a089013567ffffffffffffffff811115611f4e57611f4d612aab565b5b611f5a8b828c01611c86565b93505060c089013567ffffffffffffffff811115611f7b57611f7a612aab565b5b611f878b828c01611ce2565b92505060e089013567ffffffffffffffff811115611fa857611fa7612aab565b5b611fb48b828c01611ce2565b9150509295985092959890939650565b6000611fd08383612142565b905092915050565b6000611fe4838361237c565b60208301905092915050565b6000611ffb8261276f565b61200581856127aa565b93508360208202850161201785612725565b8060005b8581101561205357848403895281516120348582611fc4565b945061203f83612790565b925060208a0199505060018101905061201b565b50829750879550505050505092915050565b60006120708261277a565b61207a81856127bb565b935061208583612735565b8060005b838110156120b657815161209d8882611fd8565b97506120a88361279d565b925050600181019050612089565b5085935050505092915050565b600081546120d081612934565b6120da81866127cc565b945060018216600081146120f5576001811461210657612139565b60ff19831686528186019350612139565b61210f85612745565b60005b8381101561213157815481890152600182019150602081019050612112565b838801955050505b50505092915050565b600061214d82612785565b61215781856127d7565b9350612167818560208601612901565b61217081612ab5565b840191505092915050565b600061218682612785565b61219081856127e8565b93506121a0818560208601612901565b6121a981612ab5565b840191505092915050565b60006121bf82612785565b6121c981856127f9565b93506121d9818560208601612901565b80840191505092915050565b600081546121f281612934565b6121fc81866127f9565b9450600182166000811461221757600181146122285761225b565b60ff1983168652818601935061225b565b6122318561275a565b60005b8381101561225357815481890152600182019150602081019050612234565b838801955050505b50505092915050565b6000612271601a836127e8565b915061227c82612ac6565b602082019050919050565b6000612294600e836127e8565b915061229f82612aef565b602082019050919050565b60006122b7600e836127e8565b91506122c282612b18565b602082019050919050565b60006122da6019836127e8565b91506122e582612b41565b602082019050919050565b60006122fd601f836127e8565b915061230882612b6a565b602082019050919050565b60006123206017836127e8565b915061232b82612b93565b602082019050919050565b60006123436018836127e8565b915061234e82612bbc565b602082019050919050565b60006123666016836127e8565b915061237182612be5565b602082019050919050565b612385816128e8565b82525050565b612394816128e8565b82525050565b60006123a682846120c3565b915081905092915050565b60006123bd82846121b4565b915081905092915050565b60006123d482846121e5565b915081905092915050565b600060208201905081810360008301526123f98184611ff0565b905092915050565b6000602082019050818103600083015261241b8184612065565b905092915050565b6000602082019050818103600083015261243d818461217b565b905092915050565b6000602082019050818103600083015261245e81612264565b9050919050565b6000602082019050818103600083015261247e81612287565b9050919050565b6000602082019050818103600083015261249e816122aa565b9050919050565b600060208201905081810360008301526124be816122cd565b9050919050565b600060208201905081810360008301526124de816122f0565b9050919050565b600060208201905081810360008301526124fe81612313565b9050919050565b6000602082019050818103600083015261251e81612336565b9050919050565b6000602082019050818103600083015261253e81612359565b9050919050565b600060208201905061255a600083018461238b565b92915050565b600061010082019050612576600083018b61238b565b8181036020830152612588818a61217b565b9050612597604083018961238b565b81810360608301526125a98188611ff0565b90506125b8608083018761238b565b81810360a08301526125ca8186611ff0565b905081810360c08301526125de818561217b565b905081810360e08301526125f2818461217b565b90509998505050505050505050565b600060c082019050612616600083018961238b565b8181036020830152612628818861217b565b9050612637604083018761238b565b612644606083018661238b565b8181036080830152612656818561217b565b905081810360a083015261266a818461217b565b9050979650505050505050565b6000612681612692565b905061268d8282612966565b919050565b6000604051905090565b600067ffffffffffffffff8211156126b7576126b6612a6d565b5b602082029050602081019050919050565b600067ffffffffffffffff8211156126e3576126e2612a6d565b5b602082029050602081019050919050565b600067ffffffffffffffff82111561270f5761270e612a6d565b5b61271882612ab5565b9050602081019050919050565b6000819050602082019050919050565b6000819050602082019050919050565b60008190508160005260206000209050919050565b60008190508160005260206000209050919050565b600081519050919050565b600081519050919050565b600081519050919050565b6000602082019050919050565b6000602082019050919050565b600082825260208201905092915050565b600082825260208201905092915050565b600081905092915050565b600082825260208201905092915050565b600082825260208201905092915050565b600081905092915050565b600061280f826128e8565b915061281a836128e8565b9250827fffffffffffffffffffffffffffffffffffffffffffffffffffffffffffffffff0382111561284f5761284e6129e0565b5b828201905092915050565b6000612865826128e8565b9150612870836128e8565b9250817fffffffffffffffffffffffffffffffffffffffffffffffffffffffffffffffff04831182151516156128a9576128a86129e0565b5b828202905092915050565b60006128bf826128e8565b91506128ca836128e8565b9250828210156128dd576128dc6129e0565b5b828203905092915050565b6000819050919050565b82818337600083830152505050565b60005b8381101561291f578082015181840152602081019050612904565b8381111561292e576000848401525b50505050565b6000600282049050600182168061294c57607f821691505b602082108114156129605761295f612a0f565b5b50919050565b61296f82612ab5565b810181811067ffffffffffffffff8211171561298e5761298d612a6d565b5b80604052505050565b60006129a2826128e8565b91507fffffffffffffffffffffffffffffffffffffffffffffffffffffffffffffffff8214156129d5576129d46129e0565b5b600182019050919050565b7f4e487b7100000000000000000000000000000000000000000000000000000000600052601160045260246000fd5b7f4e487b7100000000000000000000000000000000000000000000000000000000600052602260045260246000fd5b7f4e487b7100000000000000000000000000000000000000000000000000000000600052603260045260246000fd5b7f4e487b7100000000000000000000000000000000000000000000000000000000600052604160045260246000fd5b600080fd5b600080fd5b600080fd5b600080fd5b600080fd5b6000601f19601f8301169050919050565b7f496e76616c6964206e756d626572206f662072616e6b696e6773000000000000600082015250565b7f506f6c6c2068617320656e646564000000000000000000000000000000000000600082015250565b7f4e6f7420417574686f72697a6564000000000000000000000000000000000000600082015250565b7f496e76616c69642063616e6469646174652072616e6b696e6700000000000000600082015250565b7f566f74696e6720706572696f6420686173206e6f7420656e6465642079657400600082015250565b7f566f74696e6720706572696f642068617320656e646564000000000000000000600082015250565b7f506f6c6c20686173206e6f742073746172746564207965740000000000000000600082015250565b7f596f75206861766520616c726561647920766f74656400000000000000000000600082015250565b612c17816128e8565b8114612c2257600080fd5b5056fea2646970667358221220c9e52ac1be8b6da5b6a955b8f2486d95a251345f8c8c8c7f9abee0ca2153527b64736f6c63430008070033",
  "immutableReferences": {},
  "source": "// SPDX-License-Identifier: GPL-3.0\r\n\r\npragma solidity >=0.7.0 <0.9.0;\r\n// import \"@openzeppelin/contracts/utils/Strings.sol\";\r\n\r\ncontract RankBasedVoting{\r\n    // using Strings for string;\r\n    uint public systemCount;\r\n    struct VotingSystem{\r\n        uint uniqueId;\r\n        string systemName;\r\n        uint numberOfCandidates;\r\n        string[] candidates;\r\n        uint votingPeriod;       \r\n        string[] votersForElection;\r\n        string electionHelderName;\r\n        string description;\r\n    }\r\n\r\n    mapping (uint => mapping (string => uint)) public differentSystemVotes;\r\n    mapping (uint => mapping (address => bool)) differentSystemVotingDone;\r\n    mapping (uint => mapping (string => bool)) differentPanCardsVoting;\r\n    mapping (uint => VotingSystem) public systems;\r\n\r\n    function getSystemDetails(uint _uniqueId) public view returns (uint, string memory, uint, string[] memory, uint, string[] memory, string memory, string memory) {\r\n        VotingSystem memory system = systems[_uniqueId];\r\n        return (system.uniqueId, system.systemName, system.numberOfCandidates, system.candidates, system.votingPeriod, system.votersForElection, system.electionHelderName, system.description);\r\n    }\r\n\r\n    function createSystem(uint _uniqueId, string memory _systemName, uint _numberOfCandidates, string[] memory _candidates,uint numberOfDays,string[] memory _votersForElection, string memory _electionHelderName,string memory _description) public   {\r\n        uint _votingPeriod = block.timestamp + (numberOfDays * 1 minutes);\r\n        VotingSystem memory system =  VotingSystem(_uniqueId,_systemName,_numberOfCandidates,_candidates,_votingPeriod,_votersForElection,_electionHelderName,_description);\r\n        systems[_uniqueId] = system;\r\n        systemCount++;\r\n    }\r\n\r\n    address payable owner;\r\n    mapping (address => uint) votingDone;\r\n  \r\n    constructor() {\r\n        owner = payable(msg.sender);\r\n    }\r\n\r\n    function showBalance() public view returns(uint) {\r\n        return address(this).balance;\r\n    }\r\n\r\n    // function voteKarteRaho(uint _uniqueId,string memory _candidateName,string memory _candidateAadhar) public  {\r\n    //     voteNow(_uniqueId,_candidateName,_candidateAadhar);\r\n    // }\r\n\r\n    function checkIfUserExists(uint _uniqueId,string memory _candidateAadhar) internal view returns(bool){\r\n        for(uint i=0;i<systems[_uniqueId].votersForElection.length;i++){\r\n            if (keccak256(bytes(systems[_uniqueId].votersForElection[i])) == keccak256(bytes(_candidateAadhar))){\r\n                return true;\r\n            }\r\n        }\r\n        return false;\r\n    }\r\n    function castRankVote(uint systemId, string memory voter, uint[] memory rankings) public {\r\n        // Make sure the voting period is open\r\n        require(block.timestamp < systems[systemId].votingPeriod, \"Voting period has ended\");\r\n        // Make sure the voter is eligible to vote\r\n        require(!differentPanCardsVoting[systemId][voter], \"You have already voted\");\r\n        // Make sure the rankings are valid\r\n        require(rankings.length == systems[systemId].numberOfCandidates, \"Invalid number of rankings\");\r\n        uint[] memory candidatePoints = new uint[](systems[systemId].numberOfCandidates);\r\n        for (uint i = 0; i < rankings.length; i++) {\r\n            uint candidateIndex = rankings[i] - 1; // Convert rank to index (1-based to 0-based)\r\n            require(candidateIndex < systems[systemId].numberOfCandidates, \"Invalid candidate ranking\");\r\n            candidatePoints[candidateIndex] += i + 1; // Assign points based on rank\r\n        }\r\n        // Update the vote count for each candidate\r\n        for (uint i = 0; i < systems[systemId].numberOfCandidates; i++) {\r\n            string memory candidateName = systems[systemId].candidates[i];\r\n            uint points = candidatePoints[i];\r\n            differentSystemVotes[systemId][candidateName] += points;\r\n        }\r\n        // Mark the voter as having voted\r\n        differentPanCardsVoting[systemId][voter] = true;\r\n    }\r\n\r\n    function getCandidateVoteCounts(uint systemId) public view returns (uint[] memory) {\r\n        uint[] memory voteCounts = new uint[](systems[systemId].numberOfCandidates);\r\n        for (uint i = 0; i < systems[systemId].numberOfCandidates; i++) {\r\n            string memory candidateName = systems[systemId].candidates[i];\r\n            voteCounts[i] = differentSystemVotes[systemId][candidateName];\r\n        }\r\n        return voteCounts;\r\n    }\r\n    \r\n    function getLeadingCandidate(uint systemId) public view returns (string memory) {\r\n        string memory leadingCandidate = \"\";\r\n        uint leadingVoteCount = 0;\r\n        for (uint i = 0; i < systems[systemId].numberOfCandidates; i++) {\r\n            string memory candidateName = systems[systemId].candidates[i];\r\n            uint voteCount = differentSystemVotes[systemId][candidateName];\r\n            if (voteCount > leadingVoteCount) {\r\n                leadingCandidate = candidateName;\r\n                leadingVoteCount = voteCount;\r\n            }\r\n        }\r\n        return leadingCandidate;\r\n    }\r\n\r\n\r\n    // function voteNow(uint _uniqueId,string memory _candidateName,string memory _candidateAadhar) internal{\r\n    //     require(checkIfUserExists(_uniqueId, _candidateAadhar),\"You are not Authorized to Vote\");\r\n    //     require(differentSystemVotingDone[_uniqueId][msg.sender]==false,\"You have already Voted\");\r\n    //     require(differentPanCardsVoting[_uniqueId][_candidateAadhar]==false,\"You have already Voted\");\r\n    //     require(systems[_uniqueId].votingPeriod >= block.timestamp, \"The voting time is Over!\");\r\n    //     differentSystemVotes[_uniqueId][_candidateName] +=1;\r\n    //     differentSystemVotingDone[_uniqueId][msg.sender] = true;\r\n    //     differentPanCardsVoting[_uniqueId][_candidateAadhar]=true;\r\n    // }\r\n\r\n    function getCandidates(uint _uniqueId) public view returns (string[] memory)  {\r\n        return systems[_uniqueId].candidates;\r\n    }\r\n\r\n    function getVoters(uint _uniqueId) public view returns (string[] memory)  {\r\n        return systems[_uniqueId].votersForElection;\r\n    }\r\n\r\n    function addMoneyToOwner() public payable{\r\n        require(msg.sender == owner, \"Not Authorized\");\r\n        payable(msg.sender).transfer(1 ether);\r\n    }\r\n\r\n    function getWinner(uint _uniqueId) public view returns (string memory) {\r\n        require(msg.sender == owner, \"Not Authorized\");\r\n        require(systems[_uniqueId].votingPeriod < block.timestamp, \"Voting period has not ended yet\");\r\n\r\n        uint maxVotes = 0;\r\n        string memory winner;\r\n\r\n        for (uint i = 0; i < systems[_uniqueId].numberOfCandidates; i++) {\r\n            uint candidateVotes = differentSystemVotes[_uniqueId][systems[_uniqueId].candidates[i]];\r\n            if (candidateVotes > maxVotes) {\r\n                maxVotes = candidateVotes;\r\n                winner = systems[_uniqueId].candidates[i];\r\n            }\r\n        }\r\n        return winner;\r\n    }\r\n\r\n    function getSystemIdsOfVoter(string memory _voterAddress) public view returns (uint[] memory) {\r\n        uint[] memory systemIds = new uint[](systemCount);\r\n        uint systemIndex = 0;\r\n        for (uint i = 1; i <= systemCount; i++) {\r\n            for (uint j = 0; j < systems[i].votersForElection.length; j++) {\r\n                if (keccak256(bytes(systems[i].votersForElection[j])) == keccak256(bytes(_voterAddress))) {\r\n                    systemIds[systemIndex] = systems[i].uniqueId;\r\n                    systemIndex++;\r\n                    break;\r\n                }\r\n            }\r\n        }\r\n        return systemIds;\r\n    }\r\n\r\n    function getTimeRemaining(uint _uniqueId) public view returns (uint) {\r\n        require(systems[_uniqueId].votingPeriod > 0, \"Poll has not started yet\");\r\n        require(systems[_uniqueId].votingPeriod > block.timestamp, \"Poll has ended\");\r\n\r\n        uint timeRemaining = systems[_uniqueId].votingPeriod - block.timestamp;\r\n\r\n        return timeRemaining;\r\n    }\r\n}",
  "sourcePath": "C:\\Users\\Anish Kulkarni\\Blockchain\\Code-a-palooza\\contracts\\RankBasedVoting.sol",
  "compiler": {
    "name": "solc",
    "version": "0.8.7+commit.e28d00a7.Emscripten.clang"
  },
  "schemaVersion": "3.4.12",
  "updatedAt": "2023-03-05T03:25:10.326Z",
  "networkType": "ethereum",
  "devdoc": {
    "kind": "dev",
    "methods": {},
    "version": 1
  },
  "userdoc": {
    "kind": "user",
    "methods": {},
    "version": 1
  }
}