{
  "contractName": "Voting",
  "abi": [
    {
      "inputs": [],
      "stateMutability": "nonpayable",
      "type": "constructor"
    },
    {
      "inputs": [
        {
          "internalType": "uint256",
          "name": "",
          "type": "uint256"
        },
        {
          "internalType": "string",
          "name": "",
          "type": "string"
        }
      ],
      "name": "differentSystemVotes",
      "outputs": [
        {
          "internalType": "uint256",
          "name": "",
          "type": "uint256"
        }
      ],
      "stateMutability": "view",
      "type": "function",
      "constant": true
    },
    {
      "inputs": [],
      "name": "systemCount",
      "outputs": [
        {
          "internalType": "uint256",
          "name": "",
          "type": "uint256"
        }
      ],
      "stateMutability": "view",
      "type": "function",
      "constant": true
    },
    {
      "inputs": [
        {
          "internalType": "uint256",
          "name": "",
          "type": "uint256"
        }
      ],
      "name": "systems",
      "outputs": [
        {
          "internalType": "uint256",
          "name": "uniqueId",
          "type": "uint256"
        },
        {
          "internalType": "string",
          "name": "systemName",
          "type": "string"
        },
        {
          "internalType": "uint256",
          "name": "numberOfCandidates",
          "type": "uint256"
        },
        {
          "internalType": "uint256",
          "name": "votingPeriod",
          "type": "uint256"
        },
        {
          "internalType": "string",
          "name": "electionHelderName",
          "type": "string"
        },
        {
          "internalType": "string",
          "name": "description",
          "type": "string"
        }
      ],
      "stateMutability": "view",
      "type": "function",
      "constant": true
    },
    {
      "inputs": [
        {
          "internalType": "uint256",
          "name": "_uniqueId",
          "type": "uint256"
        }
      ],
      "name": "getSystemDetails",
      "outputs": [
        {
          "internalType": "uint256",
          "name": "",
          "type": "uint256"
        },
        {
          "internalType": "string",
          "name": "",
          "type": "string"
        },
        {
          "internalType": "uint256",
          "name": "",
          "type": "uint256"
        },
        {
          "internalType": "string[]",
          "name": "",
          "type": "string[]"
        },
        {
          "internalType": "uint256",
          "name": "",
          "type": "uint256"
        },
        {
          "internalType": "string[]",
          "name": "",
          "type": "string[]"
        },
        {
          "internalType": "string",
          "name": "",
          "type": "string"
        },
        {
          "internalType": "string",
          "name": "",
          "type": "string"
        }
      ],
      "stateMutability": "view",
      "type": "function",
      "constant": true
    },
    {
      "inputs": [
        {
          "internalType": "uint256",
          "name": "_uniqueId",
          "type": "uint256"
        },
        {
          "internalType": "string",
          "name": "_systemName",
          "type": "string"
        },
        {
          "internalType": "uint256",
          "name": "_numberOfCandidates",
          "type": "uint256"
        },
        {
          "internalType": "string[]",
          "name": "_candidates",
          "type": "string[]"
        },
        {
          "internalType": "uint256",
          "name": "numberOfDays",
          "type": "uint256"
        },
        {
          "internalType": "string[]",
          "name": "_votersForElection",
          "type": "string[]"
        },
        {
          "internalType": "string",
          "name": "_electionHelderName",
          "type": "string"
        },
        {
          "internalType": "string",
          "name": "_description",
          "type": "string"
        }
      ],
      "name": "createSystem",
      "outputs": [],
      "stateMutability": "nonpayable",
      "type": "function"
    },
    {
      "inputs": [
        {
          "internalType": "uint256",
          "name": "_uniqueId",
          "type": "uint256"
        },
        {
          "internalType": "string",
          "name": "_candidateName",
          "type": "string"
        },
        {
          "internalType": "string",
          "name": "_candidateAadhar",
          "type": "string"
        }
      ],
      "name": "voteKarteRaho",
      "outputs": [],
      "stateMutability": "nonpayable",
      "type": "function"
    },
    {
      "inputs": [
        {
          "internalType": "uint256",
          "name": "_uniqueId",
          "type": "uint256"
        }
      ],
      "name": "getCandidates",
      "outputs": [
        {
          "internalType": "string[]",
          "name": "",
          "type": "string[]"
        }
      ],
      "stateMutability": "view",
      "type": "function",
      "constant": true
    },
    {
      "inputs": [
        {
          "internalType": "uint256",
          "name": "_uniqueId",
          "type": "uint256"
        }
      ],
      "name": "getVoters",
      "outputs": [
        {
          "internalType": "string[]",
          "name": "",
          "type": "string[]"
        }
      ],
      "stateMutability": "view",
      "type": "function",
      "constant": true
    },
    {
      "inputs": [],
      "name": "addMoneyToOwner",
      "outputs": [],
      "stateMutability": "payable",
      "type": "function",
      "payable": true
    },
    {
      "inputs": [
        {
          "internalType": "uint256",
          "name": "_uniqueId",
          "type": "uint256"
        }
      ],
      "name": "getWinner",
      "outputs": [
        {
          "internalType": "string",
          "name": "",
          "type": "string"
        }
      ],
      "stateMutability": "view",
      "type": "function",
      "constant": true
    },
    {
      "inputs": [
        {
          "internalType": "uint256",
          "name": "_uniqueId",
          "type": "uint256"
        }
      ],
      "name": "getTimeRemaining",
      "outputs": [
        {
          "internalType": "uint256",
          "name": "",
          "type": "uint256"
        }
      ],
      "stateMutability": "view",
      "type": "function",
      "constant": true
    },
    {
      "inputs": [
        {
          "internalType": "string",
          "name": "_voterAddress",
          "type": "string"
        }
      ],
      "name": "getSystemIdsOfVoter",
      "outputs": [
        {
          "internalType": "uint256[]",
          "name": "",
          "type": "uint256[]"
        }
      ],
      "stateMutability": "view",
      "type": "function",
      "constant": true
    }
  ],
  "bytecode": "0x608060405234801561001057600080fd5b5033600560006101000a81548173ffffffffffffffffffffffffffffffffffffffff021916908373ffffffffffffffffffffffffffffffffffffffff160217905550612811806100616000396000f3fe6080604052600436106100a75760003560e01c806386b646f21161006457806386b646f2146101c65780638cd4299114610203578063b4ed7f7614610240578063c2967b5e14610269578063cd9cf104146102a6578063cff29c1c146102ea576100a7565b80630ffca604146100ac57806326906827146100ee5780633ab59bb6146101175780633e39a7a5146101425780634129b2c91461017f57806384f3f148146101bc575b600080fd5b3480156100b857600080fd5b506100d360048036038101906100ce9190611657565b610327565b6040516100e596959493929190611723565b60405180910390f35b3480156100fa57600080fd5b50610115600480360381019061011091906119b4565b6104fb565b005b34801561012357600080fd5b5061012c61062b565b6040516101399190611af6565b60405180910390f35b34801561014e57600080fd5b5061016960048036038101906101649190611657565b610631565b6040516101769190611c1d565b60405180910390f35b34801561018b57600080fd5b506101a660048036038101906101a19190611657565b610720565b6040516101b39190611c3f565b60405180910390f35b6101c461097c565b005b3480156101d257600080fd5b506101ed60048036038101906101e89190611657565b610a5d565b6040516101fa9190611c1d565b60405180910390f35b34801561020f57600080fd5b5061022a60048036038101906102259190611657565b610b4c565b6040516102379190611af6565b60405180910390f35b34801561024c57600080fd5b5061026760048036038101906102629190611c61565b610c2d565b005b34801561027557600080fd5b50610290600480360381019061028b9190611cec565b610c3d565b60405161029d9190611af6565b60405180910390f35b3480156102b257600080fd5b506102cd60048036038101906102c89190611657565b610c78565b6040516102e1989796959493929190611d48565b60405180910390f35b3480156102f657600080fd5b50610311600480360381019061030c9190611de9565b611074565b60405161031e9190611ef0565b60405180910390f35b600460205280600052604060002060009150905080600001549080600101805461035090611f41565b80601f016020809104026020016040519081016040528092919081815260200182805461037c90611f41565b80156103c95780601f1061039e576101008083540402835291602001916103c9565b820191906000526020600020905b8154815290600101906020018083116103ac57829003601f168201915b5050505050908060020154908060040154908060060180546103ea90611f41565b80601f016020809104026020016040519081016040528092919081815260200182805461041690611f41565b80156104635780601f1061043857610100808354040283529160200191610463565b820191906000526020600020905b81548152906001019060200180831161044657829003601f168201915b50505050509080600701805461047890611f41565b80601f01602080910402602001604051908101604052809291908181526020018280546104a490611f41565b80156104f15780601f106104c6576101008083540402835291602001916104f1565b820191906000526020600020905b8154815290600101906020018083116104d457829003601f168201915b5050505050905086565b6000620151808561050c9190611fa1565b426105179190611fe3565b905060006040518061010001604052808b81526020018a815260200189815260200188815260200183815260200186815260200185815260200184815250905080600460008c815260200190815260200160002060008201518160000155602082015181600101908161058a91906121c3565b506040820151816002015560608201518160030190805190602001906105b1929190611533565b506080820151816004015560a08201518160050190805190602001906105d8929190611533565b5060c08201518160060190816105ee91906121c3565b5060e082015181600701908161060491906121c3565b5090505060008081548092919061061a90612295565b919050555050505050505050505050565b60005481565b606060046000838152602001908152602001600020600301805480602002602001604051908101604052809291908181526020016000905b8282101561071557838290600052602060002001805461068890611f41565b80601f01602080910402602001604051908101604052809291908181526020018280546106b490611f41565b80156107015780601f106106d657610100808354040283529160200191610701565b820191906000526020600020905b8154815290600101906020018083116106e457829003601f168201915b505050505081526020019060010190610669565b505050509050919050565b6060600560009054906101000a900473ffffffffffffffffffffffffffffffffffffffff1673ffffffffffffffffffffffffffffffffffffffff163373ffffffffffffffffffffffffffffffffffffffff16146107b2576040517f08c379a00000000000000000000000000000000000000000000000000000000081526004016107a990612329565b60405180910390fd5b4260046000848152602001908152602001600020600401541061080a576040517f08c379a000000000000000000000000000000000000000000000000000000000815260040161080190612395565b60405180910390fd5b6000606060005b60046000868152602001908152602001600020600201548110156109715760006001600087815260200190815260200160002060046000888152602001908152602001600020600301838154811061086c5761086b6123b5565b5b906000526020600020016040516108839190612472565b90815260200160405180910390205490508381111561095d578093506004600087815260200190815260200160002060030182815481106108c7576108c66123b5565b5b9060005260206000200180546108dc90611f41565b80601f016020809104026020016040519081016040528092919081815260200182805461090890611f41565b80156109555780601f1061092a57610100808354040283529160200191610955565b820191906000526020600020905b81548152906001019060200180831161093857829003601f168201915b505050505092505b50808061096990612295565b915050610811565b508092505050919050565b600560009054906101000a900473ffffffffffffffffffffffffffffffffffffffff1673ffffffffffffffffffffffffffffffffffffffff163373ffffffffffffffffffffffffffffffffffffffff1614610a0c576040517f08c379a0000000000000000000000000000000000000000000000000000000008152600401610a0390612329565b60405180910390fd5b3373ffffffffffffffffffffffffffffffffffffffff166108fc670de0b6b3a76400009081150290604051600060405180830381858888f19350505050158015610a5a573d6000803e3d6000fd5b50565b606060046000838152602001908152602001600020600501805480602002602001604051908101604052809291908181526020016000905b82821015610b41578382906000526020600020018054610ab490611f41565b80601f0160208091040260200160405190810160405280929190818152602001828054610ae090611f41565b8015610b2d5780601f10610b0257610100808354040283529160200191610b2d565b820191906000526020600020905b815481529060010190602001808311610b1057829003601f168201915b505050505081526020019060010190610a95565b505050509050919050565b600080600460008481526020019081526020016000206004015411610ba6576040517f08c379a0000000000000000000000000000000000000000000000000000000008152600401610b9d906124d5565b60405180910390fd5b42600460008481526020019081526020016000206004015411610bfe576040517f08c379a0000000000000000000000000000000000000000000000000000000008152600401610bf590612541565b60405180910390fd5b6000426004600085815260200190815260200160002060040154610c229190612561565b905080915050919050565b610c388383836111c8565b505050565b600160205281600052604060002081805160208101820180518482526020830160208501208183528095505050505050600091509150505481565b6000606060006060600060608060606000600460008b81526020019081526020016000206040518061010001604052908160008201548152602001600182018054610cc290611f41565b80601f0160208091040260200160405190810160405280929190818152602001828054610cee90611f41565b8015610d3b5780601f10610d1057610100808354040283529160200191610d3b565b820191906000526020600020905b815481529060010190602001808311610d1e57829003601f168201915b505050505081526020016002820154815260200160038201805480602002602001604051908101604052809291908181526020016000905b82821015610e1f578382906000526020600020018054610d9290611f41565b80601f0160208091040260200160405190810160405280929190818152602001828054610dbe90611f41565b8015610e0b5780601f10610de057610100808354040283529160200191610e0b565b820191906000526020600020905b815481529060010190602001808311610dee57829003601f168201915b505050505081526020019060010190610d73565b5050505081526020016004820154815260200160058201805480602002602001604051908101604052809291908181526020016000905b82821015610f02578382906000526020600020018054610e7590611f41565b80601f0160208091040260200160405190810160405280929190818152602001828054610ea190611f41565b8015610eee5780601f10610ec357610100808354040283529160200191610eee565b820191906000526020600020905b815481529060010190602001808311610ed157829003601f168201915b505050505081526020019060010190610e56565b505050508152602001600682018054610f1a90611f41565b80601f0160208091040260200160405190810160405280929190818152602001828054610f4690611f41565b8015610f935780601f10610f6857610100808354040283529160200191610f93565b820191906000526020600020905b815481529060010190602001808311610f7657829003601f168201915b50505050508152602001600782018054610fac90611f41565b80601f0160208091040260200160405190810160405280929190818152602001828054610fd890611f41565b80156110255780601f10610ffa57610100808354040283529160200191611025565b820191906000526020600020905b81548152906001019060200180831161100857829003601f168201915b5050505050815250509050806000015181602001518260400151836060015184608001518560a001518660c001518760e001519850985098509850985098509850985050919395975091939597565b60606000805467ffffffffffffffff811115611093576110926117a3565b5b6040519080825280602002602001820160405280156110c15781602001602082028036833780820191505090505b509050600080600190505b60005481116111bd5760005b60046000838152602001908152602001600020600501805490508110156111a9578580519060200120600460008481526020019081526020016000206005018281548110611129576111286123b5565b5b906000526020600020016040516111409190612638565b604051809103902003611196576004600083815260200190815260200160002060000154848481518110611177576111766123b5565b5b602002602001018181525050828061118e90612295565b9350506111a9565b80806111a190612295565b9150506110d8565b5080806111b590612295565b9150506110cc565b508192505050919050565b6111d2838261148d565b611211576040517f08c379a00000000000000000000000000000000000000000000000000000000081526004016112089061269b565b60405180910390fd5b600015156002600085815260200190815260200160002060003373ffffffffffffffffffffffffffffffffffffffff1673ffffffffffffffffffffffffffffffffffffffff16815260200190815260200160002060009054906101000a900460ff161515146112b5576040517f08c379a00000000000000000000000000000000000000000000000000000000081526004016112ac90612707565b60405180910390fd5b6000151560036000858152602001908152602001600020826040516112da9190612758565b908152602001604051809103902060009054906101000a900460ff16151514611338576040517f08c379a000000000000000000000000000000000000000000000000000000000815260040161132f90612707565b60405180910390fd5b4260046000858152602001908152602001600020600401541015611391576040517f08c379a0000000000000000000000000000000000000000000000000000000008152600401611388906127bb565b60405180910390fd5b6001806000858152602001908152602001600020836040516113b39190612758565b908152602001604051809103902060008282546113d09190611fe3565b9250508190555060016002600085815260200190815260200160002060003373ffffffffffffffffffffffffffffffffffffffff1673ffffffffffffffffffffffffffffffffffffffff16815260200190815260200160002060006101000a81548160ff021916908315150217905550600160036000858152602001908152602001600020826040516114639190612758565b908152602001604051809103902060006101000a81548160ff021916908315150217905550505050565b600080600090505b60046000858152602001908152602001600020600501805490508110156115275782805190602001206004600086815260200190815260200160002060050182815481106114e6576114e56123b5565b5b906000526020600020016040516114fd9190612638565b60405180910390200361151457600191505061152d565b808061151f90612295565b915050611495565b50600090505b92915050565b82805482825590600052602060002090810192821561157b579160200282015b8281111561157a57825182908161156a91906121c3565b5091602001919060010190611553565b5b509050611588919061158c565b5090565b5b808211156115ac57600081816115a391906115b0565b5060010161158d565b5090565b5080546115bc90611f41565b6000825580601f106115ce57506115ed565b601f0160209004906000526020600020908101906115ec91906115f0565b5b50565b5b808211156116095760008160009055506001016115f1565b5090565b6000604051905090565b600080fd5b600080fd5b6000819050919050565b61163481611621565b811461163f57600080fd5b50565b6000813590506116518161162b565b92915050565b60006020828403121561166d5761166c611617565b5b600061167b84828501611642565b91505092915050565b61168d81611621565b82525050565b600081519050919050565b600082825260208201905092915050565b60005b838110156116cd5780820151818401526020810190506116b2565b60008484015250505050565b6000601f19601f8301169050919050565b60006116f582611693565b6116ff818561169e565b935061170f8185602086016116af565b611718816116d9565b840191505092915050565b600060c0820190506117386000830189611684565b818103602083015261174a81886116ea565b90506117596040830187611684565b6117666060830186611684565b818103608083015261177881856116ea565b905081810360a083015261178c81846116ea565b9050979650505050505050565b600080fd5b600080fd5b7f4e487b7100000000000000000000000000000000000000000000000000000000600052604160045260246000fd5b6117db826116d9565b810181811067ffffffffffffffff821117156117fa576117f96117a3565b5b80604052505050565b600061180d61160d565b905061181982826117d2565b919050565b600067ffffffffffffffff821115611839576118386117a3565b5b611842826116d9565b9050602081019050919050565b82818337600083830152505050565b600061187161186c8461181e565b611803565b90508281526020810184848401111561188d5761188c61179e565b5b61189884828561184f565b509392505050565b600082601f8301126118b5576118b4611799565b5b81356118c584826020860161185e565b91505092915050565b600067ffffffffffffffff8211156118e9576118e86117a3565b5b602082029050602081019050919050565b600080fd5b600061191261190d846118ce565b611803565b90508083825260208201905060208402830185811115611935576119346118fa565b5b835b8181101561197c57803567ffffffffffffffff81111561195a57611959611799565b5b80860161196789826118a0565b85526020850194505050602081019050611937565b5050509392505050565b600082601f83011261199b5761199a611799565b5b81356119ab8482602086016118ff565b91505092915050565b600080600080600080600080610100898b0312156119d5576119d4611617565b5b60006119e38b828c01611642565b985050602089013567ffffffffffffffff811115611a0457611a0361161c565b5b611a108b828c016118a0565b9750506040611a218b828c01611642565b965050606089013567ffffffffffffffff811115611a4257611a4161161c565b5b611a4e8b828c01611986565b9550506080611a5f8b828c01611642565b94505060a089013567ffffffffffffffff811115611a8057611a7f61161c565b5b611a8c8b828c01611986565b93505060c089013567ffffffffffffffff811115611aad57611aac61161c565b5b611ab98b828c016118a0565b92505060e089013567ffffffffffffffff811115611ada57611ad961161c565b5b611ae68b828c016118a0565b9150509295985092959890939650565b6000602082019050611b0b6000830184611684565b92915050565b600081519050919050565b600082825260208201905092915050565b6000819050602082019050919050565b600082825260208201905092915050565b6000611b5982611693565b611b638185611b3d565b9350611b738185602086016116af565b611b7c816116d9565b840191505092915050565b6000611b938383611b4e565b905092915050565b6000602082019050919050565b6000611bb382611b11565b611bbd8185611b1c565b935083602082028501611bcf85611b2d565b8060005b85811015611c0b5784840389528151611bec8582611b87565b9450611bf783611b9b565b925060208a01995050600181019050611bd3565b50829750879550505050505092915050565b60006020820190508181036000830152611c378184611ba8565b905092915050565b60006020820190508181036000830152611c5981846116ea565b905092915050565b600080600060608486031215611c7a57611c79611617565b5b6000611c8886828701611642565b935050602084013567ffffffffffffffff811115611ca957611ca861161c565b5b611cb5868287016118a0565b925050604084013567ffffffffffffffff811115611cd657611cd561161c565b5b611ce2868287016118a0565b9150509250925092565b60008060408385031215611d0357611d02611617565b5b6000611d1185828601611642565b925050602083013567ffffffffffffffff811115611d3257611d3161161c565b5b611d3e858286016118a0565b9150509250929050565b600061010082019050611d5e600083018b611684565b8181036020830152611d70818a6116ea565b9050611d7f6040830189611684565b8181036060830152611d918188611ba8565b9050611da06080830187611684565b81810360a0830152611db28186611ba8565b905081810360c0830152611dc681856116ea565b905081810360e0830152611dda81846116ea565b90509998505050505050505050565b600060208284031215611dff57611dfe611617565b5b600082013567ffffffffffffffff811115611e1d57611e1c61161c565b5b611e29848285016118a0565b91505092915050565b600081519050919050565b600082825260208201905092915050565b6000819050602082019050919050565b611e6781611621565b82525050565b6000611e798383611e5e565b60208301905092915050565b6000602082019050919050565b6000611e9d82611e32565b611ea78185611e3d565b9350611eb283611e4e565b8060005b83811015611ee3578151611eca8882611e6d565b9750611ed583611e85565b925050600181019050611eb6565b5085935050505092915050565b60006020820190508181036000830152611f0a8184611e92565b905092915050565b7f4e487b7100000000000000000000000000000000000000000000000000000000600052602260045260246000fd5b60006002820490506001821680611f5957607f821691505b602082108103611f6c57611f6b611f12565b5b50919050565b7f4e487b7100000000000000000000000000000000000000000000000000000000600052601160045260246000fd5b6000611fac82611621565b9150611fb783611621565b9250828202611fc581611621565b91508282048414831517611fdc57611fdb611f72565b5b5092915050565b6000611fee82611621565b9150611ff983611621565b925082820190508082111561201157612010611f72565b5b92915050565b60008190508160005260206000209050919050565b60006020601f8301049050919050565b600082821b905092915050565b6000600883026120797fffffffffffffffffffffffffffffffffffffffffffffffffffffffffffffffff8261203c565b612083868361203c565b95508019841693508086168417925050509392505050565b6000819050919050565b60006120c06120bb6120b684611621565b61209b565b611621565b9050919050565b6000819050919050565b6120da836120a5565b6120ee6120e6826120c7565b848454612049565b825550505050565b600090565b6121036120f6565b61210e8184846120d1565b505050565b5b81811015612132576121276000826120fb565b600181019050612114565b5050565b601f8211156121775761214881612017565b6121518461202c565b81016020851015612160578190505b61217461216c8561202c565b830182612113565b50505b505050565b600082821c905092915050565b600061219a6000198460080261217c565b1980831691505092915050565b60006121b38383612189565b9150826002028217905092915050565b6121cc82611693565b67ffffffffffffffff8111156121e5576121e46117a3565b5b6121ef8254611f41565b6121fa828285612136565b600060209050601f83116001811461222d576000841561221b578287015190505b61222585826121a7565b86555061228d565b601f19841661223b86612017565b60005b828110156122635784890151825560018201915060208501945060208101905061223e565b86831015612280578489015161227c601f891682612189565b8355505b6001600288020188555050505b505050505050565b60006122a082611621565b91507fffffffffffffffffffffffffffffffffffffffffffffffffffffffffffffffff82036122d2576122d1611f72565b5b600182019050919050565b7f4e6f7420417574686f72697a6564000000000000000000000000000000000000600082015250565b6000612313600e8361169e565b915061231e826122dd565b602082019050919050565b6000602082019050818103600083015261234281612306565b9050919050565b7f566f74696e6720706572696f6420686173206e6f7420656e6465642079657400600082015250565b600061237f601f8361169e565b915061238a82612349565b602082019050919050565b600060208201905081810360008301526123ae81612372565b9050919050565b7f4e487b7100000000000000000000000000000000000000000000000000000000600052603260045260246000fd5b600081905092915050565b600081546123fc81611f41565b61240681866123e4565b94506001821660008114612421576001811461243657612469565b60ff1983168652811515820286019350612469565b61243f85612017565b60005b8381101561246157815481890152600182019150602081019050612442565b838801955050505b50505092915050565b600061247e82846123ef565b915081905092915050565b7f506f6c6c20686173206e6f742073746172746564207965740000000000000000600082015250565b60006124bf60188361169e565b91506124ca82612489565b602082019050919050565b600060208201905081810360008301526124ee816124b2565b9050919050565b7f506f6c6c2068617320656e646564000000000000000000000000000000000000600082015250565b600061252b600e8361169e565b9150612536826124f5565b602082019050919050565b6000602082019050818103600083015261255a8161251e565b9050919050565b600061256c82611621565b915061257783611621565b925082820390508181111561258f5761258e611f72565b5b92915050565b600081905092915050565b60008190508160005260206000209050919050565b600081546125c281611f41565b6125cc8186612595565b945060018216600081146125e757600181146125fc5761262f565b60ff198316865281151582028601935061262f565b612605856125a0565b60005b8381101561262757815481890152600182019150602081019050612608565b838801955050505b50505092915050565b600061264482846125b5565b915081905092915050565b7f596f7520617265206e6f7420417574686f72697a656420746f20566f74650000600082015250565b6000612685601e8361169e565b91506126908261264f565b602082019050919050565b600060208201905081810360008301526126b481612678565b9050919050565b7f596f75206861766520616c726561647920566f74656400000000000000000000600082015250565b60006126f160168361169e565b91506126fc826126bb565b602082019050919050565b60006020820190508181036000830152612720816126e4565b9050919050565b600061273282611693565b61273c81856123e4565b935061274c8185602086016116af565b80840191505092915050565b60006127648284612727565b915081905092915050565b7f54686520766f74696e672074696d65206973204f766572210000000000000000600082015250565b60006127a560188361169e565b91506127b08261276f565b602082019050919050565b600060208201905081810360008301526127d481612798565b905091905056fea264697066735822122068a7d01f1a62ccfb46c84d47f21ea94d4e22e835a90d637bab1b87b8f38fa8e664736f6c63430008120033",
  "immutableReferences": {},
  "source": "// SPDX-License-Identifier: GPL-3.0\r\n\r\npragma solidity >=0.7.0 <0.9.0;\r\n// import \"@openzeppelin/contracts/utils/Strings.sol\";\r\n\r\ncontract Voting{\r\n    // using Strings for string;\r\n    uint public systemCount;\r\n    struct VotingSystem{\r\n        uint uniqueId;\r\n        string systemName;\r\n        uint numberOfCandidates;\r\n        string[] candidates;\r\n        uint votingPeriod;       \r\n        string[] votersForElection;\r\n        string electionHelderName;\r\n        string description;\r\n    }\r\n\r\n    mapping (uint => mapping (string => uint)) public differentSystemVotes;\r\n    mapping (uint => mapping (address => bool)) differentSystemVotingDone;\r\n    mapping (uint => mapping (string => bool)) differentPanCardsVoting;\r\n    mapping (uint => VotingSystem) public systems;\r\n\r\n    function getSystemDetails(uint _uniqueId) public view returns (uint, string memory, uint, string[] memory, uint, string[] memory, string memory, string memory) {\r\n        VotingSystem memory system = systems[_uniqueId];\r\n        return (system.uniqueId, system.systemName, system.numberOfCandidates, system.candidates, system.votingPeriod, system.votersForElection, system.electionHelderName, system.description);\r\n    }\r\n\r\n    function createSystem(uint _uniqueId, string memory _systemName, uint _numberOfCandidates, string[] memory _candidates,uint numberOfDays,string[] memory _votersForElection, string memory _electionHelderName,string memory _description) public   {\r\n        uint _votingPeriod = block.timestamp + (numberOfDays * 1 days);\r\n        VotingSystem memory system =  VotingSystem(_uniqueId,_systemName,_numberOfCandidates,_candidates,_votingPeriod,_votersForElection,_electionHelderName,_description);\r\n        systems[_uniqueId] = system;\r\n        systemCount++;\r\n    }\r\n\r\n    address payable owner;\r\n    mapping (address => uint) votingDone;\r\n  \r\n    constructor() {\r\n        owner = payable(msg.sender);\r\n    }\r\n\r\n    // function showBalance() public view returns(uint) {\r\n    //     return address(this).balance;\r\n    // }\r\n\r\n    function voteKarteRaho(uint _uniqueId,string memory _candidateName,string memory _candidateAadhar) public  {\r\n        voteNow(_uniqueId,_candidateName,_candidateAadhar);\r\n    }\r\n\r\n    function checkIfUserExists(uint _uniqueId,string memory _candidateAadhar) internal view returns(bool){\r\n        for(uint i=0;i<systems[_uniqueId].votersForElection.length;i++){\r\n            if (keccak256(bytes(systems[_uniqueId].votersForElection[i])) == keccak256(bytes(_candidateAadhar))){\r\n                return true;\r\n            }\r\n        }\r\n        return false;\r\n    }\r\n\r\n    function voteNow(uint _uniqueId,string memory _candidateName,string memory _candidateAadhar) internal{\r\n        require(checkIfUserExists(_uniqueId, _candidateAadhar),\"You are not Authorized to Vote\");\r\n        require(differentSystemVotingDone[_uniqueId][msg.sender]==false,\"You have already Voted\");\r\n        require(differentPanCardsVoting[_uniqueId][_candidateAadhar]==false,\"You have already Voted\");\r\n        require(systems[_uniqueId].votingPeriod >= block.timestamp, \"The voting time is Over!\");\r\n        differentSystemVotes[_uniqueId][_candidateName] +=1;\r\n        differentSystemVotingDone[_uniqueId][msg.sender] = true;\r\n        differentPanCardsVoting[_uniqueId][_candidateAadhar]=true;\r\n    }\r\n\r\n    function getCandidates(uint _uniqueId) public view returns (string[] memory)  {\r\n        return systems[_uniqueId].candidates;\r\n    }\r\n\r\n    function getVoters(uint _uniqueId) public view returns (string[] memory)  {\r\n        return systems[_uniqueId].votersForElection;\r\n    }\r\n\r\n    function addMoneyToOwner() public payable{\r\n        require(msg.sender == owner, \"Not Authorized\");\r\n        payable(msg.sender).transfer(1 ether);\r\n    }\r\n\r\n    function getWinner(uint _uniqueId) public view returns (string memory) {\r\n        require(msg.sender == owner, \"Not Authorized\");\r\n        require(systems[_uniqueId].votingPeriod < block.timestamp, \"Voting period has not ended yet\");\r\n\r\n        uint maxVotes = 0;\r\n        string memory winner;\r\n\r\n        for (uint i = 0; i < systems[_uniqueId].numberOfCandidates; i++) {\r\n            uint candidateVotes = differentSystemVotes[_uniqueId][systems[_uniqueId].candidates[i]];\r\n            if (candidateVotes > maxVotes) {\r\n                maxVotes = candidateVotes;\r\n                winner = systems[_uniqueId].candidates[i];\r\n            }\r\n        }\r\n        return winner;\r\n    }\r\n\r\n    function getTimeRemaining(uint _uniqueId) public view returns (uint) {\r\n        require(systems[_uniqueId].votingPeriod > 0, \"Poll has not started yet\");\r\n        require(systems[_uniqueId].votingPeriod > block.timestamp, \"Poll has ended\");\r\n\r\n        uint timeRemaining = systems[_uniqueId].votingPeriod - block.timestamp;\r\n\r\n        return timeRemaining;\r\n    }\r\n\r\n    function getSystemIdsOfVoter(string memory _voterAddress) public view returns (uint[] memory) {\r\n        uint[] memory systemIds = new uint[](systemCount);\r\n        uint systemIndex = 0;\r\n        for (uint i = 1; i <= systemCount; i++) {\r\n            for (uint j = 0; j < systems[i].votersForElection.length; j++) {\r\n                if (keccak256(bytes(systems[i].votersForElection[j])) == keccak256(bytes(_voterAddress))) {\r\n                    systemIds[systemIndex] = systems[i].uniqueId;\r\n                    systemIndex++;\r\n                    break;\r\n                }\r\n            }\r\n        }\r\n        return systemIds;\r\n    }\r\n//     function getUniqueIdsForVoter() public view returns(uint[] memory) {\r\n//     uint[] memory result = new uint[](systemCount);\r\n//     uint counter = 0;\r\n//     for(uint i = 0; i < systemCount; i++) {\r\n//         if(differentSystemVotingDone[i][msg.sender] || checkIfUserExists(i, msg.sender)) {\r\n//             result[counter] = i;\r\n//             counter++;\r\n//         }\r\n//     }\r\n//     return result;\r\n// }\r\n\r\n}",
  "sourcePath": "C:\\Users\\Meet\\OneDrive\\Desktop\\React\\clash_of_codes\\contracts\\Voting.sol",
  "compiler": {
    "name": "solc",
    "version": "0.8.18+commit.87f61d96.Emscripten.clang"
  },
  "schemaVersion": "3.4.13",
  "updatedAt": "2023-03-04T20:27:40.413Z",
  "networkType": "ethereum",
  "devdoc": {
    "kind": "dev",
    "methods": {},
    "version": 1
  },
  "userdoc": {
    "kind": "user",
    "methods": {},
    "version": 1
  }
}