{
  "contractName": "Voting",
  "abi": [
    {
      "inputs": [],
      "stateMutability": "nonpayable",
      "type": "constructor"
    },
    {
      "inputs": [
        {
          "internalType": "uint256",
          "name": "",
          "type": "uint256"
        },
        {
          "internalType": "string",
          "name": "",
          "type": "string"
        }
      ],
      "name": "differentSystemVotes",
      "outputs": [
        {
          "internalType": "uint256",
          "name": "",
          "type": "uint256"
        }
      ],
      "stateMutability": "view",
      "type": "function",
      "constant": true
    },
    {
      "inputs": [],
      "name": "systemCount",
      "outputs": [
        {
          "internalType": "uint256",
          "name": "",
          "type": "uint256"
        }
      ],
      "stateMutability": "view",
      "type": "function",
      "constant": true
    },
    {
      "inputs": [
        {
          "internalType": "uint256",
          "name": "",
          "type": "uint256"
        }
      ],
      "name": "systems",
      "outputs": [
        {
          "internalType": "uint256",
          "name": "uniqueId",
          "type": "uint256"
        },
        {
          "internalType": "string",
          "name": "systemName",
          "type": "string"
        },
        {
          "internalType": "uint256",
          "name": "numberOfCandidates",
          "type": "uint256"
        },
        {
          "internalType": "uint256",
          "name": "votingPeriod",
          "type": "uint256"
        },
        {
          "internalType": "string",
          "name": "electionHelderName",
          "type": "string"
        }
      ],
      "stateMutability": "view",
      "type": "function",
      "constant": true
    },
    {
      "inputs": [
        {
          "internalType": "uint256",
          "name": "_uniqueId",
          "type": "uint256"
        },
        {
          "internalType": "string",
          "name": "_systemName",
          "type": "string"
        },
        {
          "internalType": "uint256",
          "name": "_numberOfCandidates",
          "type": "uint256"
        },
        {
          "internalType": "string[]",
          "name": "_candidates",
          "type": "string[]"
        },
        {
          "internalType": "uint256",
          "name": "numberOfDays",
          "type": "uint256"
        },
        {
          "internalType": "string[]",
          "name": "_votersForElection",
          "type": "string[]"
        },
        {
          "internalType": "string",
          "name": "_electionHelderName",
          "type": "string"
        }
      ],
      "name": "createSystem",
      "outputs": [],
      "stateMutability": "nonpayable",
      "type": "function"
    },
    {
      "inputs": [],
      "name": "showBalance",
      "outputs": [
        {
          "internalType": "uint256",
          "name": "",
          "type": "uint256"
        }
      ],
      "stateMutability": "view",
      "type": "function",
      "constant": true
    },
    {
      "inputs": [
        {
          "internalType": "uint256",
          "name": "_uniqueId",
          "type": "uint256"
        },
        {
          "internalType": "string",
          "name": "_candidateName",
          "type": "string"
        },
        {
          "internalType": "string",
          "name": "_candidateAadhar",
          "type": "string"
        }
      ],
      "name": "voteKarteRaho",
      "outputs": [],
      "stateMutability": "nonpayable",
      "type": "function"
    },
    {
      "inputs": [
        {
          "internalType": "uint256",
          "name": "_uniqueId",
          "type": "uint256"
        }
      ],
      "name": "getCandidates",
      "outputs": [
        {
          "internalType": "string[]",
          "name": "",
          "type": "string[]"
        }
      ],
      "stateMutability": "view",
      "type": "function",
      "constant": true
    },
    {
      "inputs": [
        {
          "internalType": "uint256",
          "name": "_uniqueId",
          "type": "uint256"
        }
      ],
      "name": "getVoters",
      "outputs": [
        {
          "internalType": "string[]",
          "name": "",
          "type": "string[]"
        }
      ],
      "stateMutability": "view",
      "type": "function",
      "constant": true
    },
    {
      "inputs": [],
      "name": "addMoneyToOwner",
      "outputs": [],
      "stateMutability": "payable",
      "type": "function",
      "payable": true
    },
    {
      "inputs": [
        {
          "internalType": "uint256",
          "name": "_uniqueId",
          "type": "uint256"
        }
      ],
      "name": "getWinner",
      "outputs": [
        {
          "internalType": "string",
          "name": "",
          "type": "string"
        }
      ],
      "stateMutability": "view",
      "type": "function",
      "constant": true
    },
    {
      "inputs": [
        {
          "internalType": "string",
          "name": "_voterAddress",
          "type": "string"
        }
      ],
      "name": "getSystemIdsOfVoter",
      "outputs": [
        {
          "internalType": "uint256[]",
          "name": "",
          "type": "uint256[]"
        }
      ],
      "stateMutability": "view",
      "type": "function",
      "constant": true
    }
  ],
  "bytecode": "0x608060405234801561001057600080fd5b5033600560006101000a81548173ffffffffffffffffffffffffffffffffffffffff021916908373ffffffffffffffffffffffffffffffffffffffff16021790555061203c806100616000396000f3fe60806040526004361061009c5760003560e01c80638267642d116100645780638267642d146101b257806384f3f148146101db57806386b646f2146101e5578063b4ed7f7614610222578063c2967b5e1461024b578063cff29c1c146102885761009c565b80630ffca604146100a15780633ab59bb6146100e25780633e39a7a51461010d5780634129b2c91461014a57806381b2d07b14610187575b600080fd5b3480156100ad57600080fd5b506100c860048036038101906100c39190611074565b6102c5565b6040516100d9959493929190611140565b60405180910390f35b3480156100ee57600080fd5b506100f761040b565b60405161010491906111a1565b60405180910390f35b34801561011957600080fd5b50610134600480360381019061012f9190611074565b610411565b60405161014191906112c8565b60405180910390f35b34801561015657600080fd5b50610171600480360381019061016c9190611074565b610500565b60405161017e91906112ea565b60405180910390f35b34801561019357600080fd5b5061019c61075c565b6040516101a991906111a1565b60405180910390f35b3480156101be57600080fd5b506101d960048036038101906101d49190611527565b610764565b005b6101e3610876565b005b3480156101f157600080fd5b5061020c60048036038101906102079190611074565b610957565b60405161021991906112c8565b60405180910390f35b34801561022e57600080fd5b5061024960048036038101906102449190611639565b610a46565b005b34801561025757600080fd5b50610272600480360381019061026d91906116c4565b610a56565b60405161027f91906111a1565b60405180910390f35b34801561029457600080fd5b506102af60048036038101906102aa9190611720565b610a91565b6040516102bc9190611827565b60405180910390f35b60046020528060005260406000206000915090508060000154908060010180546102ee90611878565b80601f016020809104026020016040519081016040528092919081815260200182805461031a90611878565b80156103675780601f1061033c57610100808354040283529160200191610367565b820191906000526020600020905b81548152906001019060200180831161034a57829003601f168201915b50505050509080600201549080600401549080600601805461038890611878565b80601f01602080910402602001604051908101604052809291908181526020018280546103b490611878565b80156104015780601f106103d657610100808354040283529160200191610401565b820191906000526020600020905b8154815290600101906020018083116103e457829003601f168201915b5050505050905085565b60005481565b606060046000838152602001908152602001600020600301805480602002602001604051908101604052809291908181526020016000905b828210156104f557838290600052602060002001805461046890611878565b80601f016020809104026020016040519081016040528092919081815260200182805461049490611878565b80156104e15780601f106104b6576101008083540402835291602001916104e1565b820191906000526020600020905b8154815290600101906020018083116104c457829003601f168201915b505050505081526020019060010190610449565b505050509050919050565b6060600560009054906101000a900473ffffffffffffffffffffffffffffffffffffffff1673ffffffffffffffffffffffffffffffffffffffff163373ffffffffffffffffffffffffffffffffffffffff1614610592576040517f08c379a0000000000000000000000000000000000000000000000000000000008152600401610589906118f5565b60405180910390fd5b426004600084815260200190815260200160002060040154106105ea576040517f08c379a00000000000000000000000000000000000000000000000000000000081526004016105e190611961565b60405180910390fd5b6000606060005b60046000868152602001908152602001600020600201548110156107515760006001600087815260200190815260200160002060046000888152602001908152602001600020600301838154811061064c5761064b611981565b5b906000526020600020016040516106639190611a53565b90815260200160405180910390205490508381111561073d578093506004600087815260200190815260200160002060030182815481106106a7576106a6611981565b5b9060005260206000200180546106bc90611878565b80601f01602080910402602001604051908101604052809291908181526020018280546106e890611878565b80156107355780601f1061070a57610100808354040283529160200191610735565b820191906000526020600020905b81548152906001019060200180831161071857829003601f168201915b505050505092505b50808061074990611a99565b9150506105f1565b508092505050919050565b600047905090565b600062015180846107759190611ae1565b426107809190611b23565b905060006040518060e001604052808a815260200189815260200188815260200187815260200183815260200185815260200184815250905080600460008b81526020019081526020016000206000820151816000015560208201518160010190816107ec9190611cee565b50604082015181600201556060820151816003019080519060200190610813929190610f50565b506080820151816004015560a082015181600501908051906020019061083a929190610f50565b5060c08201518160060190816108509190611cee565b5090505060008081548092919061086690611a99565b9190505550505050505050505050565b600560009054906101000a900473ffffffffffffffffffffffffffffffffffffffff1673ffffffffffffffffffffffffffffffffffffffff163373ffffffffffffffffffffffffffffffffffffffff1614610906576040517f08c379a00000000000000000000000000000000000000000000000000000000081526004016108fd906118f5565b60405180910390fd5b3373ffffffffffffffffffffffffffffffffffffffff166108fc670de0b6b3a76400009081150290604051600060405180830381858888f19350505050158015610954573d6000803e3d6000fd5b50565b606060046000838152602001908152602001600020600501805480602002602001604051908101604052809291908181526020016000905b82821015610a3b5783829060005260206000200180546109ae90611878565b80601f01602080910402602001604051908101604052809291908181526020018280546109da90611878565b8015610a275780601f106109fc57610100808354040283529160200191610a27565b820191906000526020600020905b815481529060010190602001808311610a0a57829003601f168201915b50505050508152602001906001019061098f565b505050509050919050565b610a51838383610be5565b505050565b600160205281600052604060002081805160208101820180518482526020830160208501208183528095505050505050600091509150505481565b60606000805467ffffffffffffffff811115610ab057610aaf611316565b5b604051908082528060200260200182016040528015610ade5781602001602082028036833780820191505090505b509050600080600190505b6000548111610bda5760005b6004600083815260200190815260200160002060050180549050811015610bc6578580519060200120600460008481526020019081526020016000206005018281548110610b4657610b45611981565b5b90600052602060002001604051610b5d9190611e63565b604051809103902003610bb3576004600083815260200190815260200160002060000154848481518110610b9457610b93611981565b5b6020026020010181815250508280610bab90611a99565b935050610bc6565b8080610bbe90611a99565b915050610af5565b508080610bd290611a99565b915050610ae9565b508192505050919050565b610bef8382610eaa565b610c2e576040517f08c379a0000000000000000000000000000000000000000000000000000000008152600401610c2590611ec6565b60405180910390fd5b600015156002600085815260200190815260200160002060003373ffffffffffffffffffffffffffffffffffffffff1673ffffffffffffffffffffffffffffffffffffffff16815260200190815260200160002060009054906101000a900460ff16151514610cd2576040517f08c379a0000000000000000000000000000000000000000000000000000000008152600401610cc990611f32565b60405180910390fd5b600015156003600085815260200190815260200160002082604051610cf79190611f83565b908152602001604051809103902060009054906101000a900460ff16151514610d55576040517f08c379a0000000000000000000000000000000000000000000000000000000008152600401610d4c90611f32565b60405180910390fd5b4260046000858152602001908152602001600020600401541015610dae576040517f08c379a0000000000000000000000000000000000000000000000000000000008152600401610da590611fe6565b60405180910390fd5b600180600085815260200190815260200160002083604051610dd09190611f83565b90815260200160405180910390206000828254610ded9190611b23565b9250508190555060016002600085815260200190815260200160002060003373ffffffffffffffffffffffffffffffffffffffff1673ffffffffffffffffffffffffffffffffffffffff16815260200190815260200160002060006101000a81548160ff02191690831515021790555060016003600085815260200190815260200160002082604051610e809190611f83565b908152602001604051809103902060006101000a81548160ff021916908315150217905550505050565b600080600090505b6004600085815260200190815260200160002060050180549050811015610f44578280519060200120600460008681526020019081526020016000206005018281548110610f0357610f02611981565b5b90600052602060002001604051610f1a9190611e63565b604051809103902003610f31576001915050610f4a565b8080610f3c90611a99565b915050610eb2565b50600090505b92915050565b828054828255906000526020600020908101928215610f98579160200282015b82811115610f97578251829081610f879190611cee565b5091602001919060010190610f70565b5b509050610fa59190610fa9565b5090565b5b80821115610fc95760008181610fc09190610fcd565b50600101610faa565b5090565b508054610fd990611878565b6000825580601f10610feb575061100a565b601f016020900490600052602060002090810190611009919061100d565b5b50565b5b8082111561102657600081600090555060010161100e565b5090565b6000604051905090565b600080fd5b600080fd5b6000819050919050565b6110518161103e565b811461105c57600080fd5b50565b60008135905061106e81611048565b92915050565b60006020828403121561108a57611089611034565b5b60006110988482850161105f565b91505092915050565b6110aa8161103e565b82525050565b600081519050919050565b600082825260208201905092915050565b60005b838110156110ea5780820151818401526020810190506110cf565b60008484015250505050565b6000601f19601f8301169050919050565b6000611112826110b0565b61111c81856110bb565b935061112c8185602086016110cc565b611135816110f6565b840191505092915050565b600060a08201905061115560008301886110a1565b81810360208301526111678187611107565b905061117660408301866110a1565b61118360608301856110a1565b81810360808301526111958184611107565b90509695505050505050565b60006020820190506111b660008301846110a1565b92915050565b600081519050919050565b600082825260208201905092915050565b6000819050602082019050919050565b600082825260208201905092915050565b6000611204826110b0565b61120e81856111e8565b935061121e8185602086016110cc565b611227816110f6565b840191505092915050565b600061123e83836111f9565b905092915050565b6000602082019050919050565b600061125e826111bc565b61126881856111c7565b93508360208202850161127a856111d8565b8060005b858110156112b657848403895281516112978582611232565b94506112a283611246565b925060208a0199505060018101905061127e565b50829750879550505050505092915050565b600060208201905081810360008301526112e28184611253565b905092915050565b600060208201905081810360008301526113048184611107565b905092915050565b600080fd5b600080fd5b7f4e487b7100000000000000000000000000000000000000000000000000000000600052604160045260246000fd5b61134e826110f6565b810181811067ffffffffffffffff8211171561136d5761136c611316565b5b80604052505050565b600061138061102a565b905061138c8282611345565b919050565b600067ffffffffffffffff8211156113ac576113ab611316565b5b6113b5826110f6565b9050602081019050919050565b82818337600083830152505050565b60006113e46113df84611391565b611376565b905082815260208101848484011115611400576113ff611311565b5b61140b8482856113c2565b509392505050565b600082601f8301126114285761142761130c565b5b81356114388482602086016113d1565b91505092915050565b600067ffffffffffffffff82111561145c5761145b611316565b5b602082029050602081019050919050565b600080fd5b600061148561148084611441565b611376565b905080838252602082019050602084028301858111156114a8576114a761146d565b5b835b818110156114ef57803567ffffffffffffffff8111156114cd576114cc61130c565b5b8086016114da8982611413565b855260208501945050506020810190506114aa565b5050509392505050565b600082601f83011261150e5761150d61130c565b5b813561151e848260208601611472565b91505092915050565b600080600080600080600060e0888a03121561154657611545611034565b5b60006115548a828b0161105f565b975050602088013567ffffffffffffffff81111561157557611574611039565b5b6115818a828b01611413565b96505060406115928a828b0161105f565b955050606088013567ffffffffffffffff8111156115b3576115b2611039565b5b6115bf8a828b016114f9565b94505060806115d08a828b0161105f565b93505060a088013567ffffffffffffffff8111156115f1576115f0611039565b5b6115fd8a828b016114f9565b92505060c088013567ffffffffffffffff81111561161e5761161d611039565b5b61162a8a828b01611413565b91505092959891949750929550565b60008060006060848603121561165257611651611034565b5b60006116608682870161105f565b935050602084013567ffffffffffffffff81111561168157611680611039565b5b61168d86828701611413565b925050604084013567ffffffffffffffff8111156116ae576116ad611039565b5b6116ba86828701611413565b9150509250925092565b600080604083850312156116db576116da611034565b5b60006116e98582860161105f565b925050602083013567ffffffffffffffff81111561170a57611709611039565b5b61171685828601611413565b9150509250929050565b60006020828403121561173657611735611034565b5b600082013567ffffffffffffffff81111561175457611753611039565b5b61176084828501611413565b91505092915050565b600081519050919050565b600082825260208201905092915050565b6000819050602082019050919050565b61179e8161103e565b82525050565b60006117b08383611795565b60208301905092915050565b6000602082019050919050565b60006117d482611769565b6117de8185611774565b93506117e983611785565b8060005b8381101561181a57815161180188826117a4565b975061180c836117bc565b9250506001810190506117ed565b5085935050505092915050565b6000602082019050818103600083015261184181846117c9565b905092915050565b7f4e487b7100000000000000000000000000000000000000000000000000000000600052602260045260246000fd5b6000600282049050600182168061189057607f821691505b6020821081036118a3576118a2611849565b5b50919050565b7f4e6f7420417574686f72697a6564000000000000000000000000000000000000600082015250565b60006118df600e836110bb565b91506118ea826118a9565b602082019050919050565b6000602082019050818103600083015261190e816118d2565b9050919050565b7f566f74696e6720706572696f6420686173206e6f7420656e6465642079657400600082015250565b600061194b601f836110bb565b915061195682611915565b602082019050919050565b6000602082019050818103600083015261197a8161193e565b9050919050565b7f4e487b7100000000000000000000000000000000000000000000000000000000600052603260045260246000fd5b600081905092915050565b60008190508160005260206000209050919050565b600081546119dd81611878565b6119e781866119b0565b94506001821660008114611a025760018114611a1757611a4a565b60ff1983168652811515820286019350611a4a565b611a20856119bb565b60005b83811015611a4257815481890152600182019150602081019050611a23565b838801955050505b50505092915050565b6000611a5f82846119d0565b915081905092915050565b7f4e487b7100000000000000000000000000000000000000000000000000000000600052601160045260246000fd5b6000611aa48261103e565b91507fffffffffffffffffffffffffffffffffffffffffffffffffffffffffffffffff8203611ad657611ad5611a6a565b5b600182019050919050565b6000611aec8261103e565b9150611af78361103e565b9250828202611b058161103e565b91508282048414831517611b1c57611b1b611a6a565b5b5092915050565b6000611b2e8261103e565b9150611b398361103e565b9250828201905080821115611b5157611b50611a6a565b5b92915050565b60006020601f8301049050919050565b600082821b905092915050565b600060088302611ba47fffffffffffffffffffffffffffffffffffffffffffffffffffffffffffffffff82611b67565b611bae8683611b67565b95508019841693508086168417925050509392505050565b6000819050919050565b6000611beb611be6611be18461103e565b611bc6565b61103e565b9050919050565b6000819050919050565b611c0583611bd0565b611c19611c1182611bf2565b848454611b74565b825550505050565b600090565b611c2e611c21565b611c39818484611bfc565b505050565b5b81811015611c5d57611c52600082611c26565b600181019050611c3f565b5050565b601f821115611ca257611c73816119bb565b611c7c84611b57565b81016020851015611c8b578190505b611c9f611c9785611b57565b830182611c3e565b50505b505050565b600082821c905092915050565b6000611cc560001984600802611ca7565b1980831691505092915050565b6000611cde8383611cb4565b9150826002028217905092915050565b611cf7826110b0565b67ffffffffffffffff811115611d1057611d0f611316565b5b611d1a8254611878565b611d25828285611c61565b600060209050601f831160018114611d585760008415611d46578287015190505b611d508582611cd2565b865550611db8565b601f198416611d66866119bb565b60005b82811015611d8e57848901518255600182019150602085019450602081019050611d69565b86831015611dab5784890151611da7601f891682611cb4565b8355505b6001600288020188555050505b505050505050565b600081905092915050565b60008190508160005260206000209050919050565b60008154611ded81611878565b611df78186611dc0565b94506001821660008114611e125760018114611e2757611e5a565b60ff1983168652811515820286019350611e5a565b611e3085611dcb565b60005b83811015611e5257815481890152600182019150602081019050611e33565b838801955050505b50505092915050565b6000611e6f8284611de0565b915081905092915050565b7f596f7520617265206e6f7420417574686f72697a656420746f20566f74650000600082015250565b6000611eb0601e836110bb565b9150611ebb82611e7a565b602082019050919050565b60006020820190508181036000830152611edf81611ea3565b9050919050565b7f596f75206861766520616c726561647920566f74656400000000000000000000600082015250565b6000611f1c6016836110bb565b9150611f2782611ee6565b602082019050919050565b60006020820190508181036000830152611f4b81611f0f565b9050919050565b6000611f5d826110b0565b611f6781856119b0565b9350611f778185602086016110cc565b80840191505092915050565b6000611f8f8284611f52565b915081905092915050565b7f54686520766f74696e672074696d65206973204f766572210000000000000000600082015250565b6000611fd06018836110bb565b9150611fdb82611f9a565b602082019050919050565b60006020820190508181036000830152611fff81611fc3565b905091905056fea2646970667358221220a0e3e9da24e2230000230a2c475bee9f62ee441b40d43a450c31e2e5cc0d8c2064736f6c63430008130033",
  "immutableReferences": {},
  "source": "// SPDX-License-Identifier: GPL-3.0\r\n\r\npragma solidity >=0.7.0 <0.9.0;\r\n// import \"@openzeppelin/contracts/utils/Strings.sol\";\r\n\r\ncontract Voting{\r\n    // using Strings for string;\r\n    uint public systemCount;\r\n    struct VotingSystem{\r\n        uint uniqueId;\r\n        string systemName;\r\n        uint numberOfCandidates;\r\n        string[] candidates;\r\n        uint votingPeriod;       \r\n        string[] votersForElection;\r\n        string electionHelderName;\r\n    }\r\n\r\n    mapping (uint => mapping (string => uint)) public differentSystemVotes;\r\n    mapping (uint => mapping (address => bool)) differentSystemVotingDone;\r\n    mapping (uint => mapping (string => bool)) differentPanCardsVoting;\r\n    mapping (uint => VotingSystem) public systems;\r\n\r\n    function createSystem(uint _uniqueId, string memory _systemName, uint _numberOfCandidates, string[] memory _candidates,uint numberOfDays,string[] memory _votersForElection, string memory _electionHelderName) public   {\r\n        uint _votingPeriod = block.timestamp + (numberOfDays * 1 days);\r\n        VotingSystem memory system =  VotingSystem(_uniqueId,_systemName,_numberOfCandidates,_candidates,_votingPeriod,_votersForElection,_electionHelderName);\r\n        systems[_uniqueId] = system;\r\n        systemCount++;\r\n    }\r\n\r\n    address payable owner;\r\n    mapping (address => uint) votingDone;\r\n  \r\n    constructor() {\r\n        owner = payable(msg.sender);\r\n    }\r\n\r\n\r\n    function showBalance() public view returns(uint) {\r\n        return address(this).balance;\r\n    }\r\n\r\n    function voteKarteRaho(uint _uniqueId,string memory _candidateName,string memory _candidateAadhar) public  {\r\n        voteNow(_uniqueId,_candidateName,_candidateAadhar);\r\n    }\r\n\r\n    function checkIfUserExists(uint _uniqueId,string memory _candidateAadhar) internal view returns(bool){\r\n        for(uint i=0;i<systems[_uniqueId].votersForElection.length;i++){\r\n            if (keccak256(bytes(systems[_uniqueId].votersForElection[i])) == keccak256(bytes(_candidateAadhar))){\r\n                return true;\r\n            }\r\n        }\r\n        return false;\r\n    }\r\n\r\n    function voteNow(uint _uniqueId,string memory _candidateName,string memory _candidateAadhar) internal{\r\n        require(checkIfUserExists(_uniqueId, _candidateAadhar),\"You are not Authorized to Vote\");\r\n        require(differentSystemVotingDone[_uniqueId][msg.sender]==false,\"You have already Voted\");\r\n        require(differentPanCardsVoting[_uniqueId][_candidateAadhar]==false,\"You have already Voted\");\r\n        require(systems[_uniqueId].votingPeriod >= block.timestamp, \"The voting time is Over!\");\r\n        differentSystemVotes[_uniqueId][_candidateName] +=1;\r\n        differentSystemVotingDone[_uniqueId][msg.sender] = true;\r\n        differentPanCardsVoting[_uniqueId][_candidateAadhar]=true;\r\n    }\r\n\r\n    function getCandidates(uint _uniqueId) public view returns (string[] memory)  {\r\n        return systems[_uniqueId].candidates;\r\n    }\r\n\r\n    function getVoters(uint _uniqueId) public view returns (string[] memory)  {\r\n        return systems[_uniqueId].votersForElection;\r\n    }\r\n\r\n    function addMoneyToOwner() public payable{\r\n        require(msg.sender == owner, \"Not Authorized\");\r\n        payable(msg.sender).transfer(1 ether);\r\n    }\r\n\r\n    function getWinner(uint _uniqueId) public view returns (string memory) {\r\n        require(msg.sender == owner, \"Not Authorized\");\r\n        require(systems[_uniqueId].votingPeriod < block.timestamp, \"Voting period has not ended yet\");\r\n\r\n        uint maxVotes = 0;\r\n        string memory winner;\r\n\r\n        for (uint i = 0; i < systems[_uniqueId].numberOfCandidates; i++) {\r\n            uint candidateVotes = differentSystemVotes[_uniqueId][systems[_uniqueId].candidates[i]];\r\n            if (candidateVotes > maxVotes) {\r\n                maxVotes = candidateVotes;\r\n                winner = systems[_uniqueId].candidates[i];\r\n            }\r\n        }\r\n        return winner;\r\n    }\r\n\r\n    function getSystemIdsOfVoter(string memory _voterAddress) public view returns (uint[] memory) {\r\n        uint[] memory systemIds = new uint[](systemCount);\r\n        uint systemIndex = 0;\r\n        for (uint i = 1; i <= systemCount; i++) {\r\n            for (uint j = 0; j < systems[i].votersForElection.length; j++) {\r\n                if (keccak256(bytes(systems[i].votersForElection[j])) == keccak256(bytes(_voterAddress))) {\r\n                    systemIds[systemIndex] = systems[i].uniqueId;\r\n                    systemIndex++;\r\n                    break;\r\n                }\r\n            }\r\n        }\r\n        return systemIds;\r\n    }\r\n//     function getUniqueIdsForVoter() public view returns(uint[] memory) {\r\n//     uint[] memory result = new uint[](systemCount);\r\n//     uint counter = 0;\r\n//     for(uint i = 0; i < systemCount; i++) {\r\n//         if(differentSystemVotingDone[i][msg.sender] || checkIfUserExists(i, msg.sender)) {\r\n//             result[counter] = i;\r\n//             counter++;\r\n//         }\r\n//     }\r\n//     return result;\r\n// }\r\n\r\n}",
  "sourcePath": "C:\\Users\\Anish Kulkarni\\Blockchain\\ClashOfCodes_BlockVote\\src\\contracts\\Voting.sol",
  "compiler": {
    "name": "solc",
    "version": "0.8.19+commit.7dd6d404.Emscripten.clang"
  },
  "schemaVersion": "3.4.12",
  "updatedAt": "2023-03-04T13:22:48.961Z",
  "networkType": "ethereum",
  "devdoc": {
    "kind": "dev",
    "methods": {},
    "version": 1
  },
  "userdoc": {
    "kind": "user",
    "methods": {},
    "version": 1
  }
}