{
  "contractName": "ApprovalVoting",
  "abi": [
    {
      "inputs": [],
      "stateMutability": "nonpayable",
      "type": "constructor"
    },
    {
      "inputs": [
        {
          "internalType": "uint256",
          "name": "",
          "type": "uint256"
        },
        {
          "internalType": "string",
          "name": "",
          "type": "string"
        }
      ],
      "name": "differentSystemVotes",
      "outputs": [
        {
          "internalType": "uint256",
          "name": "",
          "type": "uint256"
        }
      ],
      "stateMutability": "view",
      "type": "function"
    },
    {
      "inputs": [],
      "name": "systemCount",
      "outputs": [
        {
          "internalType": "uint256",
          "name": "",
          "type": "uint256"
        }
      ],
      "stateMutability": "view",
      "type": "function"
    },
    {
      "inputs": [
        {
          "internalType": "uint256",
          "name": "",
          "type": "uint256"
        }
      ],
      "name": "systems",
      "outputs": [
        {
          "internalType": "uint256",
          "name": "uniqueId",
          "type": "uint256"
        },
        {
          "internalType": "string",
          "name": "systemName",
          "type": "string"
        },
        {
          "internalType": "uint256",
          "name": "numberOfCandidates",
          "type": "uint256"
        },
        {
          "internalType": "uint256",
          "name": "votingPeriod",
          "type": "uint256"
        },
        {
          "internalType": "string",
          "name": "electionHelderName",
          "type": "string"
        },
        {
          "internalType": "string",
          "name": "description",
          "type": "string"
        }
      ],
      "stateMutability": "view",
      "type": "function"
    },
    {
      "inputs": [
        {
          "internalType": "uint256",
          "name": "_uniqueId",
          "type": "uint256"
        }
      ],
      "name": "getSystemDetails",
      "outputs": [
        {
          "internalType": "uint256",
          "name": "",
          "type": "uint256"
        },
        {
          "internalType": "string",
          "name": "",
          "type": "string"
        },
        {
          "internalType": "uint256",
          "name": "",
          "type": "uint256"
        },
        {
          "internalType": "string[]",
          "name": "",
          "type": "string[]"
        },
        {
          "internalType": "uint256",
          "name": "",
          "type": "uint256"
        },
        {
          "internalType": "string[]",
          "name": "",
          "type": "string[]"
        },
        {
          "internalType": "string",
          "name": "",
          "type": "string"
        },
        {
          "internalType": "string",
          "name": "",
          "type": "string"
        }
      ],
      "stateMutability": "view",
      "type": "function"
    },
    {
      "inputs": [
        {
          "internalType": "uint256",
          "name": "_uniqueId",
          "type": "uint256"
        },
        {
          "internalType": "string",
          "name": "_systemName",
          "type": "string"
        },
        {
          "internalType": "uint256",
          "name": "_numberOfCandidates",
          "type": "uint256"
        },
        {
          "internalType": "string[]",
          "name": "_candidates",
          "type": "string[]"
        },
        {
          "internalType": "uint256",
          "name": "numberOfDays",
          "type": "uint256"
        },
        {
          "internalType": "string[]",
          "name": "_votersForElection",
          "type": "string[]"
        },
        {
          "internalType": "string",
          "name": "_electionHelderName",
          "type": "string"
        },
        {
          "internalType": "string",
          "name": "_description",
          "type": "string"
        }
      ],
      "name": "createSystem",
      "outputs": [],
      "stateMutability": "nonpayable",
      "type": "function"
    },
    {
      "inputs": [],
      "name": "showBalance",
      "outputs": [
        {
          "internalType": "uint256",
          "name": "",
          "type": "uint256"
        }
      ],
      "stateMutability": "view",
      "type": "function"
    },
    {
      "inputs": [
        {
          "internalType": "uint256",
          "name": "_uniqueId",
          "type": "uint256"
        },
        {
          "internalType": "string",
          "name": "_candidateName",
          "type": "string"
        },
        {
          "internalType": "string",
          "name": "_candidateAadhar",
          "type": "string"
        }
      ],
      "name": "voteKarteRaho",
      "outputs": [],
      "stateMutability": "nonpayable",
      "type": "function"
    },
    {
      "inputs": [
        {
          "internalType": "uint256",
          "name": "_uniqueId",
          "type": "uint256"
        }
      ],
      "name": "getCandidates",
      "outputs": [
        {
          "internalType": "string[]",
          "name": "",
          "type": "string[]"
        }
      ],
      "stateMutability": "view",
      "type": "function"
    },
    {
      "inputs": [
        {
          "internalType": "uint256",
          "name": "_uniqueId",
          "type": "uint256"
        }
      ],
      "name": "getVoters",
      "outputs": [
        {
          "internalType": "string[]",
          "name": "",
          "type": "string[]"
        }
      ],
      "stateMutability": "view",
      "type": "function"
    },
    {
      "inputs": [],
      "name": "addMoneyToOwner",
      "outputs": [],
      "stateMutability": "payable",
      "type": "function"
    },
    {
      "inputs": [
        {
          "internalType": "uint256",
          "name": "_uniqueId",
          "type": "uint256"
        }
      ],
      "name": "getWinner",
      "outputs": [
        {
          "internalType": "string",
          "name": "",
          "type": "string"
        }
      ],
      "stateMutability": "view",
      "type": "function"
    },
    {
      "inputs": [
        {
          "internalType": "string",
          "name": "_voterAddress",
          "type": "string"
        }
      ],
      "name": "getSystemIdsOfVoter",
      "outputs": [
        {
          "internalType": "uint256[]",
          "name": "",
          "type": "uint256[]"
        }
      ],
      "stateMutability": "view",
      "type": "function"
    },
    {
      "inputs": [
        {
          "internalType": "uint256",
          "name": "_uniqueId",
          "type": "uint256"
        },
        {
          "internalType": "string",
          "name": "_voterAadhar",
          "type": "string"
        }
      ],
      "name": "getOtherCandidates",
      "outputs": [
        {
          "internalType": "string[]",
          "name": "",
          "type": "string[]"
        }
      ],
      "stateMutability": "view",
      "type": "function"
    },
    {
      "inputs": [
        {
          "internalType": "uint256",
          "name": "uniqueId",
          "type": "uint256"
        }
      ],
      "name": "getCandidateVoteCounts",
      "outputs": [
        {
          "internalType": "uint256[]",
          "name": "",
          "type": "uint256[]"
        }
      ],
      "stateMutability": "view",
      "type": "function"
    },
    {
      "inputs": [
        {
          "internalType": "uint256",
          "name": "_uniqueId",
          "type": "uint256"
        }
      ],
      "name": "getTimeRemaining",
      "outputs": [
        {
          "internalType": "uint256",
          "name": "",
          "type": "uint256"
        }
      ],
      "stateMutability": "view",
      "type": "function"
    }
  ],
  "bytecode": "0x608060405234801561001057600080fd5b5033600560006101000a81548173ffffffffffffffffffffffffffffffffffffffff021916908373ffffffffffffffffffffffffffffffffffffffff160217905550612b6d806100616000396000f3fe6080604052600436106100e85760003560e01c806384f3f1481161008a578063b4ed7f7611610059578063b4ed7f7614610326578063c2967b5e1461034f578063cd9cf1041461038c578063cff29c1c146103d0576100e8565b806384f3f1481461026557806386b646f21461026f5780638cd42991146102ac5780639baafbcf146102e9576100e8565b80633ab59bb6116100c65780633ab59bb6146101955780633e39a7a5146101c05780634129b2c9146101fd57806381b2d07b1461023a576100e8565b80630ffca604146100ed578063269068271461012f5780632b22d0f514610158575b600080fd5b3480156100f957600080fd5b50610114600480360381019061010f91906119b3565b61040d565b60405161012696959493929190611a7f565b60405180910390f35b34801561013b57600080fd5b5061015660048036038101906101519190611d10565b6105e1565b005b34801561016457600080fd5b5061017f600480360381019061017a9190611e52565b610711565b60405161018c9190611fba565b60405180910390f35b3480156101a157600080fd5b506101aa610940565b6040516101b79190611fdc565b60405180910390f35b3480156101cc57600080fd5b506101e760048036038101906101e291906119b3565b610946565b6040516101f49190611fba565b60405180910390f35b34801561020957600080fd5b50610224600480360381019061021f91906119b3565b610a35565b6040516102319190611ff7565b60405180910390f35b34801561024657600080fd5b5061024f610c91565b60405161025c9190611fdc565b60405180910390f35b61026d610c99565b005b34801561027b57600080fd5b50610296600480360381019061029191906119b3565b610d7a565b6040516102a39190611fba565b60405180910390f35b3480156102b857600080fd5b506102d360048036038101906102ce91906119b3565b610e69565b6040516102e09190611fdc565b60405180910390f35b3480156102f557600080fd5b50610310600480360381019061030b91906119b3565b610f4a565b60405161031d91906120d7565b60405180910390f35b34801561033257600080fd5b5061034d600480360381019061034891906120f9565b6110b0565b005b34801561035b57600080fd5b5061037660048036038101906103719190611e52565b6110c0565b6040516103839190611fdc565b60405180910390f35b34801561039857600080fd5b506103b360048036038101906103ae91906119b3565b6110fb565b6040516103c7989796959493929190612184565b60405180910390f35b3480156103dc57600080fd5b506103f760048036038101906103f29190612225565b6114f7565b60405161040491906120d7565b60405180910390f35b60046020528060005260406000206000915090508060000154908060010180546104369061229d565b80601f01602080910402602001604051908101604052809291908181526020018280546104629061229d565b80156104af5780601f10610484576101008083540402835291602001916104af565b820191906000526020600020905b81548152906001019060200180831161049257829003601f168201915b5050505050908060020154908060040154908060060180546104d09061229d565b80601f01602080910402602001604051908101604052809291908181526020018280546104fc9061229d565b80156105495780601f1061051e57610100808354040283529160200191610549565b820191906000526020600020905b81548152906001019060200180831161052c57829003601f168201915b50505050509080600701805461055e9061229d565b80601f016020809104026020016040519081016040528092919081815260200182805461058a9061229d565b80156105d75780601f106105ac576101008083540402835291602001916105d7565b820191906000526020600020905b8154815290600101906020018083116105ba57829003601f168201915b5050505050905086565b600062015180856105f291906122fd565b426105fd919061233f565b905060006040518061010001604052808b81526020018a815260200189815260200188815260200183815260200186815260200185815260200184815250905080600460008c8152602001908152602001600020600082015181600001556020820151816001019081610670919061251f565b5060408201518160020155606082015181600301908051906020019061069792919061188f565b506080820151816004015560a08201518160050190805190602001906106be92919061188f565b5060c08201518160060190816106d4919061251f565b5060e08201518160070190816106ea919061251f565b50905050600080815480929190610700906125f1565b919050555050505050505050505050565b6060600060046000858152602001908152602001600020600301805480602002602001604051908101604052809291908181526020016000905b828210156107f757838290600052602060002001805461076a9061229d565b80601f01602080910402602001604051908101604052809291908181526020018280546107969061229d565b80156107e35780601f106107b8576101008083540402835291602001916107e3565b820191906000526020600020905b8154815290600101906020018083116107c657829003601f168201915b50505050508152602001906001019061074b565b50505050905060006004600086815260200190815260200160002060020154905060006001826108279190612639565b67ffffffffffffffff8111156108405761083f611aff565b5b60405190808252806020026020018201604052801561087357816020015b606081526020019060019003908161085e5790505b5090506000805b83811015610932578680519060200120600460008a815260200190815260200160002060050182815481106108b2576108b161266d565b5b906000526020600020016040516108c9919061273f565b6040518091039020031561091f578481815181106108ea576108e961266d565b5b60200260200101518383815181106109055761090461266d565b5b6020026020010181905250818061091b906125f1565b9250505b808061092a906125f1565b91505061087a565b508194505050505092915050565b60005481565b606060046000838152602001908152602001600020600301805480602002602001604051908101604052809291908181526020016000905b82821015610a2a57838290600052602060002001805461099d9061229d565b80601f01602080910402602001604051908101604052809291908181526020018280546109c99061229d565b8015610a165780601f106109eb57610100808354040283529160200191610a16565b820191906000526020600020905b8154815290600101906020018083116109f957829003601f168201915b50505050508152602001906001019061097e565b505050509050919050565b6060600560009054906101000a900473ffffffffffffffffffffffffffffffffffffffff1673ffffffffffffffffffffffffffffffffffffffff163373ffffffffffffffffffffffffffffffffffffffff1614610ac7576040517f08c379a0000000000000000000000000000000000000000000000000000000008152600401610abe906127a2565b60405180910390fd5b42600460008481526020019081526020016000206004015410610b1f576040517f08c379a0000000000000000000000000000000000000000000000000000000008152600401610b169061280e565b60405180910390fd5b6000606060005b6004600086815260200190815260200160002060020154811015610c8657600060016000878152602001908152602001600020600460008881526020019081526020016000206003018381548110610b8157610b8061266d565b5b90600052602060002001604051610b9891906128bc565b908152602001604051809103902054905083811115610c7257809350600460008781526020019081526020016000206003018281548110610bdc57610bdb61266d565b5b906000526020600020018054610bf19061229d565b80601f0160208091040260200160405190810160405280929190818152602001828054610c1d9061229d565b8015610c6a5780601f10610c3f57610100808354040283529160200191610c6a565b820191906000526020600020905b815481529060010190602001808311610c4d57829003601f168201915b505050505092505b508080610c7e906125f1565b915050610b26565b508092505050919050565b600047905090565b600560009054906101000a900473ffffffffffffffffffffffffffffffffffffffff1673ffffffffffffffffffffffffffffffffffffffff163373ffffffffffffffffffffffffffffffffffffffff1614610d29576040517f08c379a0000000000000000000000000000000000000000000000000000000008152600401610d20906127a2565b60405180910390fd5b3373ffffffffffffffffffffffffffffffffffffffff166108fc670de0b6b3a76400009081150290604051600060405180830381858888f19350505050158015610d77573d6000803e3d6000fd5b50565b606060046000838152602001908152602001600020600501805480602002602001604051908101604052809291908181526020016000905b82821015610e5e578382906000526020600020018054610dd19061229d565b80601f0160208091040260200160405190810160405280929190818152602001828054610dfd9061229d565b8015610e4a5780601f10610e1f57610100808354040283529160200191610e4a565b820191906000526020600020905b815481529060010190602001808311610e2d57829003601f168201915b505050505081526020019060010190610db2565b505050509050919050565b600080600460008481526020019081526020016000206004015411610ec3576040517f08c379a0000000000000000000000000000000000000000000000000000000008152600401610eba9061291f565b60405180910390fd5b42600460008481526020019081526020016000206004015411610f1b576040517f08c379a0000000000000000000000000000000000000000000000000000000008152600401610f129061298b565b60405180910390fd5b6000426004600085815260200190815260200160002060040154610f3f9190612639565b905080915050919050565b606060008203610f8f576040517f08c379a0000000000000000000000000000000000000000000000000000000008152600401610f86906129f7565b60405180910390fd5b6000600460008481526020019081526020016000206002015467ffffffffffffffff811115610fc157610fc0611aff565b5b604051908082528060200260200182016040528015610fef5781602001602082028036833780820191505090505b50905060005b60046000858152602001908152602001600020600201548110156110a6576001600085815260200190815260200160002060046000868152602001908152602001600020600301828154811061104e5761104d61266d565b5b9060005260206000200160405161106591906128bc565b9081526020016040518091039020548282815181106110875761108661266d565b5b602002602001018181525050808061109e906125f1565b915050610ff5565b5080915050919050565b6110bb83838361164b565b505050565b600160205281600052604060002081805160208101820180518482526020830160208501208183528095505050505050600091509150505481565b6000606060006060600060608060606000600460008b815260200190815260200160002060405180610100016040529081600082015481526020016001820180546111459061229d565b80601f01602080910402602001604051908101604052809291908181526020018280546111719061229d565b80156111be5780601f10611193576101008083540402835291602001916111be565b820191906000526020600020905b8154815290600101906020018083116111a157829003601f168201915b505050505081526020016002820154815260200160038201805480602002602001604051908101604052809291908181526020016000905b828210156112a25783829060005260206000200180546112159061229d565b80601f01602080910402602001604051908101604052809291908181526020018280546112419061229d565b801561128e5780601f106112635761010080835404028352916020019161128e565b820191906000526020600020905b81548152906001019060200180831161127157829003601f168201915b5050505050815260200190600101906111f6565b5050505081526020016004820154815260200160058201805480602002602001604051908101604052809291908181526020016000905b828210156113855783829060005260206000200180546112f89061229d565b80601f01602080910402602001604051908101604052809291908181526020018280546113249061229d565b80156113715780601f1061134657610100808354040283529160200191611371565b820191906000526020600020905b81548152906001019060200180831161135457829003601f168201915b5050505050815260200190600101906112d9565b50505050815260200160068201805461139d9061229d565b80601f01602080910402602001604051908101604052809291908181526020018280546113c99061229d565b80156114165780601f106113eb57610100808354040283529160200191611416565b820191906000526020600020905b8154815290600101906020018083116113f957829003601f168201915b5050505050815260200160078201805461142f9061229d565b80601f016020809104026020016040519081016040528092919081815260200182805461145b9061229d565b80156114a85780601f1061147d576101008083540402835291602001916114a8565b820191906000526020600020905b81548152906001019060200180831161148b57829003601f168201915b5050505050815250509050806000015181602001518260400151836060015184608001518560a001518660c001518760e001519850985098509850985098509850985050919395975091939597565b60606000805467ffffffffffffffff81111561151657611515611aff565b5b6040519080825280602002602001820160405280156115445781602001602082028036833780820191505090505b509050600080600190505b60005481116116405760005b600460008381526020019081526020016000206005018054905081101561162c5785805190602001206004600084815260200190815260200160002060050182815481106115ac576115ab61266d565b5b906000526020600020016040516115c3919061273f565b6040518091039020036116195760046000838152602001908152602001600020600001548484815181106115fa576115f961266d565b5b6020026020010181815250508280611611906125f1565b93505061162c565b8080611624906125f1565b91505061155b565b508080611638906125f1565b91505061154f565b508192505050919050565b61165583826117e9565b611694576040517f08c379a000000000000000000000000000000000000000000000000000000000815260040161168b90612a63565b60405180910390fd5b42600460008581526020019081526020016000206004015410156116ed576040517f08c379a00000000000000000000000000000000000000000000000000000000081526004016116e490612acf565b60405180910390fd5b60018060008581526020019081526020016000208360405161170f9190612b20565b9081526020016040518091039020600082825461172c919061233f565b9250508190555060016002600085815260200190815260200160002060003373ffffffffffffffffffffffffffffffffffffffff1673ffffffffffffffffffffffffffffffffffffffff16815260200190815260200160002060006101000a81548160ff021916908315150217905550600160036000858152602001908152602001600020826040516117bf9190612b20565b908152602001604051809103902060006101000a81548160ff021916908315150217905550505050565b600080600090505b60046000858152602001908152602001600020600501805490508110156118835782805190602001206004600086815260200190815260200160002060050182815481106118425761184161266d565b5b90600052602060002001604051611859919061273f565b604051809103902003611870576001915050611889565b808061187b906125f1565b9150506117f1565b50600090505b92915050565b8280548282559060005260206000209081019282156118d7579160200282015b828111156118d65782518290816118c6919061251f565b50916020019190600101906118af565b5b5090506118e491906118e8565b5090565b5b8082111561190857600081816118ff919061190c565b506001016118e9565b5090565b5080546119189061229d565b6000825580601f1061192a5750611949565b601f016020900490600052602060002090810190611948919061194c565b5b50565b5b8082111561196557600081600090555060010161194d565b5090565b6000604051905090565b600080fd5b600080fd5b6000819050919050565b6119908161197d565b811461199b57600080fd5b50565b6000813590506119ad81611987565b92915050565b6000602082840312156119c9576119c8611973565b5b60006119d78482850161199e565b91505092915050565b6119e98161197d565b82525050565b600081519050919050565b600082825260208201905092915050565b60005b83811015611a29578082015181840152602081019050611a0e565b60008484015250505050565b6000601f19601f8301169050919050565b6000611a51826119ef565b611a5b81856119fa565b9350611a6b818560208601611a0b565b611a7481611a35565b840191505092915050565b600060c082019050611a9460008301896119e0565b8181036020830152611aa68188611a46565b9050611ab560408301876119e0565b611ac260608301866119e0565b8181036080830152611ad48185611a46565b905081810360a0830152611ae88184611a46565b9050979650505050505050565b600080fd5b600080fd5b7f4e487b7100000000000000000000000000000000000000000000000000000000600052604160045260246000fd5b611b3782611a35565b810181811067ffffffffffffffff82111715611b5657611b55611aff565b5b80604052505050565b6000611b69611969565b9050611b758282611b2e565b919050565b600067ffffffffffffffff821115611b9557611b94611aff565b5b611b9e82611a35565b9050602081019050919050565b82818337600083830152505050565b6000611bcd611bc884611b7a565b611b5f565b905082815260208101848484011115611be957611be8611afa565b5b611bf4848285611bab565b509392505050565b600082601f830112611c1157611c10611af5565b5b8135611c21848260208601611bba565b91505092915050565b600067ffffffffffffffff821115611c4557611c44611aff565b5b602082029050602081019050919050565b600080fd5b6000611c6e611c6984611c2a565b611b5f565b90508083825260208201905060208402830185811115611c9157611c90611c56565b5b835b81811015611cd857803567ffffffffffffffff811115611cb657611cb5611af5565b5b808601611cc38982611bfc565b85526020850194505050602081019050611c93565b5050509392505050565b600082601f830112611cf757611cf6611af5565b5b8135611d07848260208601611c5b565b91505092915050565b600080600080600080600080610100898b031215611d3157611d30611973565b5b6000611d3f8b828c0161199e565b985050602089013567ffffffffffffffff811115611d6057611d5f611978565b5b611d6c8b828c01611bfc565b9750506040611d7d8b828c0161199e565b965050606089013567ffffffffffffffff811115611d9e57611d9d611978565b5b611daa8b828c01611ce2565b9550506080611dbb8b828c0161199e565b94505060a089013567ffffffffffffffff811115611ddc57611ddb611978565b5b611de88b828c01611ce2565b93505060c089013567ffffffffffffffff811115611e0957611e08611978565b5b611e158b828c01611bfc565b92505060e089013567ffffffffffffffff811115611e3657611e35611978565b5b611e428b828c01611bfc565b9150509295985092959890939650565b60008060408385031215611e6957611e68611973565b5b6000611e778582860161199e565b925050602083013567ffffffffffffffff811115611e9857611e97611978565b5b611ea485828601611bfc565b9150509250929050565b600081519050919050565b600082825260208201905092915050565b6000819050602082019050919050565b600082825260208201905092915050565b6000611ef6826119ef565b611f008185611eda565b9350611f10818560208601611a0b565b611f1981611a35565b840191505092915050565b6000611f308383611eeb565b905092915050565b6000602082019050919050565b6000611f5082611eae565b611f5a8185611eb9565b935083602082028501611f6c85611eca565b8060005b85811015611fa85784840389528151611f898582611f24565b9450611f9483611f38565b925060208a01995050600181019050611f70565b50829750879550505050505092915050565b60006020820190508181036000830152611fd48184611f45565b905092915050565b6000602082019050611ff160008301846119e0565b92915050565b600060208201905081810360008301526120118184611a46565b905092915050565b600081519050919050565b600082825260208201905092915050565b6000819050602082019050919050565b61204e8161197d565b82525050565b60006120608383612045565b60208301905092915050565b6000602082019050919050565b600061208482612019565b61208e8185612024565b935061209983612035565b8060005b838110156120ca5781516120b18882612054565b97506120bc8361206c565b92505060018101905061209d565b5085935050505092915050565b600060208201905081810360008301526120f18184612079565b905092915050565b60008060006060848603121561211257612111611973565b5b60006121208682870161199e565b935050602084013567ffffffffffffffff81111561214157612140611978565b5b61214d86828701611bfc565b925050604084013567ffffffffffffffff81111561216e5761216d611978565b5b61217a86828701611bfc565b9150509250925092565b60006101008201905061219a600083018b6119e0565b81810360208301526121ac818a611a46565b90506121bb60408301896119e0565b81810360608301526121cd8188611f45565b90506121dc60808301876119e0565b81810360a08301526121ee8186611f45565b905081810360c08301526122028185611a46565b905081810360e08301526122168184611a46565b90509998505050505050505050565b60006020828403121561223b5761223a611973565b5b600082013567ffffffffffffffff81111561225957612258611978565b5b61226584828501611bfc565b91505092915050565b7f4e487b7100000000000000000000000000000000000000000000000000000000600052602260045260246000fd5b600060028204905060018216806122b557607f821691505b6020821081036122c8576122c761226e565b5b50919050565b7f4e487b7100000000000000000000000000000000000000000000000000000000600052601160045260246000fd5b60006123088261197d565b91506123138361197d565b92508282026123218161197d565b91508282048414831517612338576123376122ce565b5b5092915050565b600061234a8261197d565b91506123558361197d565b925082820190508082111561236d5761236c6122ce565b5b92915050565b60008190508160005260206000209050919050565b60006020601f8301049050919050565b600082821b905092915050565b6000600883026123d57fffffffffffffffffffffffffffffffffffffffffffffffffffffffffffffffff82612398565b6123df8683612398565b95508019841693508086168417925050509392505050565b6000819050919050565b600061241c6124176124128461197d565b6123f7565b61197d565b9050919050565b6000819050919050565b61243683612401565b61244a61244282612423565b8484546123a5565b825550505050565b600090565b61245f612452565b61246a81848461242d565b505050565b5b8181101561248e57612483600082612457565b600181019050612470565b5050565b601f8211156124d3576124a481612373565b6124ad84612388565b810160208510156124bc578190505b6124d06124c885612388565b83018261246f565b50505b505050565b600082821c905092915050565b60006124f6600019846008026124d8565b1980831691505092915050565b600061250f83836124e5565b9150826002028217905092915050565b612528826119ef565b67ffffffffffffffff81111561254157612540611aff565b5b61254b825461229d565b612556828285612492565b600060209050601f8311600181146125895760008415612577578287015190505b6125818582612503565b8655506125e9565b601f19841661259786612373565b60005b828110156125bf5784890151825560018201915060208501945060208101905061259a565b868310156125dc57848901516125d8601f8916826124e5565b8355505b6001600288020188555050505b505050505050565b60006125fc8261197d565b91507fffffffffffffffffffffffffffffffffffffffffffffffffffffffffffffffff820361262e5761262d6122ce565b5b600182019050919050565b60006126448261197d565b915061264f8361197d565b9250828203905081811115612667576126666122ce565b5b92915050565b7f4e487b7100000000000000000000000000000000000000000000000000000000600052603260045260246000fd5b600081905092915050565b60008190508160005260206000209050919050565b600081546126c98161229d565b6126d3818661269c565b945060018216600081146126ee576001811461270357612736565b60ff1983168652811515820286019350612736565b61270c856126a7565b60005b8381101561272e5781548189015260018201915060208101905061270f565b838801955050505b50505092915050565b600061274b82846126bc565b915081905092915050565b7f4e6f7420417574686f72697a6564000000000000000000000000000000000000600082015250565b600061278c600e836119fa565b915061279782612756565b602082019050919050565b600060208201905081810360008301526127bb8161277f565b9050919050565b7f566f74696e6720706572696f6420686173206e6f7420656e6465642079657400600082015250565b60006127f8601f836119fa565b9150612803826127c2565b602082019050919050565b60006020820190508181036000830152612827816127eb565b9050919050565b600081905092915050565b600081546128468161229d565b612850818661282e565b9450600182166000811461286b5760018114612880576128b3565b60ff19831686528115158202860193506128b3565b61288985612373565b60005b838110156128ab5781548189015260018201915060208101905061288c565b838801955050505b50505092915050565b60006128c88284612839565b915081905092915050565b7f506f6c6c20686173206e6f742073746172746564207965740000000000000000600082015250565b60006129096018836119fa565b9150612914826128d3565b602082019050919050565b60006020820190508181036000830152612938816128fc565b9050919050565b7f506f6c6c2068617320656e646564000000000000000000000000000000000000600082015250565b6000612975600e836119fa565b91506129808261293f565b602082019050919050565b600060208201905081810360008301526129a481612968565b9050919050565b7f496e76616c696420756e69717565204944000000000000000000000000000000600082015250565b60006129e16011836119fa565b91506129ec826129ab565b602082019050919050565b60006020820190508181036000830152612a10816129d4565b9050919050565b7f596f7520617265206e6f7420417574686f72697a656420746f20566f74650000600082015250565b6000612a4d601e836119fa565b9150612a5882612a17565b602082019050919050565b60006020820190508181036000830152612a7c81612a40565b9050919050565b7f54686520766f74696e672074696d65206973204f766572210000000000000000600082015250565b6000612ab96018836119fa565b9150612ac482612a83565b602082019050919050565b60006020820190508181036000830152612ae881612aac565b9050919050565b6000612afa826119ef565b612b04818561282e565b9350612b14818560208601611a0b565b80840191505092915050565b6000612b2c8284612aef565b91508190509291505056fea2646970667358221220fb5603ac078dc0b5d674a009ba698c22f61a27bf5d8b6d29486630a35da2ad2f64736f6c63430008120033",
  "immutableReferences": {},
  "source": "// SPDX-License-Identifier: GPL-3.0\r\n\r\npragma solidity >=0.7.0 <0.9.0;\r\n// import \"@openzeppelin/contracts/utils/Strings.sol\";\r\n\r\ncontract ApprovalVoting{\r\n    uint public systemCount;\r\n    struct VotingSystem{\r\n        uint uniqueId;\r\n        string systemName;\r\n        uint numberOfCandidates;\r\n        string[] candidates;\r\n        uint votingPeriod;       \r\n        string[] votersForElection;\r\n        string electionHelderName;\r\n        string description;\r\n    }\r\n\r\n    mapping (uint => mapping (string => uint)) public differentSystemVotes;\r\n    mapping (uint => mapping (address => bool)) differentSystemVotingDone;\r\n    mapping (uint => mapping (string => bool)) differentPanCardsVoting;\r\n    mapping (uint => VotingSystem) public systems;\r\n\r\n    function getSystemDetails(uint _uniqueId) public view returns (uint, string memory, uint, string[] memory, uint, string[] memory, string memory, string memory) {\r\n        VotingSystem memory system = systems[_uniqueId];\r\n        return (system.uniqueId, system.systemName, system.numberOfCandidates, system.candidates, system.votingPeriod, system.votersForElection, system.electionHelderName, system.description);\r\n    }\r\n\r\n    function createSystem(uint _uniqueId, string memory _systemName, uint _numberOfCandidates, string[] memory _candidates,uint numberOfDays,string[] memory _votersForElection, string memory _electionHelderName,string memory _description) public   {\r\n        uint _votingPeriod = block.timestamp + (numberOfDays * 1 days);\r\n        VotingSystem memory system =  VotingSystem(_uniqueId,_systemName,_numberOfCandidates,_candidates,_votingPeriod,_votersForElection,_electionHelderName,_description);\r\n        systems[_uniqueId] = system;\r\n        systemCount++;\r\n    }\r\n\r\n\r\n    address payable owner;\r\n    mapping (address => uint) votingDone;\r\n  \r\n    constructor() {\r\n        owner = payable(msg.sender);\r\n    }\r\n\r\n\r\n    function showBalance() public view returns(uint) {\r\n        return address(this).balance;\r\n    }\r\n\r\n    function voteKarteRaho(uint _uniqueId,string memory _candidateName,string memory _candidateAadhar) public  {\r\n        voteNow(_uniqueId,_candidateName,_candidateAadhar);\r\n    }\r\n\r\n    function checkIfUserExists(uint _uniqueId,string memory _candidateAadhar) internal view returns(bool){\r\n        for(uint i=0;i<systems[_uniqueId].votersForElection.length;i++){\r\n            if (keccak256(bytes(systems[_uniqueId].votersForElection[i])) == keccak256(bytes(_candidateAadhar))){\r\n                return true;\r\n            }\r\n        }\r\n        return false;\r\n    }\r\n\r\n    function voteNow(uint _uniqueId,string memory _candidateName,string memory _candidateAadhar) internal{\r\n        require(checkIfUserExists(_uniqueId, _candidateAadhar),\"You are not Authorized to Vote\");\r\n        // require(differentSystemVotingDone[_uniqueId][msg.sender]==false,\"You have already Voted\");\r\n        // require(differentPanCardsVoting[_uniqueId][_candidateAadhar]==false,\"You have already Voted\");\r\n        require(systems[_uniqueId].votingPeriod >= block.timestamp, \"The voting time is Over!\");\r\n        differentSystemVotes[_uniqueId][_candidateName] +=1;\r\n        differentSystemVotingDone[_uniqueId][msg.sender] = true;\r\n        differentPanCardsVoting[_uniqueId][_candidateAadhar]=true;\r\n    }\r\n\r\n    function getCandidates(uint _uniqueId) public view returns (string[] memory)  {\r\n        return systems[_uniqueId].candidates;\r\n    }\r\n\r\n    function getVoters(uint _uniqueId) public view returns (string[] memory)  {\r\n        return systems[_uniqueId].votersForElection;\r\n    }\r\n\r\n    function addMoneyToOwner() public payable{\r\n        require(msg.sender == owner, \"Not Authorized\");\r\n        payable(msg.sender).transfer(1 ether);\r\n    }\r\n\r\n    function getWinner(uint _uniqueId) public view returns (string memory) {\r\n        require(msg.sender == owner, \"Not Authorized\");\r\n        require(systems[_uniqueId].votingPeriod < block.timestamp, \"Voting period has not ended yet\");\r\n\r\n        uint maxVotes = 0;\r\n        string memory winner;\r\n\r\n        for (uint i = 0; i < systems[_uniqueId].numberOfCandidates; i++) {\r\n            uint candidateVotes = differentSystemVotes[_uniqueId][systems[_uniqueId].candidates[i]];\r\n            if (candidateVotes > maxVotes) {\r\n                maxVotes = candidateVotes;\r\n                winner = systems[_uniqueId].candidates[i];\r\n            }\r\n        }\r\n        return winner;\r\n    }\r\n\r\n    function getSystemIdsOfVoter(string memory _voterAddress) public view returns (uint[] memory) {\r\n        uint[] memory systemIds = new uint[](systemCount);\r\n        uint systemIndex = 0;\r\n        for (uint i = 1; i <= systemCount; i++) {\r\n            for (uint j = 0; j < systems[i].votersForElection.length; j++) {\r\n                if (keccak256(bytes(systems[i].votersForElection[j])) == keccak256(bytes(_voterAddress))) {\r\n                    systemIds[systemIndex] = systems[i].uniqueId;\r\n                    systemIndex++;\r\n                    break;\r\n                }\r\n            }\r\n        }\r\n        return systemIds;\r\n    }\r\n\r\n    function getOtherCandidates(uint _uniqueId, string memory _voterAadhar) public view returns (string[] memory) {\r\n        string[] memory candidates = systems[_uniqueId].candidates;\r\n        uint numCandidates = systems[_uniqueId].numberOfCandidates;\r\n        string[] memory otherCandidates = new string[](numCandidates - 1);\r\n        uint index = 0;\r\n\r\n        for (uint i = 0; i < numCandidates; i++) {\r\n            if (keccak256(bytes(systems[_uniqueId].votersForElection[i])) == keccak256(bytes(_voterAadhar))) {\r\n                // If the current voter has voted for this candidate, skip to the next candidate\r\n                continue;\r\n            }\r\n\r\n            otherCandidates[index] = candidates[i];\r\n            index++;\r\n        }\r\n\r\n        return otherCandidates;\r\n    }\r\n\r\n    function getCandidateVoteCounts(uint uniqueId) public view returns (uint[] memory) {\r\n        require(uniqueId != 0, \"Invalid unique ID\");\r\n\r\n        uint[] memory voteCounts = new uint[](systems[uniqueId].numberOfCandidates);\r\n        for (uint i = 0; i < systems[uniqueId].numberOfCandidates; i++) {\r\n            voteCounts[i] = differentSystemVotes[uniqueId][systems[uniqueId].candidates[i]];\r\n        }\r\n        return voteCounts;\r\n    }\r\n\r\n    \r\n\r\n    function getTimeRemaining(uint _uniqueId) public view returns (uint) {\r\n        require(systems[_uniqueId].votingPeriod > 0, \"Poll has not started yet\");\r\n        require(systems[_uniqueId].votingPeriod > block.timestamp, \"Poll has ended\");\r\n\r\n        uint timeRemaining = systems[_uniqueId].votingPeriod - block.timestamp;\r\n\r\n        return timeRemaining;\r\n    }\r\n\r\n}",
  "sourcePath": "C:\\Users\\Anish Kulkarni\\Blockchain\\Code-a-palooza\\contracts\\ApprovalVoting.sol",
  "compiler": {
    "name": "solc",
    "version": "0.8.18+commit.87f61d96.Emscripten.clang"
  },
  "schemaVersion": "3.4.12",
  "updatedAt": "2023-03-05T02:06:48.682Z",
  "devdoc": {
    "kind": "dev",
    "methods": {},
    "version": 1
  },
  "userdoc": {
    "kind": "user",
    "methods": {},
    "version": 1
  }
}