{
  "contractName": "QuadVoting",
  "abi": [
    {
      "inputs": [],
      "stateMutability": "nonpayable",
      "type": "constructor"
    },
    {
      "inputs": [
        {
          "internalType": "uint256",
          "name": "",
          "type": "uint256"
        },
        {
          "internalType": "string",
          "name": "",
          "type": "string"
        }
      ],
      "name": "differentSystemVotes",
      "outputs": [
        {
          "internalType": "uint256",
          "name": "",
          "type": "uint256"
        }
      ],
      "stateMutability": "view",
      "type": "function"
    },
    {
      "inputs": [],
      "name": "systemCount",
      "outputs": [
        {
          "internalType": "uint256",
          "name": "",
          "type": "uint256"
        }
      ],
      "stateMutability": "view",
      "type": "function"
    },
    {
      "inputs": [
        {
          "internalType": "uint256",
          "name": "",
          "type": "uint256"
        }
      ],
      "name": "systems",
      "outputs": [
        {
          "internalType": "uint256",
          "name": "uniqueId",
          "type": "uint256"
        },
        {
          "internalType": "string",
          "name": "systemName",
          "type": "string"
        },
        {
          "internalType": "uint256",
          "name": "numberOfCandidates",
          "type": "uint256"
        },
        {
          "internalType": "uint256",
          "name": "votingPeriod",
          "type": "uint256"
        },
        {
          "internalType": "string",
          "name": "electionHelderName",
          "type": "string"
        },
        {
          "internalType": "string",
          "name": "description",
          "type": "string"
        }
      ],
      "stateMutability": "view",
      "type": "function"
    },
    {
      "inputs": [
        {
          "internalType": "uint256",
          "name": "_uniqueId",
          "type": "uint256"
        }
      ],
      "name": "getSystemDetails",
      "outputs": [
        {
          "internalType": "uint256",
          "name": "",
          "type": "uint256"
        },
        {
          "internalType": "string",
          "name": "",
          "type": "string"
        },
        {
          "internalType": "uint256",
          "name": "",
          "type": "uint256"
        },
        {
          "components": [
            {
              "internalType": "string",
              "name": "name",
              "type": "string"
            },
            {
              "internalType": "uint256",
              "name": "availableCredits",
              "type": "uint256"
            }
          ],
          "internalType": "struct QuadVoting.Candidate[]",
          "name": "",
          "type": "tuple[]"
        },
        {
          "internalType": "uint256",
          "name": "",
          "type": "uint256"
        },
        {
          "internalType": "string[]",
          "name": "",
          "type": "string[]"
        },
        {
          "internalType": "string",
          "name": "",
          "type": "string"
        },
        {
          "internalType": "string",
          "name": "",
          "type": "string"
        }
      ],
      "stateMutability": "view",
      "type": "function"
    },
    {
      "inputs": [
        {
          "internalType": "string",
          "name": "_systemName",
          "type": "string"
        },
        {
          "internalType": "uint256",
          "name": "_numberOfCandidates",
          "type": "uint256"
        },
        {
          "internalType": "string[]",
          "name": "_candidates",
          "type": "string[]"
        },
        {
          "internalType": "uint256",
          "name": "_votingPeriod",
          "type": "uint256"
        },
        {
          "internalType": "string[]",
          "name": "_votersForElection",
          "type": "string[]"
        },
        {
          "internalType": "string",
          "name": "_electionHelderName",
          "type": "string"
        },
        {
          "internalType": "string",
          "name": "_description",
          "type": "string"
        }
      ],
      "name": "createVotingSystem",
      "outputs": [
        {
          "internalType": "uint256",
          "name": "systemId",
          "type": "uint256"
        }
      ],
      "stateMutability": "nonpayable",
      "type": "function"
    },
    {
      "inputs": [],
      "name": "showBalance",
      "outputs": [
        {
          "internalType": "uint256",
          "name": "",
          "type": "uint256"
        }
      ],
      "stateMutability": "view",
      "type": "function"
    },
    {
      "inputs": [
        {
          "internalType": "uint256",
          "name": "_systemId",
          "type": "uint256"
        },
        {
          "internalType": "uint256",
          "name": "_candidateIndex",
          "type": "uint256"
        },
        {
          "internalType": "uint256",
          "name": "_value",
          "type": "uint256"
        }
      ],
      "name": "castQuadraticVote",
      "outputs": [],
      "stateMutability": "nonpayable",
      "type": "function"
    },
    {
      "inputs": [
        {
          "internalType": "uint256",
          "name": "systemId",
          "type": "uint256"
        }
      ],
      "name": "getCandidateVoteCounts",
      "outputs": [
        {
          "internalType": "uint256[]",
          "name": "",
          "type": "uint256[]"
        }
      ],
      "stateMutability": "view",
      "type": "function"
    },
    {
      "inputs": [
        {
          "internalType": "uint256",
          "name": "systemId",
          "type": "uint256"
        }
      ],
      "name": "getLeadingCandidate",
      "outputs": [
        {
          "internalType": "string",
          "name": "",
          "type": "string"
        }
      ],
      "stateMutability": "view",
      "type": "function"
    },
    {
      "inputs": [
        {
          "internalType": "uint256",
          "name": "_uniqueId",
          "type": "uint256"
        }
      ],
      "name": "getWinner",
      "outputs": [
        {
          "internalType": "string",
          "name": "",
          "type": "string"
        }
      ],
      "stateMutability": "view",
      "type": "function"
    },
    {
      "inputs": [
        {
          "internalType": "uint256",
          "name": "_uniqueId",
          "type": "uint256"
        }
      ],
      "name": "getTimeRemaining",
      "outputs": [
        {
          "internalType": "uint256",
          "name": "",
          "type": "uint256"
        }
      ],
      "stateMutability": "view",
      "type": "function"
    }
  ],
  "bytecode": "0x608060405234801561001057600080fd5b5033600560006101000a81548173ffffffffffffffffffffffffffffffffffffffff021916908373ffffffffffffffffffffffffffffffffffffffff160217905550612448806100616000396000f3fe608060405234801561001057600080fd5b50600436106100a95760003560e01c806381b2d07b1161007157806381b2d07b146101915780638cd42991146101af5780639baafbcf146101df578063c2967b5e1461020f578063cd9cf1041461023f578063d4cb84c014610276576100a9565b80630ffca604146100ae5780633ab59bb6146100e35780634129b2c914610101578063591406611461013157806366e569e214610161575b600080fd5b6100c860048036038101906100c39190611322565b610292565b6040516100da969594939291906113ee565b60405180910390f35b6100eb610466565b6040516100f89190611464565b60405180910390f35b61011b60048036038101906101169190611322565b61046c565b604051610128919061147f565b60405180910390f35b61014b600480360381019061014691906116bc565b6106a8565b6040516101589190611464565b60405180910390f35b61017b60048036038101906101769190611322565b6107fb565b604051610188919061147f565b60405180910390f35b610199610965565b6040516101a69190611464565b60405180910390f35b6101c960048036038101906101c49190611322565b61096d565b6040516101d69190611464565b60405180910390f35b6101f960048036038101906101f49190611322565b610a4e565b60405161020691906118a8565b60405180910390f35b610229600480360381019061022491906118ca565b610b84565b6040516102369190611464565b60405180910390f35b61025960048036038101906102549190611322565b610bbf565b60405161026d989796959493929190611b31565b60405180910390f35b610290600480360381019061028b9190611bd2565b610fdd565b005b60046020528060005260406000206000915090508060000154908060010180546102bb90611c54565b80601f01602080910402602001604051908101604052809291908181526020018280546102e790611c54565b80156103345780601f1061030957610100808354040283529160200191610334565b820191906000526020600020905b81548152906001019060200180831161031757829003601f168201915b50505050509080600201549080600401549080600601805461035590611c54565b80601f016020809104026020016040519081016040528092919081815260200182805461038190611c54565b80156103ce5780601f106103a3576101008083540402835291602001916103ce565b820191906000526020600020905b8154815290600101906020018083116103b157829003601f168201915b5050505050908060070180546103e390611c54565b80601f016020809104026020016040519081016040528092919081815260200182805461040f90611c54565b801561045c5780601f106104315761010080835404028352916020019161045c565b820191906000526020600020905b81548152906001019060200180831161043f57829003601f168201915b5050505050905086565b60005481565b6060600560009054906101000a900473ffffffffffffffffffffffffffffffffffffffff1673ffffffffffffffffffffffffffffffffffffffff163373ffffffffffffffffffffffffffffffffffffffff16146104fe576040517f08c379a00000000000000000000000000000000000000000000000000000000081526004016104f590611cd1565b60405180910390fd5b42600460008481526020019081526020016000206004015410610556576040517f08c379a000000000000000000000000000000000000000000000000000000000815260040161054d90611d3d565b60405180910390fd5b6000606060005b600460008681526020019081526020016000206002015481101561069d5760006004600087815260200190815260200160002060030182815481106105a5576105a4611d5d565b5b906000526020600020906002020160010154905083811115610689578093506004600087815260200190815260200160002060030182815481106105ec576105eb611d5d565b5b9060005260206000209060020201600001805461060890611c54565b80601f016020809104026020016040519081016040528092919081815260200182805461063490611c54565b80156106815780601f1061065657610100808354040283529160200191610681565b820191906000526020600020905b81548152906001019060200180831161066457829003601f168201915b505050505092505b50808061069590611dbb565b91505061055d565b508092505050919050565b60008060008154809291906106bc90611dbb565b91905055506000600460008054815260200190815260200160002090506000548160000181905550888160010190816106f59190611faf565b50878160020181905550858160040181905550848160050190805190602001906107209291906111fe565b50838160060190816107329190611faf565b50828160070190816107449190611faf565b5060005b87518110156107e957600060405180604001604052808a848151811061077157610770611d5d565b5b60200260200101518152602001606481525090508260030181908060018154018082558091505060019003906000526020600020906002020160009091909190915060008201518160000190816107c89190611faf565b506020820151816001015550505080806107e190611dbb565b915050610748565b50600054915050979650505050505050565b606060006040518060200160405280600081525090506000805b600460008681526020019081526020016000206002015481101561095a57600060046000878152602001908152602001600020600301828154811061085d5761085c611d5d565b5b9060005260206000209060020201905060006001600088815260200190815260200160002082600001604051610893919061210f565b9081526020016040518091039020549050600081905084811115610944578260000180546108c090611c54565b80601f01602080910402602001604051908101604052809291908181526020018280546108ec90611c54565b80156109395780601f1061090e57610100808354040283529160200191610939565b820191906000526020600020905b81548152906001019060200180831161091c57829003601f168201915b505050505095508094505b505050808061095290611dbb565b915050610815565b508192505050919050565b600047905090565b6000806004600084815260200190815260200160002060040154116109c7576040517f08c379a00000000000000000000000000000000000000000000000000000000081526004016109be90612172565b60405180910390fd5b42600460008481526020019081526020016000206004015411610a1f576040517f08c379a0000000000000000000000000000000000000000000000000000000008152600401610a16906121de565b60405180910390fd5b6000426004600085815260200190815260200160002060040154610a4391906121fe565b905080915050919050565b60606000600460008481526020019081526020016000206002015467ffffffffffffffff811115610a8257610a816114ab565b5b604051908082528060200260200182016040528015610ab05781602001602082028036833780820191505090505b50905060005b6004600085815260200190815260200160002060020154811015610b7a576000600460008681526020019081526020016000206003018281548110610afe57610afd611d5d565b5b9060005260206000209060020201905060006001600087815260200190815260200160002082600001604051610b34919061210f565b908152602001604051809103902054905080848481518110610b5957610b58611d5d565b5b60200260200101818152505050508080610b7290611dbb565b915050610ab6565b5080915050919050565b600160205281600052604060002081805160208101820180518482526020830160208501208183528095505050505050600091509150505481565b6000606060006060600060608060606000600460008b81526020019081526020016000206040518061010001604052908160008201548152602001600182018054610c0990611c54565b80601f0160208091040260200160405190810160405280929190818152602001828054610c3590611c54565b8015610c825780601f10610c5757610100808354040283529160200191610c82565b820191906000526020600020905b815481529060010190602001808311610c6557829003601f168201915b505050505081526020016002820154815260200160038201805480602002602001604051908101604052809291908181526020016000905b82821015610d885783829060005260206000209060020201604051806040016040529081600082018054610ced90611c54565b80601f0160208091040260200160405190810160405280929190818152602001828054610d1990611c54565b8015610d665780601f10610d3b57610100808354040283529160200191610d66565b820191906000526020600020905b815481529060010190602001808311610d4957829003601f168201915b5050505050815260200160018201548152505081526020019060010190610cba565b5050505081526020016004820154815260200160058201805480602002602001604051908101604052809291908181526020016000905b82821015610e6b578382906000526020600020018054610dde90611c54565b80601f0160208091040260200160405190810160405280929190818152602001828054610e0a90611c54565b8015610e575780601f10610e2c57610100808354040283529160200191610e57565b820191906000526020600020905b815481529060010190602001808311610e3a57829003601f168201915b505050505081526020019060010190610dbf565b505050508152602001600682018054610e8390611c54565b80601f0160208091040260200160405190810160405280929190818152602001828054610eaf90611c54565b8015610efc5780601f10610ed157610100808354040283529160200191610efc565b820191906000526020600020905b815481529060010190602001808311610edf57829003601f168201915b50505050508152602001600782018054610f1590611c54565b80601f0160208091040260200160405190810160405280929190818152602001828054610f4190611c54565b8015610f8e5780601f10610f6357610100808354040283529160200191610f8e565b820191906000526020600020905b815481529060010190602001808311610f7157829003601f168201915b5050505050815250509050806000015181602001518260400151836060015184608001518560a001518660c001518760e001519850985098509850985098509850985050919395975091939597565b4260046000858152602001908152602001600020600401541015611036576040517f08c379a000000000000000000000000000000000000000000000000000000000815260040161102d9061227e565b60405180910390fd5b6004600084815260200190815260200160002060020154821061108e576040517f08c379a0000000000000000000000000000000000000000000000000000000008152600401611085906122ea565b60405180910390fd5b60006004600085815260200190815260200160002060030183815481106110b8576110b7611d5d565b5b9060005260206000209060020201905081826110d4919061230a565b8160010154101561111a576040517f08c379a0000000000000000000000000000000000000000000000000000000008152600401611111906123be565b60405180910390fd5b8182611126919061230a565b81600101600082825461113991906121fe565b92505081905550600082905080600160008781526020019081526020016000208360000160405161116a919061210f565b9081526020016040518091039020600082825461118791906123de565b9250508190555060016002600087815260200190815260200160002060003373ffffffffffffffffffffffffffffffffffffffff1673ffffffffffffffffffffffffffffffffffffffff16815260200190815260200160002060006101000a81548160ff0219169083151502179055505050505050565b828054828255906000526020600020908101928215611246579160200282015b828111156112455782518290816112359190611faf565b509160200191906001019061121e565b5b5090506112539190611257565b5090565b5b80821115611277576000818161126e919061127b565b50600101611258565b5090565b50805461128790611c54565b6000825580601f1061129957506112b8565b601f0160209004906000526020600020908101906112b791906112bb565b5b50565b5b808211156112d45760008160009055506001016112bc565b5090565b6000604051905090565b600080fd5b600080fd5b6000819050919050565b6112ff816112ec565b811461130a57600080fd5b50565b60008135905061131c816112f6565b92915050565b600060208284031215611338576113376112e2565b5b60006113468482850161130d565b91505092915050565b611358816112ec565b82525050565b600081519050919050565b600082825260208201905092915050565b60005b8381101561139857808201518184015260208101905061137d565b60008484015250505050565b6000601f19601f8301169050919050565b60006113c08261135e565b6113ca8185611369565b93506113da81856020860161137a565b6113e3816113a4565b840191505092915050565b600060c082019050611403600083018961134f565b818103602083015261141581886113b5565b9050611424604083018761134f565b611431606083018661134f565b818103608083015261144381856113b5565b905081810360a083015261145781846113b5565b9050979650505050505050565b6000602082019050611479600083018461134f565b92915050565b6000602082019050818103600083015261149981846113b5565b905092915050565b600080fd5b600080fd5b7f4e487b7100000000000000000000000000000000000000000000000000000000600052604160045260246000fd5b6114e3826113a4565b810181811067ffffffffffffffff82111715611502576115016114ab565b5b80604052505050565b60006115156112d8565b905061152182826114da565b919050565b600067ffffffffffffffff821115611541576115406114ab565b5b61154a826113a4565b9050602081019050919050565b82818337600083830152505050565b600061157961157484611526565b61150b565b905082815260208101848484011115611595576115946114a6565b5b6115a0848285611557565b509392505050565b600082601f8301126115bd576115bc6114a1565b5b81356115cd848260208601611566565b91505092915050565b600067ffffffffffffffff8211156115f1576115f06114ab565b5b602082029050602081019050919050565b600080fd5b600061161a611615846115d6565b61150b565b9050808382526020820190506020840283018581111561163d5761163c611602565b5b835b8181101561168457803567ffffffffffffffff811115611662576116616114a1565b5b80860161166f89826115a8565b8552602085019450505060208101905061163f565b5050509392505050565b600082601f8301126116a3576116a26114a1565b5b81356116b3848260208601611607565b91505092915050565b600080600080600080600060e0888a0312156116db576116da6112e2565b5b600088013567ffffffffffffffff8111156116f9576116f86112e7565b5b6117058a828b016115a8565b97505060206117168a828b0161130d565b965050604088013567ffffffffffffffff811115611737576117366112e7565b5b6117438a828b0161168e565b95505060606117548a828b0161130d565b945050608088013567ffffffffffffffff811115611775576117746112e7565b5b6117818a828b0161168e565b93505060a088013567ffffffffffffffff8111156117a2576117a16112e7565b5b6117ae8a828b016115a8565b92505060c088013567ffffffffffffffff8111156117cf576117ce6112e7565b5b6117db8a828b016115a8565b91505092959891949750929550565b600081519050919050565b600082825260208201905092915050565b6000819050602082019050919050565b61181f816112ec565b82525050565b60006118318383611816565b60208301905092915050565b6000602082019050919050565b6000611855826117ea565b61185f81856117f5565b935061186a83611806565b8060005b8381101561189b5781516118828882611825565b975061188d8361183d565b92505060018101905061186e565b5085935050505092915050565b600060208201905081810360008301526118c2818461184a565b905092915050565b600080604083850312156118e1576118e06112e2565b5b60006118ef8582860161130d565b925050602083013567ffffffffffffffff8111156119105761190f6112e7565b5b61191c858286016115a8565b9150509250929050565b600081519050919050565b600082825260208201905092915050565b6000819050602082019050919050565b600082825260208201905092915050565b600061196e8261135e565b6119788185611952565b935061198881856020860161137a565b611991816113a4565b840191505092915050565b600060408301600083015184820360008601526119b98282611963565b91505060208301516119ce6020860182611816565b508091505092915050565b60006119e5838361199c565b905092915050565b6000602082019050919050565b6000611a0582611926565b611a0f8185611931565b935083602082028501611a2185611942565b8060005b85811015611a5d5784840389528151611a3e85826119d9565b9450611a49836119ed565b925060208a01995050600181019050611a25565b50829750879550505050505092915050565b600081519050919050565b600082825260208201905092915050565b6000819050602082019050919050565b6000611aa78383611963565b905092915050565b6000602082019050919050565b6000611ac782611a6f565b611ad18185611a7a565b935083602082028501611ae385611a8b565b8060005b85811015611b1f5784840389528151611b008582611a9b565b9450611b0b83611aaf565b925060208a01995050600181019050611ae7565b50829750879550505050505092915050565b600061010082019050611b47600083018b61134f565b8181036020830152611b59818a6113b5565b9050611b68604083018961134f565b8181036060830152611b7a81886119fa565b9050611b89608083018761134f565b81810360a0830152611b9b8186611abc565b905081810360c0830152611baf81856113b5565b905081810360e0830152611bc381846113b5565b90509998505050505050505050565b600080600060608486031215611beb57611bea6112e2565b5b6000611bf98682870161130d565b9350506020611c0a8682870161130d565b9250506040611c1b8682870161130d565b9150509250925092565b7f4e487b7100000000000000000000000000000000000000000000000000000000600052602260045260246000fd5b60006002820490506001821680611c6c57607f821691505b602082108103611c7f57611c7e611c25565b5b50919050565b7f4e6f7420417574686f72697a6564000000000000000000000000000000000000600082015250565b6000611cbb600e83611369565b9150611cc682611c85565b602082019050919050565b60006020820190508181036000830152611cea81611cae565b9050919050565b7f566f74696e6720706572696f6420686173206e6f7420656e6465642079657400600082015250565b6000611d27601f83611369565b9150611d3282611cf1565b602082019050919050565b60006020820190508181036000830152611d5681611d1a565b9050919050565b7f4e487b7100000000000000000000000000000000000000000000000000000000600052603260045260246000fd5b7f4e487b7100000000000000000000000000000000000000000000000000000000600052601160045260246000fd5b6000611dc6826112ec565b91507fffffffffffffffffffffffffffffffffffffffffffffffffffffffffffffffff8203611df857611df7611d8c565b5b600182019050919050565b60008190508160005260206000209050919050565b60006020601f8301049050919050565b600082821b905092915050565b600060088302611e657fffffffffffffffffffffffffffffffffffffffffffffffffffffffffffffffff82611e28565b611e6f8683611e28565b95508019841693508086168417925050509392505050565b6000819050919050565b6000611eac611ea7611ea2846112ec565b611e87565b6112ec565b9050919050565b6000819050919050565b611ec683611e91565b611eda611ed282611eb3565b848454611e35565b825550505050565b600090565b611eef611ee2565b611efa818484611ebd565b505050565b5b81811015611f1e57611f13600082611ee7565b600181019050611f00565b5050565b601f821115611f6357611f3481611e03565b611f3d84611e18565b81016020851015611f4c578190505b611f60611f5885611e18565b830182611eff565b50505b505050565b600082821c905092915050565b6000611f8660001984600802611f68565b1980831691505092915050565b6000611f9f8383611f75565b9150826002028217905092915050565b611fb88261135e565b67ffffffffffffffff811115611fd157611fd06114ab565b5b611fdb8254611c54565b611fe6828285611f22565b600060209050601f8311600181146120195760008415612007578287015190505b6120118582611f93565b865550612079565b601f19841661202786611e03565b60005b8281101561204f5784890151825560018201915060208501945060208101905061202a565b8683101561206c5784890151612068601f891682611f75565b8355505b6001600288020188555050505b505050505050565b600081905092915050565b6000815461209981611c54565b6120a38186612081565b945060018216600081146120be57600181146120d357612106565b60ff1983168652811515820286019350612106565b6120dc85611e03565b60005b838110156120fe578154818901526001820191506020810190506120df565b838801955050505b50505092915050565b600061211b828461208c565b915081905092915050565b7f506f6c6c20686173206e6f742073746172746564207965740000000000000000600082015250565b600061215c601883611369565b915061216782612126565b602082019050919050565b6000602082019050818103600083015261218b8161214f565b9050919050565b7f506f6c6c2068617320656e646564000000000000000000000000000000000000600082015250565b60006121c8600e83611369565b91506121d382612192565b602082019050919050565b600060208201905081810360008301526121f7816121bb565b9050919050565b6000612209826112ec565b9150612214836112ec565b925082820390508181111561222c5761222b611d8c565b5b92915050565b7f566f74696e6720706572696f642068617320656e646564000000000000000000600082015250565b6000612268601783611369565b915061227382612232565b602082019050919050565b600060208201905081810360008301526122978161225b565b9050919050565b7f496e76616c69642063616e64696461746520696e646578000000000000000000600082015250565b60006122d4601783611369565b91506122df8261229e565b602082019050919050565b60006020820190508181036000830152612303816122c7565b9050919050565b6000612315826112ec565b9150612320836112ec565b925082820261232e816112ec565b9150828204841483151761234557612344611d8c565b5b5092915050565b7f53656c65637465642063616e64696461746520646f6573206e6f74206861766560008201527f20656e6f75676820637265646974730000000000000000000000000000000000602082015250565b60006123a8602f83611369565b91506123b38261234c565b604082019050919050565b600060208201905081810360008301526123d78161239b565b9050919050565b60006123e9826112ec565b91506123f4836112ec565b925082820190508082111561240c5761240b611d8c565b5b9291505056fea2646970667358221220d014b00b1ac924b1fd0b4b2110ffe0b45ebfcbadbff2ff7b449276f5eac44fe264736f6c63430008120033",
  "immutableReferences": {},
  "source": "// SPDX-License-Identifier: GPL-3.0\r\n\r\npragma solidity >=0.7.0 <0.9.0;\r\n// import \"@openzeppelin/contracts/utils/Strings.sol\";\r\n\r\ncontract QuadVoting{\r\n    // using Strings for string;\r\n    uint public systemCount;\r\n    struct VotingSystem{\r\n        uint uniqueId;\r\n        string systemName;\r\n        uint numberOfCandidates;\r\n        Candidate[] candidates;\r\n        uint votingPeriod;       \r\n        string[] votersForElection;\r\n        string electionHelderName;\r\n        string description;\r\n        \r\n    }\r\n\r\n    struct Candidate {\r\n        string name;\r\n        uint availableCredits;\r\n    }\r\n\r\n    mapping (uint => mapping (string => uint)) public differentSystemVotes;\r\n    mapping (uint => mapping (address => bool)) differentSystemVotingDone;\r\n    mapping (uint => mapping (string => bool)) differentPanCardsVoting;\r\n    mapping (uint => VotingSystem) public systems;\r\n\r\n    function getSystemDetails(uint _uniqueId) public view returns (uint, string memory, uint, Candidate[] memory, uint, string[] memory, string memory, string memory) {\r\n        VotingSystem memory system = systems[_uniqueId];\r\n        return (system.uniqueId, system.systemName, system.numberOfCandidates, system.candidates, system.votingPeriod, system.votersForElection, system.electionHelderName, system.description);\r\n    }\r\n\r\n    function createVotingSystem(string memory _systemName, uint _numberOfCandidates, string[] memory _candidates, uint _votingPeriod, string[] memory _votersForElection, string memory _electionHelderName, string memory _description) public returns (uint systemId) {\r\n        systemCount++;\r\n        VotingSystem storage system = systems[systemCount];\r\n        system.uniqueId = systemCount;\r\n        system.systemName = _systemName;\r\n        system.numberOfCandidates = _numberOfCandidates;\r\n        system.votingPeriod = _votingPeriod;\r\n        system.votersForElection = _votersForElection;\r\n        system.electionHelderName = _electionHelderName;\r\n        system.description = _description;\r\n\r\n        for (uint i = 0; i < _candidates.length; i++) {\r\n            Candidate memory candidate = Candidate({name: _candidates[i], availableCredits: 100});\r\n            system.candidates.push(candidate);\r\n        }\r\n\r\n        return systemCount;\r\n    }\r\n\r\n    address payable owner;\r\n    mapping (address => uint) votingDone;\r\n  \r\n    constructor() {\r\n        owner = payable(msg.sender);\r\n    }\r\n\r\n    function showBalance() public view returns(uint) {\r\n        return address(this).balance;\r\n    }\r\n\r\n    function checkIfUserExists(uint _uniqueId,string memory _candidateAadhar) internal view returns(bool){\r\n        for(uint i=0;i<systems[_uniqueId].votersForElection.length;i++){\r\n            if (keccak256(bytes(systems[_uniqueId].votersForElection[i])) == keccak256(bytes(_candidateAadhar))){\r\n                return true;\r\n            }\r\n        }\r\n        return false;\r\n    }\r\n    \r\n    function castQuadraticVote(uint _systemId, uint _candidateIndex, uint _value) public {\r\n        require(systems[_systemId].votingPeriod >= block.timestamp, \"Voting period has ended\");\r\n        // require(!differentSystemVotingDone[_systemId][msg.sender], \"You have already casted your vote for this system\");\r\n        require(_candidateIndex < systems[_systemId].numberOfCandidates, \"Invalid candidate index\");\r\n\r\n        Candidate storage selectedCandidate = systems[_systemId].candidates[_candidateIndex];\r\n        require(selectedCandidate.availableCredits >= _value * _value, \"Selected candidate does not have enough credits\");\r\n\r\n        selectedCandidate.availableCredits -= _value * _value;\r\n        uint votes = _value;\r\n        differentSystemVotes[_systemId][selectedCandidate.name] += votes;\r\n        differentSystemVotingDone[_systemId][msg.sender] = true;\r\n    }\r\n\r\n    function getCandidateVoteCounts(uint systemId) public view returns (uint[] memory) {\r\n        uint[] memory voteCounts = new uint[](systems[systemId].numberOfCandidates);\r\n        for (uint i = 0; i < systems[systemId].numberOfCandidates; i++) {\r\n            Candidate storage candidate = systems[systemId].candidates[i];\r\n            uint votes = differentSystemVotes[systemId][candidate.name];\r\n            voteCounts[i] = votes; \r\n        }\r\n        return voteCounts;\r\n    }\r\n\r\n\r\n    function getLeadingCandidate(uint systemId) public view returns (string memory) {\r\n        string memory leadingCandidate = \"\";\r\n        uint leadingVoteCount = 0;\r\n        for (uint i = 0; i < systems[systemId].numberOfCandidates; i++) {\r\n            Candidate storage candidate = systems[systemId].candidates[i];\r\n            uint votes = differentSystemVotes[systemId][candidate.name];\r\n            uint sqrtVotes = votes; // calculate square root of votes\r\n            if (sqrtVotes > leadingVoteCount) { // compare square root of votes\r\n                leadingCandidate = candidate.name;\r\n                leadingVoteCount = sqrtVotes;\r\n            }\r\n        }\r\n        return leadingCandidate;\r\n    }\r\n\r\n\r\n\r\n    function getWinner(uint _uniqueId) public view returns (string memory) {\r\n        require(msg.sender == owner, \"Not Authorized\");\r\n        require(systems[_uniqueId].votingPeriod < block.timestamp, \"Voting period has not ended yet\");\r\n\r\n        uint maxVotes = 0;\r\n        string memory winner;\r\n\r\n        for (uint i = 0; i < systems[_uniqueId].numberOfCandidates; i++) {\r\n            uint candidateVotes = systems[_uniqueId].candidates[i].availableCredits;\r\n            if (candidateVotes > maxVotes) {\r\n                maxVotes = candidateVotes;\r\n                winner = systems[_uniqueId].candidates[i].name;\r\n            }\r\n        }\r\n        return winner;\r\n    }\r\n\r\n    function getTimeRemaining(uint _uniqueId) public view returns (uint) {\r\n        require(systems[_uniqueId].votingPeriod > 0, \"Poll has not started yet\");\r\n        require(systems[_uniqueId].votingPeriod > block.timestamp, \"Poll has ended\");\r\n\r\n        uint timeRemaining = systems[_uniqueId].votingPeriod - block.timestamp;\r\n\r\n        return timeRemaining;\r\n    }\r\n\r\n}",
  "sourcePath": "C:\\Users\\Anish Kulkarni\\Blockchain\\Code-a-palooza\\contracts\\QuadVoting.sol",
  "compiler": {
    "name": "solc",
    "version": "0.8.18+commit.87f61d96.Emscripten.clang"
  },
  "schemaVersion": "3.4.12",
  "updatedAt": "2023-03-04T20:01:45.441Z",
  "devdoc": {
    "kind": "dev",
    "methods": {},
    "version": 1
  },
  "userdoc": {
    "kind": "user",
    "methods": {},
    "version": 1
  }
}