{
  "contractName": "RankBasedVoting",
  "abi": [
    {
      "inputs": [],
      "stateMutability": "nonpayable",
      "type": "constructor"
    },
    {
      "inputs": [
        {
          "internalType": "uint256",
          "name": "",
          "type": "uint256"
        },
        {
          "internalType": "string",
          "name": "",
          "type": "string"
        }
      ],
      "name": "differentSystemVotes",
      "outputs": [
        {
          "internalType": "uint256",
          "name": "",
          "type": "uint256"
        }
      ],
      "stateMutability": "view",
      "type": "function"
    },
    {
      "inputs": [],
      "name": "systemCount",
      "outputs": [
        {
          "internalType": "uint256",
          "name": "",
          "type": "uint256"
        }
      ],
      "stateMutability": "view",
      "type": "function"
    },
    {
      "inputs": [
        {
          "internalType": "uint256",
          "name": "",
          "type": "uint256"
        }
      ],
      "name": "systems",
      "outputs": [
        {
          "internalType": "uint256",
          "name": "uniqueId",
          "type": "uint256"
        },
        {
          "internalType": "string",
          "name": "systemName",
          "type": "string"
        },
        {
          "internalType": "uint256",
          "name": "numberOfCandidates",
          "type": "uint256"
        },
        {
          "internalType": "uint256",
          "name": "votingPeriod",
          "type": "uint256"
        },
        {
          "internalType": "string",
          "name": "electionHelderName",
          "type": "string"
        },
        {
          "internalType": "string",
          "name": "description",
          "type": "string"
        }
      ],
      "stateMutability": "view",
      "type": "function"
    },
    {
      "inputs": [
        {
          "internalType": "uint256",
          "name": "_uniqueId",
          "type": "uint256"
        }
      ],
      "name": "getSystemDetails",
      "outputs": [
        {
          "internalType": "uint256",
          "name": "",
          "type": "uint256"
        },
        {
          "internalType": "string",
          "name": "",
          "type": "string"
        },
        {
          "internalType": "uint256",
          "name": "",
          "type": "uint256"
        },
        {
          "internalType": "string[]",
          "name": "",
          "type": "string[]"
        },
        {
          "internalType": "uint256",
          "name": "",
          "type": "uint256"
        },
        {
          "internalType": "string[]",
          "name": "",
          "type": "string[]"
        },
        {
          "internalType": "string",
          "name": "",
          "type": "string"
        },
        {
          "internalType": "string",
          "name": "",
          "type": "string"
        }
      ],
      "stateMutability": "view",
      "type": "function"
    },
    {
      "inputs": [
        {
          "internalType": "uint256",
          "name": "_uniqueId",
          "type": "uint256"
        },
        {
          "internalType": "string",
          "name": "_systemName",
          "type": "string"
        },
        {
          "internalType": "uint256",
          "name": "_numberOfCandidates",
          "type": "uint256"
        },
        {
          "internalType": "string[]",
          "name": "_candidates",
          "type": "string[]"
        },
        {
          "internalType": "uint256",
          "name": "numberOfDays",
          "type": "uint256"
        },
        {
          "internalType": "string[]",
          "name": "_votersForElection",
          "type": "string[]"
        },
        {
          "internalType": "string",
          "name": "_electionHelderName",
          "type": "string"
        },
        {
          "internalType": "string",
          "name": "_description",
          "type": "string"
        }
      ],
      "name": "createSystem",
      "outputs": [],
      "stateMutability": "nonpayable",
      "type": "function"
    },
    {
      "inputs": [],
      "name": "showBalance",
      "outputs": [
        {
          "internalType": "uint256",
          "name": "",
          "type": "uint256"
        }
      ],
      "stateMutability": "view",
      "type": "function"
    },
    {
      "inputs": [
        {
          "internalType": "uint256",
          "name": "systemId",
          "type": "uint256"
        },
        {
          "internalType": "string",
          "name": "voter",
          "type": "string"
        },
        {
          "internalType": "uint256[]",
          "name": "rankings",
          "type": "uint256[]"
        }
      ],
      "name": "castRankVote",
      "outputs": [],
      "stateMutability": "nonpayable",
      "type": "function"
    },
    {
      "inputs": [
        {
          "internalType": "uint256",
          "name": "systemId",
          "type": "uint256"
        }
      ],
      "name": "getCandidateVoteCounts",
      "outputs": [
        {
          "internalType": "uint256[]",
          "name": "",
          "type": "uint256[]"
        }
      ],
      "stateMutability": "view",
      "type": "function"
    },
    {
      "inputs": [
        {
          "internalType": "uint256",
          "name": "systemId",
          "type": "uint256"
        }
      ],
      "name": "getLeadingCandidate",
      "outputs": [
        {
          "internalType": "string",
          "name": "",
          "type": "string"
        }
      ],
      "stateMutability": "view",
      "type": "function"
    },
    {
      "inputs": [
        {
          "internalType": "uint256",
          "name": "_uniqueId",
          "type": "uint256"
        }
      ],
      "name": "getCandidates",
      "outputs": [
        {
          "internalType": "string[]",
          "name": "",
          "type": "string[]"
        }
      ],
      "stateMutability": "view",
      "type": "function"
    },
    {
      "inputs": [
        {
          "internalType": "uint256",
          "name": "_uniqueId",
          "type": "uint256"
        }
      ],
      "name": "getVoters",
      "outputs": [
        {
          "internalType": "string[]",
          "name": "",
          "type": "string[]"
        }
      ],
      "stateMutability": "view",
      "type": "function"
    },
    {
      "inputs": [],
      "name": "addMoneyToOwner",
      "outputs": [],
      "stateMutability": "payable",
      "type": "function"
    },
    {
      "inputs": [
        {
          "internalType": "uint256",
          "name": "_uniqueId",
          "type": "uint256"
        }
      ],
      "name": "getWinner",
      "outputs": [
        {
          "internalType": "string",
          "name": "",
          "type": "string"
        }
      ],
      "stateMutability": "view",
      "type": "function"
    },
    {
      "inputs": [
        {
          "internalType": "string",
          "name": "_voterAddress",
          "type": "string"
        }
      ],
      "name": "getSystemIdsOfVoter",
      "outputs": [
        {
          "internalType": "uint256[]",
          "name": "",
          "type": "uint256[]"
        }
      ],
      "stateMutability": "view",
      "type": "function"
    },
    {
      "inputs": [
        {
          "internalType": "uint256",
          "name": "_uniqueId",
          "type": "uint256"
        }
      ],
      "name": "getTimeRemaining",
      "outputs": [
        {
          "internalType": "uint256",
          "name": "",
          "type": "uint256"
        }
      ],
      "stateMutability": "view",
      "type": "function"
    }
  ],
  "bytecode": "0x608060405234801561001057600080fd5b5033600560006101000a81548173ffffffffffffffffffffffffffffffffffffffff021916908373ffffffffffffffffffffffffffffffffffffffff160217905550612dd8806100616000396000f3fe6080604052600436106100e85760003560e01c806381b2d07b1161008a5780639baafbcf116100595780639baafbcf14610312578063c2967b5e1461034f578063cd9cf1041461038c578063cff29c1c146103d0576100e8565b806381b2d07b1461026357806384f3f1481461028e57806386b646f2146102985780638cd42991146102d5576100e8565b80633e39a7a5116100c65780633e39a7a5146101835780633f824dc7146101c05780634129b2c9146101e957806366e569e214610226576100e8565b80630ffca604146100ed578063269068271461012f5780633ab59bb614610158575b600080fd5b3480156100f957600080fd5b50610114600480360381019061010f9190611aef565b61040d565b60405161012696959493929190611bbb565b60405180910390f35b34801561013b57600080fd5b5061015660048036038101906101519190611e4c565b6105e1565b005b34801561016457600080fd5b5061016d610711565b60405161017a9190611f8e565b60405180910390f35b34801561018f57600080fd5b506101aa60048036038101906101a59190611aef565b610717565b6040516101b791906120b5565b60405180910390f35b3480156101cc57600080fd5b506101e760048036038101906101e2919061219a565b610806565b005b3480156101f557600080fd5b50610210600480360381019061020b9190611aef565b610c1f565b60405161021d9190612225565b60405180910390f35b34801561023257600080fd5b5061024d60048036038101906102489190611aef565b610e7b565b60405161025a9190612225565b60405180910390f35b34801561026f57600080fd5b50610278610fd5565b6040516102859190611f8e565b60405180910390f35b610296610fdd565b005b3480156102a457600080fd5b506102bf60048036038101906102ba9190611aef565b6110be565b6040516102cc91906120b5565b60405180910390f35b3480156102e157600080fd5b506102fc60048036038101906102f79190611aef565b6111ad565b6040516103099190611f8e565b60405180910390f35b34801561031e57600080fd5b5061033960048036038101906103349190611aef565b61128e565b6040516103469190612305565b60405180910390f35b34801561035b57600080fd5b5061037660048036038101906103719190612327565b611440565b6040516103839190611f8e565b60405180910390f35b34801561039857600080fd5b506103b360048036038101906103ae9190611aef565b61147b565b6040516103c7989796959493929190612383565b60405180910390f35b3480156103dc57600080fd5b506103f760048036038101906103f29190612424565b611877565b6040516104049190612305565b60405180910390f35b60046020528060005260406000206000915090508060000154908060010180546104369061249c565b80601f01602080910402602001604051908101604052809291908181526020018280546104629061249c565b80156104af5780601f10610484576101008083540402835291602001916104af565b820191906000526020600020905b81548152906001019060200180831161049257829003601f168201915b5050505050908060020154908060040154908060060180546104d09061249c565b80601f01602080910402602001604051908101604052809291908181526020018280546104fc9061249c565b80156105495780601f1061051e57610100808354040283529160200191610549565b820191906000526020600020905b81548152906001019060200180831161052c57829003601f168201915b50505050509080600701805461055e9061249c565b80601f016020809104026020016040519081016040528092919081815260200182805461058a9061249c565b80156105d75780601f106105ac576101008083540402835291602001916105d7565b820191906000526020600020905b8154815290600101906020018083116105ba57829003601f168201915b5050505050905086565b600062015180856105f291906124fc565b426105fd919061253e565b905060006040518061010001604052808b81526020018a815260200189815260200188815260200183815260200186815260200185815260200184815250905080600460008c8152602001908152602001600020600082015181600001556020820151816001019081610670919061271e565b506040820151816002015560608201518160030190805190602001906106979291906119cb565b506080820151816004015560a08201518160050190805190602001906106be9291906119cb565b5060c08201518160060190816106d4919061271e565b5060e08201518160070190816106ea919061271e565b50905050600080815480929190610700906127f0565b919050555050505050505050505050565b60005481565b606060046000838152602001908152602001600020600301805480602002602001604051908101604052809291908181526020016000905b828210156107fb57838290600052602060002001805461076e9061249c565b80601f016020809104026020016040519081016040528092919081815260200182805461079a9061249c565b80156107e75780601f106107bc576101008083540402835291602001916107e7565b820191906000526020600020905b8154815290600101906020018083116107ca57829003601f168201915b50505050508152602001906001019061074f565b505050509050919050565b6004600084815260200190815260200160002060040154421061085e576040517f08c379a000000000000000000000000000000000000000000000000000000000815260040161085590612884565b60405180910390fd5b600360008481526020019081526020016000208260405161087f91906128e0565b908152602001604051809103902060009054906101000a900460ff16156108db576040517f08c379a00000000000000000000000000000000000000000000000000000000081526004016108d290612943565b60405180910390fd5b6004600084815260200190815260200160002060020154815114610934576040517f08c379a000000000000000000000000000000000000000000000000000000000815260040161092b906129af565b60405180910390fd5b6000600460008581526020019081526020016000206002015467ffffffffffffffff81111561096657610965611c3b565b5b6040519080825280602002602001820160405280156109945781602001602082028036833780820191505090505b50905060005b8251811015610a7557600060018483815181106109ba576109b96129cf565b5b60200260200101516109cc91906129fe565b905060046000878152602001908152602001600020600201548110610a26576040517f08c379a0000000000000000000000000000000000000000000000000000000008152600401610a1d90612a7e565b60405180910390fd5b600182610a33919061253e565b838281518110610a4657610a456129cf565b5b60200260200101818151610a5a919061253e565b91508181525050508080610a6d906127f0565b91505061099a565b5060005b6004600086815260200190815260200160002060020154811015610bd0576000600460008781526020019081526020016000206003018281548110610ac157610ac06129cf565b5b906000526020600020018054610ad69061249c565b80601f0160208091040260200160405190810160405280929190818152602001828054610b029061249c565b8015610b4f5780601f10610b2457610100808354040283529160200191610b4f565b820191906000526020600020905b815481529060010190602001808311610b3257829003601f168201915b505050505090506000838381518110610b6b57610b6a6129cf565b5b60200260200101519050806001600089815260200190815260200160002083604051610b9791906128e0565b90815260200160405180910390206000828254610bb4919061253e565b9250508190555050508080610bc8906127f0565b915050610a79565b5060016003600086815260200190815260200160002084604051610bf491906128e0565b908152602001604051809103902060006101000a81548160ff02191690831515021790555050505050565b6060600560009054906101000a900473ffffffffffffffffffffffffffffffffffffffff1673ffffffffffffffffffffffffffffffffffffffff163373ffffffffffffffffffffffffffffffffffffffff1614610cb1576040517f08c379a0000000000000000000000000000000000000000000000000000000008152600401610ca890612aea565b60405180910390fd5b42600460008481526020019081526020016000206004015410610d09576040517f08c379a0000000000000000000000000000000000000000000000000000000008152600401610d0090612b56565b60405180910390fd5b6000606060005b6004600086815260200190815260200160002060020154811015610e7057600060016000878152602001908152602001600020600460008881526020019081526020016000206003018381548110610d6b57610d6a6129cf565b5b90600052602060002001604051610d829190612bf9565b908152602001604051809103902054905083811115610e5c57809350600460008781526020019081526020016000206003018281548110610dc657610dc56129cf565b5b906000526020600020018054610ddb9061249c565b80601f0160208091040260200160405190810160405280929190818152602001828054610e079061249c565b8015610e545780601f10610e2957610100808354040283529160200191610e54565b820191906000526020600020905b815481529060010190602001808311610e3757829003601f168201915b505050505092505b508080610e68906127f0565b915050610d10565b508092505050919050565b606060006040518060200160405280600081525090506000805b6004600086815260200190815260200160002060020154811015610fca576000600460008781526020019081526020016000206003018281548110610edd57610edc6129cf565b5b906000526020600020018054610ef29061249c565b80601f0160208091040260200160405190810160405280929190818152602001828054610f1e9061249c565b8015610f6b5780601f10610f4057610100808354040283529160200191610f6b565b820191906000526020600020905b815481529060010190602001808311610f4e57829003601f168201915b5050505050905060006001600088815260200190815260200160002082604051610f9591906128e0565b908152602001604051809103902054905083811115610fb5578194508093505b50508080610fc2906127f0565b915050610e95565b508192505050919050565b600047905090565b600560009054906101000a900473ffffffffffffffffffffffffffffffffffffffff1673ffffffffffffffffffffffffffffffffffffffff163373ffffffffffffffffffffffffffffffffffffffff161461106d576040517f08c379a000000000000000000000000000000000000000000000000000000000815260040161106490612aea565b60405180910390fd5b3373ffffffffffffffffffffffffffffffffffffffff166108fc670de0b6b3a76400009081150290604051600060405180830381858888f193505050501580156110bb573d6000803e3d6000fd5b50565b606060046000838152602001908152602001600020600501805480602002602001604051908101604052809291908181526020016000905b828210156111a25783829060005260206000200180546111159061249c565b80601f01602080910402602001604051908101604052809291908181526020018280546111419061249c565b801561118e5780601f106111635761010080835404028352916020019161118e565b820191906000526020600020905b81548152906001019060200180831161117157829003601f168201915b5050505050815260200190600101906110f6565b505050509050919050565b600080600460008481526020019081526020016000206004015411611207576040517f08c379a00000000000000000000000000000000000000000000000000000000081526004016111fe90612c5c565b60405180910390fd5b4260046000848152602001908152602001600020600401541161125f576040517f08c379a000000000000000000000000000000000000000000000000000000000815260040161125690612cc8565b60405180910390fd5b600042600460008581526020019081526020016000206004015461128391906129fe565b905080915050919050565b60606000600460008481526020019081526020016000206002015467ffffffffffffffff8111156112c2576112c1611c3b565b5b6040519080825280602002602001820160405280156112f05781602001602082028036833780820191505090505b50905060005b600460008581526020019081526020016000206002015481101561143657600060046000868152602001908152602001600020600301828154811061133e5761133d6129cf565b5b9060005260206000200180546113539061249c565b80601f016020809104026020016040519081016040528092919081815260200182805461137f9061249c565b80156113cc5780601f106113a1576101008083540402835291602001916113cc565b820191906000526020600020905b8154815290600101906020018083116113af57829003601f168201915b5050505050905060016000868152602001908152602001600020816040516113f491906128e0565b908152602001604051809103902054838381518110611416576114156129cf565b5b60200260200101818152505050808061142e906127f0565b9150506112f6565b5080915050919050565b600160205281600052604060002081805160208101820180518482526020830160208501208183528095505050505050600091509150505481565b6000606060006060600060608060606000600460008b815260200190815260200160002060405180610100016040529081600082015481526020016001820180546114c59061249c565b80601f01602080910402602001604051908101604052809291908181526020018280546114f19061249c565b801561153e5780601f106115135761010080835404028352916020019161153e565b820191906000526020600020905b81548152906001019060200180831161152157829003601f168201915b505050505081526020016002820154815260200160038201805480602002602001604051908101604052809291908181526020016000905b828210156116225783829060005260206000200180546115959061249c565b80601f01602080910402602001604051908101604052809291908181526020018280546115c19061249c565b801561160e5780601f106115e35761010080835404028352916020019161160e565b820191906000526020600020905b8154815290600101906020018083116115f157829003601f168201915b505050505081526020019060010190611576565b5050505081526020016004820154815260200160058201805480602002602001604051908101604052809291908181526020016000905b828210156117055783829060005260206000200180546116789061249c565b80601f01602080910402602001604051908101604052809291908181526020018280546116a49061249c565b80156116f15780601f106116c6576101008083540402835291602001916116f1565b820191906000526020600020905b8154815290600101906020018083116116d457829003601f168201915b505050505081526020019060010190611659565b50505050815260200160068201805461171d9061249c565b80601f01602080910402602001604051908101604052809291908181526020018280546117499061249c565b80156117965780601f1061176b57610100808354040283529160200191611796565b820191906000526020600020905b81548152906001019060200180831161177957829003601f168201915b505050505081526020016007820180546117af9061249c565b80601f01602080910402602001604051908101604052809291908181526020018280546117db9061249c565b80156118285780601f106117fd57610100808354040283529160200191611828565b820191906000526020600020905b81548152906001019060200180831161180b57829003601f168201915b5050505050815250509050806000015181602001518260400151836060015184608001518560a001518660c001518760e001519850985098509850985098509850985050919395975091939597565b60606000805467ffffffffffffffff81111561189657611895611c3b565b5b6040519080825280602002602001820160405280156118c45781602001602082028036833780820191505090505b509050600080600190505b60005481116119c05760005b60046000838152602001908152602001600020600501805490508110156119ac57858051906020012060046000848152602001908152602001600020600501828154811061192c5761192b6129cf565b5b906000526020600020016040516119439190612d8b565b60405180910390200361199957600460008381526020019081526020016000206000015484848151811061197a576119796129cf565b5b6020026020010181815250508280611991906127f0565b9350506119ac565b80806119a4906127f0565b9150506118db565b5080806119b8906127f0565b9150506118cf565b508192505050919050565b828054828255906000526020600020908101928215611a13579160200282015b82811115611a12578251829081611a02919061271e565b50916020019190600101906119eb565b5b509050611a209190611a24565b5090565b5b80821115611a445760008181611a3b9190611a48565b50600101611a25565b5090565b508054611a549061249c565b6000825580601f10611a665750611a85565b601f016020900490600052602060002090810190611a849190611a88565b5b50565b5b80821115611aa1576000816000905550600101611a89565b5090565b6000604051905090565b600080fd5b600080fd5b6000819050919050565b611acc81611ab9565b8114611ad757600080fd5b50565b600081359050611ae981611ac3565b92915050565b600060208284031215611b0557611b04611aaf565b5b6000611b1384828501611ada565b91505092915050565b611b2581611ab9565b82525050565b600081519050919050565b600082825260208201905092915050565b60005b83811015611b65578082015181840152602081019050611b4a565b60008484015250505050565b6000601f19601f8301169050919050565b6000611b8d82611b2b565b611b978185611b36565b9350611ba7818560208601611b47565b611bb081611b71565b840191505092915050565b600060c082019050611bd06000830189611b1c565b8181036020830152611be28188611b82565b9050611bf16040830187611b1c565b611bfe6060830186611b1c565b8181036080830152611c108185611b82565b905081810360a0830152611c248184611b82565b9050979650505050505050565b600080fd5b600080fd5b7f4e487b7100000000000000000000000000000000000000000000000000000000600052604160045260246000fd5b611c7382611b71565b810181811067ffffffffffffffff82111715611c9257611c91611c3b565b5b80604052505050565b6000611ca5611aa5565b9050611cb18282611c6a565b919050565b600067ffffffffffffffff821115611cd157611cd0611c3b565b5b611cda82611b71565b9050602081019050919050565b82818337600083830152505050565b6000611d09611d0484611cb6565b611c9b565b905082815260208101848484011115611d2557611d24611c36565b5b611d30848285611ce7565b509392505050565b600082601f830112611d4d57611d4c611c31565b5b8135611d5d848260208601611cf6565b91505092915050565b600067ffffffffffffffff821115611d8157611d80611c3b565b5b602082029050602081019050919050565b600080fd5b6000611daa611da584611d66565b611c9b565b90508083825260208201905060208402830185811115611dcd57611dcc611d92565b5b835b81811015611e1457803567ffffffffffffffff811115611df257611df1611c31565b5b808601611dff8982611d38565b85526020850194505050602081019050611dcf565b5050509392505050565b600082601f830112611e3357611e32611c31565b5b8135611e43848260208601611d97565b91505092915050565b600080600080600080600080610100898b031215611e6d57611e6c611aaf565b5b6000611e7b8b828c01611ada565b985050602089013567ffffffffffffffff811115611e9c57611e9b611ab4565b5b611ea88b828c01611d38565b9750506040611eb98b828c01611ada565b965050606089013567ffffffffffffffff811115611eda57611ed9611ab4565b5b611ee68b828c01611e1e565b9550506080611ef78b828c01611ada565b94505060a089013567ffffffffffffffff811115611f1857611f17611ab4565b5b611f248b828c01611e1e565b93505060c089013567ffffffffffffffff811115611f4557611f44611ab4565b5b611f518b828c01611d38565b92505060e089013567ffffffffffffffff811115611f7257611f71611ab4565b5b611f7e8b828c01611d38565b9150509295985092959890939650565b6000602082019050611fa36000830184611b1c565b92915050565b600081519050919050565b600082825260208201905092915050565b6000819050602082019050919050565b600082825260208201905092915050565b6000611ff182611b2b565b611ffb8185611fd5565b935061200b818560208601611b47565b61201481611b71565b840191505092915050565b600061202b8383611fe6565b905092915050565b6000602082019050919050565b600061204b82611fa9565b6120558185611fb4565b93508360208202850161206785611fc5565b8060005b858110156120a35784840389528151612084858261201f565b945061208f83612033565b925060208a0199505060018101905061206b565b50829750879550505050505092915050565b600060208201905081810360008301526120cf8184612040565b905092915050565b600067ffffffffffffffff8211156120f2576120f1611c3b565b5b602082029050602081019050919050565b6000612116612111846120d7565b611c9b565b9050808382526020820190506020840283018581111561213957612138611d92565b5b835b81811015612162578061214e8882611ada565b84526020840193505060208101905061213b565b5050509392505050565b600082601f83011261218157612180611c31565b5b8135612191848260208601612103565b91505092915050565b6000806000606084860312156121b3576121b2611aaf565b5b60006121c186828701611ada565b935050602084013567ffffffffffffffff8111156121e2576121e1611ab4565b5b6121ee86828701611d38565b925050604084013567ffffffffffffffff81111561220f5761220e611ab4565b5b61221b8682870161216c565b9150509250925092565b6000602082019050818103600083015261223f8184611b82565b905092915050565b600081519050919050565b600082825260208201905092915050565b6000819050602082019050919050565b61227c81611ab9565b82525050565b600061228e8383612273565b60208301905092915050565b6000602082019050919050565b60006122b282612247565b6122bc8185612252565b93506122c783612263565b8060005b838110156122f85781516122df8882612282565b97506122ea8361229a565b9250506001810190506122cb565b5085935050505092915050565b6000602082019050818103600083015261231f81846122a7565b905092915050565b6000806040838503121561233e5761233d611aaf565b5b600061234c85828601611ada565b925050602083013567ffffffffffffffff81111561236d5761236c611ab4565b5b61237985828601611d38565b9150509250929050565b600061010082019050612399600083018b611b1c565b81810360208301526123ab818a611b82565b90506123ba6040830189611b1c565b81810360608301526123cc8188612040565b90506123db6080830187611b1c565b81810360a08301526123ed8186612040565b905081810360c08301526124018185611b82565b905081810360e08301526124158184611b82565b90509998505050505050505050565b60006020828403121561243a57612439611aaf565b5b600082013567ffffffffffffffff81111561245857612457611ab4565b5b61246484828501611d38565b91505092915050565b7f4e487b7100000000000000000000000000000000000000000000000000000000600052602260045260246000fd5b600060028204905060018216806124b457607f821691505b6020821081036124c7576124c661246d565b5b50919050565b7f4e487b7100000000000000000000000000000000000000000000000000000000600052601160045260246000fd5b600061250782611ab9565b915061251283611ab9565b925082820261252081611ab9565b91508282048414831517612537576125366124cd565b5b5092915050565b600061254982611ab9565b915061255483611ab9565b925082820190508082111561256c5761256b6124cd565b5b92915050565b60008190508160005260206000209050919050565b60006020601f8301049050919050565b600082821b905092915050565b6000600883026125d47fffffffffffffffffffffffffffffffffffffffffffffffffffffffffffffffff82612597565b6125de8683612597565b95508019841693508086168417925050509392505050565b6000819050919050565b600061261b61261661261184611ab9565b6125f6565b611ab9565b9050919050565b6000819050919050565b61263583612600565b61264961264182612622565b8484546125a4565b825550505050565b600090565b61265e612651565b61266981848461262c565b505050565b5b8181101561268d57612682600082612656565b60018101905061266f565b5050565b601f8211156126d2576126a381612572565b6126ac84612587565b810160208510156126bb578190505b6126cf6126c785612587565b83018261266e565b50505b505050565b600082821c905092915050565b60006126f5600019846008026126d7565b1980831691505092915050565b600061270e83836126e4565b9150826002028217905092915050565b61272782611b2b565b67ffffffffffffffff8111156127405761273f611c3b565b5b61274a825461249c565b612755828285612691565b600060209050601f8311600181146127885760008415612776578287015190505b6127808582612702565b8655506127e8565b601f19841661279686612572565b60005b828110156127be57848901518255600182019150602085019450602081019050612799565b868310156127db57848901516127d7601f8916826126e4565b8355505b6001600288020188555050505b505050505050565b60006127fb82611ab9565b91507fffffffffffffffffffffffffffffffffffffffffffffffffffffffffffffffff820361282d5761282c6124cd565b5b600182019050919050565b7f566f74696e6720706572696f642068617320656e646564000000000000000000600082015250565b600061286e601783611b36565b915061287982612838565b602082019050919050565b6000602082019050818103600083015261289d81612861565b9050919050565b600081905092915050565b60006128ba82611b2b565b6128c481856128a4565b93506128d4818560208601611b47565b80840191505092915050565b60006128ec82846128af565b915081905092915050565b7f596f75206861766520616c726561647920766f74656400000000000000000000600082015250565b600061292d601683611b36565b9150612938826128f7565b602082019050919050565b6000602082019050818103600083015261295c81612920565b9050919050565b7f496e76616c6964206e756d626572206f662072616e6b696e6773000000000000600082015250565b6000612999601a83611b36565b91506129a482612963565b602082019050919050565b600060208201905081810360008301526129c88161298c565b9050919050565b7f4e487b7100000000000000000000000000000000000000000000000000000000600052603260045260246000fd5b6000612a0982611ab9565b9150612a1483611ab9565b9250828203905081811115612a2c57612a2b6124cd565b5b92915050565b7f496e76616c69642063616e6469646174652072616e6b696e6700000000000000600082015250565b6000612a68601983611b36565b9150612a7382612a32565b602082019050919050565b60006020820190508181036000830152612a9781612a5b565b9050919050565b7f4e6f7420417574686f72697a6564000000000000000000000000000000000000600082015250565b6000612ad4600e83611b36565b9150612adf82612a9e565b602082019050919050565b60006020820190508181036000830152612b0381612ac7565b9050919050565b7f566f74696e6720706572696f6420686173206e6f7420656e6465642079657400600082015250565b6000612b40601f83611b36565b9150612b4b82612b0a565b602082019050919050565b60006020820190508181036000830152612b6f81612b33565b9050919050565b60008154612b838161249c565b612b8d81866128a4565b94506001821660008114612ba85760018114612bbd57612bf0565b60ff1983168652811515820286019350612bf0565b612bc685612572565b60005b83811015612be857815481890152600182019150602081019050612bc9565b838801955050505b50505092915050565b6000612c058284612b76565b915081905092915050565b7f506f6c6c20686173206e6f742073746172746564207965740000000000000000600082015250565b6000612c46601883611b36565b9150612c5182612c10565b602082019050919050565b60006020820190508181036000830152612c7581612c39565b9050919050565b7f506f6c6c2068617320656e646564000000000000000000000000000000000000600082015250565b6000612cb2600e83611b36565b9150612cbd82612c7c565b602082019050919050565b60006020820190508181036000830152612ce181612ca5565b9050919050565b600081905092915050565b60008190508160005260206000209050919050565b60008154612d158161249c565b612d1f8186612ce8565b94506001821660008114612d3a5760018114612d4f57612d82565b60ff1983168652811515820286019350612d82565b612d5885612cf3565b60005b83811015612d7a57815481890152600182019150602081019050612d5b565b838801955050505b50505092915050565b6000612d978284612d08565b91508190509291505056fea26469706673582212201a8825974be64324ad6c28116e7786a6db9c9baa3e196a9fd227329bc416119f64736f6c63430008120033",
  "immutableReferences": {},
  "source": "// SPDX-License-Identifier: GPL-3.0\r\n\r\npragma solidity >=0.7.0 <0.9.0;\r\n// import \"@openzeppelin/contracts/utils/Strings.sol\";\r\n\r\ncontract RankBasedVoting{\r\n    // using Strings for string;\r\n    uint public systemCount;\r\n    struct VotingSystem{\r\n        uint uniqueId;\r\n        string systemName;\r\n        uint numberOfCandidates;\r\n        string[] candidates;\r\n        uint votingPeriod;       \r\n        string[] votersForElection;\r\n        string electionHelderName;\r\n        string description;\r\n    }\r\n\r\n    mapping (uint => mapping (string => uint)) public differentSystemVotes;\r\n    mapping (uint => mapping (address => bool)) differentSystemVotingDone;\r\n    mapping (uint => mapping (string => bool)) differentPanCardsVoting;\r\n    mapping (uint => VotingSystem) public systems;\r\n\r\n    function getSystemDetails(uint _uniqueId) public view returns (uint, string memory, uint, string[] memory, uint, string[] memory, string memory, string memory) {\r\n        VotingSystem memory system = systems[_uniqueId];\r\n        return (system.uniqueId, system.systemName, system.numberOfCandidates, system.candidates, system.votingPeriod, system.votersForElection, system.electionHelderName, system.description);\r\n    }\r\n\r\n    function createSystem(uint _uniqueId, string memory _systemName, uint _numberOfCandidates, string[] memory _candidates,uint numberOfDays,string[] memory _votersForElection, string memory _electionHelderName,string memory _description) public   {\r\n        uint _votingPeriod = block.timestamp + (numberOfDays * 1 days);\r\n        VotingSystem memory system =  VotingSystem(_uniqueId,_systemName,_numberOfCandidates,_candidates,_votingPeriod,_votersForElection,_electionHelderName,_description);\r\n        systems[_uniqueId] = system;\r\n        systemCount++;\r\n    }\r\n\r\n    address payable owner;\r\n    mapping (address => uint) votingDone;\r\n  \r\n    constructor() {\r\n        owner = payable(msg.sender);\r\n    }\r\n\r\n    function showBalance() public view returns(uint) {\r\n        return address(this).balance;\r\n    }\r\n\r\n    // function voteKarteRaho(uint _uniqueId,string memory _candidateName,string memory _candidateAadhar) public  {\r\n    //     voteNow(_uniqueId,_candidateName,_candidateAadhar);\r\n    // }\r\n\r\n    function checkIfUserExists(uint _uniqueId,string memory _candidateAadhar) internal view returns(bool){\r\n        for(uint i=0;i<systems[_uniqueId].votersForElection.length;i++){\r\n            if (keccak256(bytes(systems[_uniqueId].votersForElection[i])) == keccak256(bytes(_candidateAadhar))){\r\n                return true;\r\n            }\r\n        }\r\n        return false;\r\n    }\r\n    function castRankVote(uint systemId, string memory voter, uint[] memory rankings) public {\r\n        // Make sure the voting period is open\r\n        require(block.timestamp < systems[systemId].votingPeriod, \"Voting period has ended\");\r\n        // Make sure the voter is eligible to vote\r\n        require(!differentPanCardsVoting[systemId][voter], \"You have already voted\");\r\n        // Make sure the rankings are valid\r\n        require(rankings.length == systems[systemId].numberOfCandidates, \"Invalid number of rankings\");\r\n        uint[] memory candidatePoints = new uint[](systems[systemId].numberOfCandidates);\r\n        for (uint i = 0; i < rankings.length; i++) {\r\n            uint candidateIndex = rankings[i] - 1; // Convert rank to index (1-based to 0-based)\r\n            require(candidateIndex < systems[systemId].numberOfCandidates, \"Invalid candidate ranking\");\r\n            candidatePoints[candidateIndex] += i + 1; // Assign points based on rank\r\n        }\r\n        // Update the vote count for each candidate\r\n        for (uint i = 0; i < systems[systemId].numberOfCandidates; i++) {\r\n            string memory candidateName = systems[systemId].candidates[i];\r\n            uint points = candidatePoints[i];\r\n            differentSystemVotes[systemId][candidateName] += points;\r\n        }\r\n        // Mark the voter as having voted\r\n        differentPanCardsVoting[systemId][voter] = true;\r\n    }\r\n\r\n    function getCandidateVoteCounts(uint systemId) public view returns (uint[] memory) {\r\n        uint[] memory voteCounts = new uint[](systems[systemId].numberOfCandidates);\r\n        for (uint i = 0; i < systems[systemId].numberOfCandidates; i++) {\r\n            string memory candidateName = systems[systemId].candidates[i];\r\n            voteCounts[i] = differentSystemVotes[systemId][candidateName];\r\n        }\r\n        return voteCounts;\r\n    }\r\n    \r\n    function getLeadingCandidate(uint systemId) public view returns (string memory) {\r\n        string memory leadingCandidate = \"\";\r\n        uint leadingVoteCount = 0;\r\n        for (uint i = 0; i < systems[systemId].numberOfCandidates; i++) {\r\n            string memory candidateName = systems[systemId].candidates[i];\r\n            uint voteCount = differentSystemVotes[systemId][candidateName];\r\n            if (voteCount > leadingVoteCount) {\r\n                leadingCandidate = candidateName;\r\n                leadingVoteCount = voteCount;\r\n            }\r\n        }\r\n        return leadingCandidate;\r\n    }\r\n\r\n\r\n    // function voteNow(uint _uniqueId,string memory _candidateName,string memory _candidateAadhar) internal{\r\n    //     require(checkIfUserExists(_uniqueId, _candidateAadhar),\"You are not Authorized to Vote\");\r\n    //     require(differentSystemVotingDone[_uniqueId][msg.sender]==false,\"You have already Voted\");\r\n    //     require(differentPanCardsVoting[_uniqueId][_candidateAadhar]==false,\"You have already Voted\");\r\n    //     require(systems[_uniqueId].votingPeriod >= block.timestamp, \"The voting time is Over!\");\r\n    //     differentSystemVotes[_uniqueId][_candidateName] +=1;\r\n    //     differentSystemVotingDone[_uniqueId][msg.sender] = true;\r\n    //     differentPanCardsVoting[_uniqueId][_candidateAadhar]=true;\r\n    // }\r\n\r\n    function getCandidates(uint _uniqueId) public view returns (string[] memory)  {\r\n        return systems[_uniqueId].candidates;\r\n    }\r\n\r\n    function getVoters(uint _uniqueId) public view returns (string[] memory)  {\r\n        return systems[_uniqueId].votersForElection;\r\n    }\r\n\r\n    function addMoneyToOwner() public payable{\r\n        require(msg.sender == owner, \"Not Authorized\");\r\n        payable(msg.sender).transfer(1 ether);\r\n    }\r\n\r\n    function getWinner(uint _uniqueId) public view returns (string memory) {\r\n        require(msg.sender == owner, \"Not Authorized\");\r\n        require(systems[_uniqueId].votingPeriod < block.timestamp, \"Voting period has not ended yet\");\r\n\r\n        uint maxVotes = 0;\r\n        string memory winner;\r\n\r\n        for (uint i = 0; i < systems[_uniqueId].numberOfCandidates; i++) {\r\n            uint candidateVotes = differentSystemVotes[_uniqueId][systems[_uniqueId].candidates[i]];\r\n            if (candidateVotes > maxVotes) {\r\n                maxVotes = candidateVotes;\r\n                winner = systems[_uniqueId].candidates[i];\r\n            }\r\n        }\r\n        return winner;\r\n    }\r\n\r\n    function getSystemIdsOfVoter(string memory _voterAddress) public view returns (uint[] memory) {\r\n        uint[] memory systemIds = new uint[](systemCount);\r\n        uint systemIndex = 0;\r\n        for (uint i = 1; i <= systemCount; i++) {\r\n            for (uint j = 0; j < systems[i].votersForElection.length; j++) {\r\n                if (keccak256(bytes(systems[i].votersForElection[j])) == keccak256(bytes(_voterAddress))) {\r\n                    systemIds[systemIndex] = systems[i].uniqueId;\r\n                    systemIndex++;\r\n                    break;\r\n                }\r\n            }\r\n        }\r\n        return systemIds;\r\n    }\r\n\r\n    function getTimeRemaining(uint _uniqueId) public view returns (uint) {\r\n        require(systems[_uniqueId].votingPeriod > 0, \"Poll has not started yet\");\r\n        require(systems[_uniqueId].votingPeriod > block.timestamp, \"Poll has ended\");\r\n\r\n        uint timeRemaining = systems[_uniqueId].votingPeriod - block.timestamp;\r\n\r\n        return timeRemaining;\r\n    }\r\n}",
  "sourcePath": "C:\\Users\\Anish Kulkarni\\Blockchain\\Code-a-palooza\\contracts\\RankBasedVoting.sol",
  "compiler": {
    "name": "solc",
    "version": "0.8.18+commit.87f61d96.Emscripten.clang"
  },
  "schemaVersion": "3.4.12",
  "updatedAt": "2023-03-04T20:06:46.104Z",
  "devdoc": {
    "kind": "dev",
    "methods": {},
    "version": 1
  },
  "userdoc": {
    "kind": "user",
    "methods": {},
    "version": 1
  }
}