{
  "contractName": "Voting",
  "abi": [
    {
      "inputs": [],
      "stateMutability": "nonpayable",
      "type": "constructor"
    },
    {
      "inputs": [
        {
          "internalType": "uint256",
          "name": "",
          "type": "uint256"
        },
        {
          "internalType": "string",
          "name": "",
          "type": "string"
        }
      ],
      "name": "differentSystemVotes",
      "outputs": [
        {
          "internalType": "uint256",
          "name": "",
          "type": "uint256"
        }
      ],
      "stateMutability": "view",
      "type": "function",
      "constant": true
    },
    {
      "inputs": [],
      "name": "systemCount",
      "outputs": [
        {
          "internalType": "uint256",
          "name": "",
          "type": "uint256"
        }
      ],
      "stateMutability": "view",
      "type": "function",
      "constant": true
    },
    {
      "inputs": [
        {
          "internalType": "uint256",
          "name": "",
          "type": "uint256"
        }
      ],
      "name": "systems",
      "outputs": [
        {
          "internalType": "uint256",
          "name": "uniqueId",
          "type": "uint256"
        },
        {
          "internalType": "string",
          "name": "systemName",
          "type": "string"
        },
        {
          "internalType": "uint256",
          "name": "numberOfCandidates",
          "type": "uint256"
        },
        {
          "internalType": "uint256",
          "name": "votingPeriod",
          "type": "uint256"
        },
        {
          "internalType": "string",
          "name": "electionHelderName",
          "type": "string"
        },
        {
          "internalType": "string",
          "name": "description",
          "type": "string"
        }
      ],
      "stateMutability": "view",
      "type": "function",
      "constant": true
    },
    {
      "inputs": [
        {
          "internalType": "uint256",
          "name": "_uniqueId",
          "type": "uint256"
        }
      ],
      "name": "getSystemDetails",
      "outputs": [
        {
          "internalType": "uint256",
          "name": "",
          "type": "uint256"
        },
        {
          "internalType": "string",
          "name": "",
          "type": "string"
        },
        {
          "internalType": "uint256",
          "name": "",
          "type": "uint256"
        },
        {
          "internalType": "string[]",
          "name": "",
          "type": "string[]"
        },
        {
          "internalType": "uint256",
          "name": "",
          "type": "uint256"
        },
        {
          "internalType": "string[]",
          "name": "",
          "type": "string[]"
        },
        {
          "internalType": "string",
          "name": "",
          "type": "string"
        },
        {
          "internalType": "string",
          "name": "",
          "type": "string"
        }
      ],
      "stateMutability": "view",
      "type": "function",
      "constant": true
    },
    {
      "inputs": [
        {
          "internalType": "uint256",
          "name": "_uniqueId",
          "type": "uint256"
        },
        {
          "internalType": "string",
          "name": "_systemName",
          "type": "string"
        },
        {
          "internalType": "uint256",
          "name": "_numberOfCandidates",
          "type": "uint256"
        },
        {
          "internalType": "string[]",
          "name": "_candidates",
          "type": "string[]"
        },
        {
          "internalType": "uint256",
          "name": "numberOfDays",
          "type": "uint256"
        },
        {
          "internalType": "string[]",
          "name": "_votersForElection",
          "type": "string[]"
        },
        {
          "internalType": "string",
          "name": "_electionHelderName",
          "type": "string"
        },
        {
          "internalType": "string",
          "name": "_description",
          "type": "string"
        }
      ],
      "name": "createSystem",
      "outputs": [],
      "stateMutability": "nonpayable",
      "type": "function"
    },
    {
      "inputs": [
        {
          "internalType": "uint256",
          "name": "_uniqueId",
          "type": "uint256"
        },
        {
          "internalType": "string",
          "name": "_candidateName",
          "type": "string"
        },
        {
          "internalType": "string",
          "name": "_candidateAadhar",
          "type": "string"
        }
      ],
      "name": "voteKarteRaho",
      "outputs": [],
      "stateMutability": "nonpayable",
      "type": "function"
    },
    {
      "inputs": [
        {
          "internalType": "uint256",
          "name": "_uniqueId",
          "type": "uint256"
        }
      ],
      "name": "getCandidates",
      "outputs": [
        {
          "internalType": "string[]",
          "name": "",
          "type": "string[]"
        }
      ],
      "stateMutability": "view",
      "type": "function",
      "constant": true
    },
    {
      "inputs": [
        {
          "internalType": "uint256",
          "name": "_uniqueId",
          "type": "uint256"
        }
      ],
      "name": "getVoters",
      "outputs": [
        {
          "internalType": "string[]",
          "name": "",
          "type": "string[]"
        }
      ],
      "stateMutability": "view",
      "type": "function",
      "constant": true
    },
    {
      "inputs": [],
      "name": "addMoneyToOwner",
      "outputs": [],
      "stateMutability": "payable",
      "type": "function",
      "payable": true
    },
    {
      "inputs": [
        {
          "internalType": "uint256",
          "name": "_uniqueId",
          "type": "uint256"
        }
      ],
      "name": "getWinner",
      "outputs": [
        {
          "internalType": "string",
          "name": "",
          "type": "string"
        }
      ],
      "stateMutability": "view",
      "type": "function",
      "constant": true
    },
    {
      "inputs": [
        {
          "internalType": "uint256",
          "name": "_uniqueId",
          "type": "uint256"
        }
      ],
      "name": "getTimeRemaining",
      "outputs": [
        {
          "internalType": "uint256",
          "name": "",
          "type": "uint256"
        }
      ],
      "stateMutability": "view",
      "type": "function",
      "constant": true
    },
    {
      "inputs": [
        {
          "internalType": "uint256",
          "name": "uniqueId",
          "type": "uint256"
        }
      ],
      "name": "getCandidateVoteCounts",
      "outputs": [
        {
          "internalType": "uint256[]",
          "name": "",
          "type": "uint256[]"
        }
      ],
      "stateMutability": "view",
      "type": "function",
      "constant": true
    },
    {
      "inputs": [
        {
          "internalType": "string",
          "name": "_voterAddress",
          "type": "string"
        }
      ],
      "name": "getSystemIdsOfVoter",
      "outputs": [
        {
          "internalType": "uint256[]",
          "name": "",
          "type": "uint256[]"
        }
      ],
      "stateMutability": "view",
      "type": "function",
      "constant": true
    }
  ],
  "bytecode": "0x608060405234801561001057600080fd5b5033600560006101000a81548173ffffffffffffffffffffffffffffffffffffffff021916908373ffffffffffffffffffffffffffffffffffffffff1602179055506128bb806100616000396000f3fe6080604052600436106100c25760003560e01c806386b646f21161007f578063b4ed7f7611610059578063b4ed7f7614610298578063c2967b5e146102c1578063cd9cf104146102fe578063cff29c1c14610342576100c2565b806386b646f2146101e15780638cd429911461021e5780639baafbcf1461025b576100c2565b80630ffca604146100c757806326906827146101095780633ab59bb6146101325780633e39a7a51461015d5780634129b2c91461019a57806384f3f148146101d7575b600080fd5b3480156100d357600080fd5b506100ee60048036038101906100e991906119fa565b61037f565b6040516101009695949392919061228d565b60405180910390f35b34801561011557600080fd5b50610130600480360381019061012b9190611b0e565b610553565b005b34801561013e57600080fd5b50610147610698565b60405161015491906121d1565b60405180910390f35b34801561016957600080fd5b50610184600480360381019061017f91906119fa565b61069e565b604051610191919061206b565b60405180910390f35b3480156101a657600080fd5b506101c160048036038101906101bc91906119fa565b61078d565b6040516101ce91906120af565b60405180910390f35b6101df6109e9565b005b3480156101ed57600080fd5b50610208600480360381019061020391906119fa565b610aca565b604051610215919061206b565b60405180910390f35b34801561022a57600080fd5b50610245600480360381019061024091906119fa565b610bb9565b60405161025291906121d1565b60405180910390f35b34801561026757600080fd5b50610282600480360381019061027d91906119fa565b610c9a565b60405161028f919061208d565b60405180910390f35b3480156102a457600080fd5b506102bf60048036038101906102ba9190611a83565b610e01565b005b3480156102cd57600080fd5b506102e860048036038101906102e39190611a27565b610e11565b6040516102f591906121d1565b60405180910390f35b34801561030a57600080fd5b50610325600480360381019061032091906119fa565b610e4c565b6040516103399897969594939291906121ec565b60405180910390f35b34801561034e57600080fd5b50610369600480360381019061036491906119b1565b611248565b604051610376919061208d565b60405180910390f35b60046020528060005260406000206000915090508060000154908060010180546103a890612594565b80601f01602080910402602001604051908101604052809291908181526020018280546103d490612594565b80156104215780601f106103f657610100808354040283529160200191610421565b820191906000526020600020905b81548152906001019060200180831161040457829003601f168201915b50505050509080600201549080600401549080600601805461044290612594565b80601f016020809104026020016040519081016040528092919081815260200182805461046e90612594565b80156104bb5780601f10610490576101008083540402835291602001916104bb565b820191906000526020600020905b81548152906001019060200180831161049e57829003601f168201915b5050505050908060070180546104d090612594565b80601f01602080910402602001604051908101604052809291908181526020018280546104fc90612594565b80156105495780601f1061051e57610100808354040283529160200191610549565b820191906000526020600020905b81548152906001019060200180831161052c57829003601f168201915b5050505050905086565b6000620151808561056491906124ba565b4261056f9190612464565b905060006040518061010001604052808b81526020018a815260200189815260200188815260200183815260200186815260200185815260200184815250905080600460008c81526020019081526020016000206000820151816000015560208201518160010190805190602001906105e9929190611709565b5060408201518160020155606082015181600301908051906020019061061092919061178f565b506080820151816004015560a082015181600501908051906020019061063792919061178f565b5060c0820151816006019080519060200190610654929190611709565b5060e0820151816007019080519060200190610671929190611709565b50905050600080815480929190610687906125f7565b919050555050505050505050505050565b60005481565b606060046000838152602001908152602001600020600301805480602002602001604051908101604052809291908181526020016000905b828210156107825783829060005260206000200180546106f590612594565b80601f016020809104026020016040519081016040528092919081815260200182805461072190612594565b801561076e5780601f106107435761010080835404028352916020019161076e565b820191906000526020600020905b81548152906001019060200180831161075157829003601f168201915b5050505050815260200190600101906106d6565b505050509050919050565b6060600560009054906101000a900473ffffffffffffffffffffffffffffffffffffffff1673ffffffffffffffffffffffffffffffffffffffff163373ffffffffffffffffffffffffffffffffffffffff161461081f576040517f08c379a000000000000000000000000000000000000000000000000000000000815260040161081690612111565b60405180910390fd5b42600460008481526020019081526020016000206004015410610877576040517f08c379a000000000000000000000000000000000000000000000000000000000815260040161086e90612151565b60405180910390fd5b6000606060005b60046000868152602001908152602001600020600201548110156109de576000600160008781526020019081526020016000206004600088815260200190815260200160002060030183815481106108d9576108d861269e565b5b906000526020600020016040516108f09190612054565b9081526020016040518091039020549050838111156109ca578093506004600087815260200190815260200160002060030182815481106109345761093361269e565b5b90600052602060002001805461094990612594565b80601f016020809104026020016040519081016040528092919081815260200182805461097590612594565b80156109c25780601f10610997576101008083540402835291602001916109c2565b820191906000526020600020905b8154815290600101906020018083116109a557829003601f168201915b505050505092505b5080806109d6906125f7565b91505061087e565b508092505050919050565b600560009054906101000a900473ffffffffffffffffffffffffffffffffffffffff1673ffffffffffffffffffffffffffffffffffffffff163373ffffffffffffffffffffffffffffffffffffffff1614610a79576040517f08c379a0000000000000000000000000000000000000000000000000000000008152600401610a7090612111565b60405180910390fd5b3373ffffffffffffffffffffffffffffffffffffffff166108fc670de0b6b3a76400009081150290604051600060405180830381858888f19350505050158015610ac7573d6000803e3d6000fd5b50565b606060046000838152602001908152602001600020600501805480602002602001604051908101604052809291908181526020016000905b82821015610bae578382906000526020600020018054610b2190612594565b80601f0160208091040260200160405190810160405280929190818152602001828054610b4d90612594565b8015610b9a5780601f10610b6f57610100808354040283529160200191610b9a565b820191906000526020600020905b815481529060010190602001808311610b7d57829003601f168201915b505050505081526020019060010190610b02565b505050509050919050565b600080600460008481526020019081526020016000206004015411610c13576040517f08c379a0000000000000000000000000000000000000000000000000000000008152600401610c0a90612171565b60405180910390fd5b42600460008481526020019081526020016000206004015411610c6b576040517f08c379a0000000000000000000000000000000000000000000000000000000008152600401610c62906120f1565b60405180910390fd5b6000426004600085815260200190815260200160002060040154610c8f9190612514565b905080915050919050565b60606000821415610ce0576040517f08c379a0000000000000000000000000000000000000000000000000000000008152600401610cd7906120d1565b60405180910390fd5b6000600460008481526020019081526020016000206002015467ffffffffffffffff811115610d1257610d116126cd565b5b604051908082528060200260200182016040528015610d405781602001602082028036833780820191505090505b50905060005b6004600085815260200190815260200160002060020154811015610df75760016000858152602001908152602001600020600460008681526020019081526020016000206003018281548110610d9f57610d9e61269e565b5b90600052602060002001604051610db69190612054565b908152602001604051809103902054828281518110610dd857610dd761269e565b5b6020026020010181815250508080610def906125f7565b915050610d46565b5080915050919050565b610e0c83838361139d565b505050565b600160205281600052604060002081805160208101820180518482526020830160208501208183528095505050505050600091509150505481565b6000606060006060600060608060606000600460008b81526020019081526020016000206040518061010001604052908160008201548152602001600182018054610e9690612594565b80601f0160208091040260200160405190810160405280929190818152602001828054610ec290612594565b8015610f0f5780601f10610ee457610100808354040283529160200191610f0f565b820191906000526020600020905b815481529060010190602001808311610ef257829003601f168201915b505050505081526020016002820154815260200160038201805480602002602001604051908101604052809291908181526020016000905b82821015610ff3578382906000526020600020018054610f6690612594565b80601f0160208091040260200160405190810160405280929190818152602001828054610f9290612594565b8015610fdf5780601f10610fb457610100808354040283529160200191610fdf565b820191906000526020600020905b815481529060010190602001808311610fc257829003601f168201915b505050505081526020019060010190610f47565b5050505081526020016004820154815260200160058201805480602002602001604051908101604052809291908181526020016000905b828210156110d657838290600052602060002001805461104990612594565b80601f016020809104026020016040519081016040528092919081815260200182805461107590612594565b80156110c25780601f10611097576101008083540402835291602001916110c2565b820191906000526020600020905b8154815290600101906020018083116110a557829003601f168201915b50505050508152602001906001019061102a565b5050505081526020016006820180546110ee90612594565b80601f016020809104026020016040519081016040528092919081815260200182805461111a90612594565b80156111675780601f1061113c57610100808354040283529160200191611167565b820191906000526020600020905b81548152906001019060200180831161114a57829003601f168201915b5050505050815260200160078201805461118090612594565b80601f01602080910402602001604051908101604052809291908181526020018280546111ac90612594565b80156111f95780601f106111ce576101008083540402835291602001916111f9565b820191906000526020600020905b8154815290600101906020018083116111dc57829003601f168201915b5050505050815250509050806000015181602001518260400151836060015184608001518560a001518660c001518760e001519850985098509850985098509850985050919395975091939597565b60606000805467ffffffffffffffff811115611267576112666126cd565b5b6040519080825280602002602001820160405280156112955781602001602082028036833780820191505090505b509050600080600190505b60005481116113925760005b600460008381526020019081526020016000206005018054905081101561137e5785805190602001206004600084815260200190815260200160002060050182815481106112fd576112fc61269e565b5b906000526020600020016040516113149190612026565b6040518091039020141561136b57600460008381526020019081526020016000206000015484848151811061134c5761134b61269e565b5b6020026020010181815250508280611363906125f7565b93505061137e565b8080611376906125f7565b9150506112ac565b50808061138a906125f7565b9150506112a0565b508192505050919050565b6113a78382611662565b6113e6576040517f08c379a00000000000000000000000000000000000000000000000000000000081526004016113dd906121b1565b60405180910390fd5b600015156002600085815260200190815260200160002060003373ffffffffffffffffffffffffffffffffffffffff1673ffffffffffffffffffffffffffffffffffffffff16815260200190815260200160002060009054906101000a900460ff1615151461148a576040517f08c379a000000000000000000000000000000000000000000000000000000000815260040161148190612131565b60405180910390fd5b6000151560036000858152602001908152602001600020826040516114af919061203d565b908152602001604051809103902060009054906101000a900460ff1615151461150d576040517f08c379a000000000000000000000000000000000000000000000000000000000815260040161150490612131565b60405180910390fd5b4260046000858152602001908152602001600020600401541015611566576040517f08c379a000000000000000000000000000000000000000000000000000000000815260040161155d90612191565b60405180910390fd5b600180600085815260200190815260200160002083604051611588919061203d565b908152602001604051809103902060008282546115a59190612464565b9250508190555060016002600085815260200190815260200160002060003373ffffffffffffffffffffffffffffffffffffffff1673ffffffffffffffffffffffffffffffffffffffff16815260200190815260200160002060006101000a81548160ff02191690831515021790555060016003600085815260200190815260200160002082604051611638919061203d565b908152602001604051809103902060006101000a81548160ff021916908315150217905550505050565b600080600090505b60046000858152602001908152602001600020600501805490508110156116fd5782805190602001206004600086815260200190815260200160002060050182815481106116bb576116ba61269e565b5b906000526020600020016040516116d29190612026565b604051809103902014156116ea576001915050611703565b80806116f5906125f7565b91505061166a565b50600090505b92915050565b82805461171590612594565b90600052602060002090601f016020900481019282611737576000855561177e565b82601f1061175057805160ff191683800117855561177e565b8280016001018555821561177e579182015b8281111561177d578251825591602001919060010190611762565b5b50905061178b91906117ef565b5090565b8280548282559060005260206000209081019282156117de579160200282015b828111156117dd5782518290805190602001906117cd929190611709565b50916020019190600101906117af565b5b5090506117eb919061180c565b5090565b5b808211156118085760008160009055506001016117f0565b5090565b5b8082111561182c57600081816118239190611830565b5060010161180d565b5090565b50805461183c90612594565b6000825580601f1061184e575061186d565b601f01602090049060005260206000209081019061186c91906117ef565b5b50565b600061188361187e84612328565b612303565b905080838252602082019050828560208602820111156118a6576118a5612701565b5b60005b858110156118f457813567ffffffffffffffff8111156118cc576118cb6126fc565b5b8086016118d9898261196e565b855260208501945060208401935050506001810190506118a9565b5050509392505050565b600061191161190c84612354565b612303565b90508281526020810184848401111561192d5761192c612706565b5b611938848285612552565b509392505050565b600082601f830112611955576119546126fc565b5b8135611965848260208601611870565b91505092915050565b600082601f830112611983576119826126fc565b5b81356119938482602086016118fe565b91505092915050565b6000813590506119ab8161286e565b92915050565b6000602082840312156119c7576119c6612710565b5b600082013567ffffffffffffffff8111156119e5576119e461270b565b5b6119f18482850161196e565b91505092915050565b600060208284031215611a1057611a0f612710565b5b6000611a1e8482850161199c565b91505092915050565b60008060408385031215611a3e57611a3d612710565b5b6000611a4c8582860161199c565b925050602083013567ffffffffffffffff811115611a6d57611a6c61270b565b5b611a798582860161196e565b9150509250929050565b600080600060608486031215611a9c57611a9b612710565b5b6000611aaa8682870161199c565b935050602084013567ffffffffffffffff811115611acb57611aca61270b565b5b611ad78682870161196e565b925050604084013567ffffffffffffffff811115611af857611af761270b565b5b611b048682870161196e565b9150509250925092565b600080600080600080600080610100898b031215611b2f57611b2e612710565b5b6000611b3d8b828c0161199c565b985050602089013567ffffffffffffffff811115611b5e57611b5d61270b565b5b611b6a8b828c0161196e565b9750506040611b7b8b828c0161199c565b965050606089013567ffffffffffffffff811115611b9c57611b9b61270b565b5b611ba88b828c01611940565b9550506080611bb98b828c0161199c565b94505060a089013567ffffffffffffffff811115611bda57611bd961270b565b5b611be68b828c01611940565b93505060c089013567ffffffffffffffff811115611c0757611c0661270b565b5b611c138b828c0161196e565b92505060e089013567ffffffffffffffff811115611c3457611c3361270b565b5b611c408b828c0161196e565b9150509295985092959890939650565b6000611c5c8383611dce565b905092915050565b6000611c708383612008565b60208301905092915050565b6000611c87826123cf565b611c91818561240a565b935083602082028501611ca385612385565b8060005b85811015611cdf5784840389528151611cc08582611c50565b9450611ccb836123f0565b925060208a01995050600181019050611ca7565b50829750879550505050505092915050565b6000611cfc826123da565b611d06818561241b565b9350611d1183612395565b8060005b83811015611d42578151611d298882611c64565b9750611d34836123fd565b925050600181019050611d15565b5085935050505092915050565b60008154611d5c81612594565b611d66818661242c565b94506001821660008114611d815760018114611d9257611dc5565b60ff19831686528186019350611dc5565b611d9b856123a5565b60005b83811015611dbd57815481890152600182019150602081019050611d9e565b838801955050505b50505092915050565b6000611dd9826123e5565b611de38185612437565b9350611df3818560208601612561565b611dfc81612715565b840191505092915050565b6000611e12826123e5565b611e1c8185612448565b9350611e2c818560208601612561565b611e3581612715565b840191505092915050565b6000611e4b826123e5565b611e558185612459565b9350611e65818560208601612561565b80840191505092915050565b60008154611e7e81612594565b611e888186612459565b94506001821660008114611ea35760018114611eb457611ee7565b60ff19831686528186019350611ee7565b611ebd856123ba565b60005b83811015611edf57815481890152600182019150602081019050611ec0565b838801955050505b50505092915050565b6000611efd601183612448565b9150611f0882612726565b602082019050919050565b6000611f20600e83612448565b9150611f2b8261274f565b602082019050919050565b6000611f43600e83612448565b9150611f4e82612778565b602082019050919050565b6000611f66601683612448565b9150611f71826127a1565b602082019050919050565b6000611f89601f83612448565b9150611f94826127ca565b602082019050919050565b6000611fac601883612448565b9150611fb7826127f3565b602082019050919050565b6000611fcf601883612448565b9150611fda8261281c565b602082019050919050565b6000611ff2601e83612448565b9150611ffd82612845565b602082019050919050565b61201181612548565b82525050565b61202081612548565b82525050565b60006120328284611d4f565b915081905092915050565b60006120498284611e40565b915081905092915050565b60006120608284611e71565b915081905092915050565b600060208201905081810360008301526120858184611c7c565b905092915050565b600060208201905081810360008301526120a78184611cf1565b905092915050565b600060208201905081810360008301526120c98184611e07565b905092915050565b600060208201905081810360008301526120ea81611ef0565b9050919050565b6000602082019050818103600083015261210a81611f13565b9050919050565b6000602082019050818103600083015261212a81611f36565b9050919050565b6000602082019050818103600083015261214a81611f59565b9050919050565b6000602082019050818103600083015261216a81611f7c565b9050919050565b6000602082019050818103600083015261218a81611f9f565b9050919050565b600060208201905081810360008301526121aa81611fc2565b9050919050565b600060208201905081810360008301526121ca81611fe5565b9050919050565b60006020820190506121e66000830184612017565b92915050565b600061010082019050612202600083018b612017565b8181036020830152612214818a611e07565b90506122236040830189612017565b81810360608301526122358188611c7c565b90506122446080830187612017565b81810360a08301526122568186611c7c565b905081810360c083015261226a8185611e07565b905081810360e083015261227e8184611e07565b90509998505050505050505050565b600060c0820190506122a26000830189612017565b81810360208301526122b48188611e07565b90506122c36040830187612017565b6122d06060830186612017565b81810360808301526122e28185611e07565b905081810360a08301526122f68184611e07565b9050979650505050505050565b600061230d61231e565b905061231982826125c6565b919050565b6000604051905090565b600067ffffffffffffffff821115612343576123426126cd565b5b602082029050602081019050919050565b600067ffffffffffffffff82111561236f5761236e6126cd565b5b61237882612715565b9050602081019050919050565b6000819050602082019050919050565b6000819050602082019050919050565b60008190508160005260206000209050919050565b60008190508160005260206000209050919050565b600081519050919050565b600081519050919050565b600081519050919050565b6000602082019050919050565b6000602082019050919050565b600082825260208201905092915050565b600082825260208201905092915050565b600081905092915050565b600082825260208201905092915050565b600082825260208201905092915050565b600081905092915050565b600061246f82612548565b915061247a83612548565b9250827fffffffffffffffffffffffffffffffffffffffffffffffffffffffffffffffff038211156124af576124ae612640565b5b828201905092915050565b60006124c582612548565b91506124d083612548565b9250817fffffffffffffffffffffffffffffffffffffffffffffffffffffffffffffffff048311821515161561250957612508612640565b5b828202905092915050565b600061251f82612548565b915061252a83612548565b92508282101561253d5761253c612640565b5b828203905092915050565b6000819050919050565b82818337600083830152505050565b60005b8381101561257f578082015181840152602081019050612564565b8381111561258e576000848401525b50505050565b600060028204905060018216806125ac57607f821691505b602082108114156125c0576125bf61266f565b5b50919050565b6125cf82612715565b810181811067ffffffffffffffff821117156125ee576125ed6126cd565b5b80604052505050565b600061260282612548565b91507fffffffffffffffffffffffffffffffffffffffffffffffffffffffffffffffff82141561263557612634612640565b5b600182019050919050565b7f4e487b7100000000000000000000000000000000000000000000000000000000600052601160045260246000fd5b7f4e487b7100000000000000000000000000000000000000000000000000000000600052602260045260246000fd5b7f4e487b7100000000000000000000000000000000000000000000000000000000600052603260045260246000fd5b7f4e487b7100000000000000000000000000000000000000000000000000000000600052604160045260246000fd5b600080fd5b600080fd5b600080fd5b600080fd5b600080fd5b6000601f19601f8301169050919050565b7f496e76616c696420756e69717565204944000000000000000000000000000000600082015250565b7f506f6c6c2068617320656e646564000000000000000000000000000000000000600082015250565b7f4e6f7420417574686f72697a6564000000000000000000000000000000000000600082015250565b7f596f75206861766520616c726561647920566f74656400000000000000000000600082015250565b7f566f74696e6720706572696f6420686173206e6f7420656e6465642079657400600082015250565b7f506f6c6c20686173206e6f742073746172746564207965740000000000000000600082015250565b7f54686520766f74696e672074696d65206973204f766572210000000000000000600082015250565b7f596f7520617265206e6f7420417574686f72697a656420746f20566f74650000600082015250565b61287781612548565b811461288257600080fd5b5056fea2646970667358221220be5baa5d44ad7b11643ba0ae98bc2a28ef29b2677fe041836a6bba3b939c2b5564736f6c63430008070033",
  "immutableReferences": {},
  "source": "// SPDX-License-Identifier: GPL-3.0\r\n\r\npragma solidity >=0.7.0 <0.9.0;\r\n// import \"@openzeppelin/contracts/utils/Strings.sol\";\r\n\r\ncontract Voting{\r\n    // using Strings for string;\r\n    uint public systemCount;\r\n    struct VotingSystem{\r\n        uint uniqueId;\r\n        string systemName;\r\n        uint numberOfCandidates;\r\n        string[] candidates;\r\n        uint votingPeriod;       \r\n        string[] votersForElection;\r\n        string electionHelderName;\r\n        string description;\r\n    }\r\n\r\n    mapping (uint => mapping (string => uint)) public differentSystemVotes;\r\n    mapping (uint => mapping (address => bool)) differentSystemVotingDone;\r\n    mapping (uint => mapping (string => bool)) differentPanCardsVoting;\r\n    mapping (uint => VotingSystem) public systems;\r\n\r\n    function getSystemDetails(uint _uniqueId) public view returns (uint, string memory, uint, string[] memory, uint, string[] memory, string memory, string memory) {\r\n        VotingSystem memory system = systems[_uniqueId];\r\n        return (system.uniqueId, system.systemName, system.numberOfCandidates, system.candidates, system.votingPeriod, system.votersForElection, system.electionHelderName, system.description);\r\n    }\r\n\r\n    function createSystem(uint _uniqueId, string memory _systemName, uint _numberOfCandidates, string[] memory _candidates,uint numberOfDays,string[] memory _votersForElection, string memory _electionHelderName,string memory _description) public   {\r\n        uint _votingPeriod = block.timestamp + (numberOfDays * 1 days);\r\n        VotingSystem memory system =  VotingSystem(_uniqueId,_systemName,_numberOfCandidates,_candidates,_votingPeriod,_votersForElection,_electionHelderName,_description);\r\n        systems[_uniqueId] = system;\r\n        systemCount++;\r\n    }\r\n\r\n    address payable owner;\r\n    mapping (address => uint) votingDone;\r\n  \r\n    constructor() {\r\n        owner = payable(msg.sender);\r\n    }\r\n\r\n    // function showBalance() public view returns(uint) {\r\n    //     return address(this).balance;\r\n    // }\r\n\r\n    function voteKarteRaho(uint _uniqueId,string memory _candidateName,string memory _candidateAadhar) public  {\r\n        voteNow(_uniqueId,_candidateName,_candidateAadhar);\r\n    }\r\n\r\n    function checkIfUserExists(uint _uniqueId,string memory _candidateAadhar) internal view returns(bool){\r\n        for(uint i=0;i<systems[_uniqueId].votersForElection.length;i++){\r\n            if (keccak256(bytes(systems[_uniqueId].votersForElection[i])) == keccak256(bytes(_candidateAadhar))){\r\n                return true;\r\n            }\r\n        }\r\n        return false;\r\n    }\r\n\r\n    function voteNow(uint _uniqueId,string memory _candidateName,string memory _candidateAadhar) internal{\r\n        require(checkIfUserExists(_uniqueId, _candidateAadhar),\"You are not Authorized to Vote\");\r\n        require(differentSystemVotingDone[_uniqueId][msg.sender]==false,\"You have already Voted\");\r\n        require(differentPanCardsVoting[_uniqueId][_candidateAadhar]==false,\"You have already Voted\");\r\n        require(systems[_uniqueId].votingPeriod >= block.timestamp, \"The voting time is Over!\");\r\n        differentSystemVotes[_uniqueId][_candidateName] +=1;\r\n        differentSystemVotingDone[_uniqueId][msg.sender] = true;\r\n        differentPanCardsVoting[_uniqueId][_candidateAadhar]=true;\r\n    }\r\n\r\n    function getCandidates(uint _uniqueId) public view returns (string[] memory)  {\r\n        return systems[_uniqueId].candidates;\r\n    }\r\n\r\n    function getVoters(uint _uniqueId) public view returns (string[] memory)  {\r\n        return systems[_uniqueId].votersForElection;\r\n    }\r\n\r\n    function addMoneyToOwner() public payable{\r\n        require(msg.sender == owner, \"Not Authorized\");\r\n        payable(msg.sender).transfer(1 ether);\r\n    }\r\n\r\n    function getWinner(uint _uniqueId) public view returns (string memory) {\r\n        require(msg.sender == owner, \"Not Authorized\");\r\n        require(systems[_uniqueId].votingPeriod < block.timestamp, \"Voting period has not ended yet\");\r\n\r\n        uint maxVotes = 0;\r\n        string memory winner;\r\n\r\n        for (uint i = 0; i < systems[_uniqueId].numberOfCandidates; i++) {\r\n            uint candidateVotes = differentSystemVotes[_uniqueId][systems[_uniqueId].candidates[i]];\r\n            if (candidateVotes > maxVotes) {\r\n                maxVotes = candidateVotes;\r\n                winner = systems[_uniqueId].candidates[i];\r\n            }\r\n        }\r\n        return winner;\r\n    }\r\n\r\n    function getTimeRemaining(uint _uniqueId) public view returns (uint) {\r\n        require(systems[_uniqueId].votingPeriod > 0, \"Poll has not started yet\");\r\n        require(systems[_uniqueId].votingPeriod > block.timestamp, \"Poll has ended\");\r\n\r\n        uint timeRemaining = systems[_uniqueId].votingPeriod - block.timestamp;\r\n\r\n        return timeRemaining;\r\n    }\r\n\r\n    function getCandidateVoteCounts(uint uniqueId) public view returns (uint[] memory) {\r\n        require(uniqueId != 0, \"Invalid unique ID\");\r\n\r\n        uint[] memory voteCounts = new uint[](systems[uniqueId].numberOfCandidates);\r\n        for (uint i = 0; i < systems[uniqueId].numberOfCandidates; i++) {\r\n            voteCounts[i] = differentSystemVotes[uniqueId][systems[uniqueId].candidates[i]];\r\n        }\r\n        return voteCounts;\r\n    }\r\n    \r\n    function getSystemIdsOfVoter(string memory _voterAddress) public view returns (uint[] memory) {\r\n        uint[] memory systemIds = new uint[](systemCount);\r\n        uint systemIndex = 0;\r\n        for (uint i = 1; i <= systemCount; i++) {\r\n            for (uint j = 0; j < systems[i].votersForElection.length; j++) {\r\n                if (keccak256(bytes(systems[i].votersForElection[j])) == keccak256(bytes(_voterAddress))) {\r\n                    systemIds[systemIndex] = systems[i].uniqueId;\r\n                    systemIndex++;\r\n                    break;\r\n                }\r\n            }\r\n        }\r\n        return systemIds;\r\n    }\r\n//     function getUniqueIdsForVoter() public view returns(uint[] memory) {\r\n//     uint[] memory result = new uint[](systemCount);\r\n//     uint counter = 0;\r\n//     for(uint i = 0; i < systemCount; i++) {\r\n//         if(differentSystemVotingDone[i][msg.sender] || checkIfUserExists(i, msg.sender)) {\r\n//             result[counter] = i;\r\n//             counter++;\r\n//         }\r\n//     }\r\n//     return result;\r\n// }\r\n\r\n}",
  "sourcePath": "C:\\Users\\Anish Kulkarni\\Blockchain\\Code-a-palooza\\contracts\\Voting.sol",
  "compiler": {
    "name": "solc",
    "version": "0.8.7+commit.e28d00a7.Emscripten.clang"
  },
  "schemaVersion": "3.4.12",
  "updatedAt": "2023-03-05T02:28:29.088Z",
  "networkType": "ethereum",
  "devdoc": {
    "kind": "dev",
    "methods": {},
    "version": 1
  },
  "userdoc": {
    "kind": "user",
    "methods": {},
    "version": 1
  }
}