{
  "contractName": "Voting",
  "abi": [
    {
      "inputs": [],
      "stateMutability": "nonpayable",
      "type": "constructor"
    },
    {
      "inputs": [
        {
          "internalType": "uint256",
          "name": "",
          "type": "uint256"
        },
        {
          "internalType": "string",
          "name": "",
          "type": "string"
        }
      ],
      "name": "differentSystemVotes",
      "outputs": [
        {
          "internalType": "uint256",
          "name": "",
          "type": "uint256"
        }
      ],
      "stateMutability": "view",
      "type": "function"
    },
    {
      "inputs": [],
      "name": "systemCount",
      "outputs": [
        {
          "internalType": "uint256",
          "name": "",
          "type": "uint256"
        }
      ],
      "stateMutability": "view",
      "type": "function"
    },
    {
      "inputs": [
        {
          "internalType": "uint256",
          "name": "",
          "type": "uint256"
        }
      ],
      "name": "systems",
      "outputs": [
        {
          "internalType": "uint256",
          "name": "uniqueId",
          "type": "uint256"
        },
        {
          "internalType": "string",
          "name": "systemName",
          "type": "string"
        },
        {
          "internalType": "uint256",
          "name": "numberOfCandidates",
          "type": "uint256"
        },
        {
          "internalType": "uint256",
          "name": "votingPeriod",
          "type": "uint256"
        },
        {
          "internalType": "string",
          "name": "electionHelderName",
          "type": "string"
        },
        {
          "internalType": "string",
          "name": "description",
          "type": "string"
        }
      ],
      "stateMutability": "view",
      "type": "function"
    },
    {
      "inputs": [
        {
          "internalType": "uint256",
          "name": "_uniqueId",
          "type": "uint256"
        }
      ],
      "name": "getSystemDetails",
      "outputs": [
        {
          "internalType": "uint256",
          "name": "",
          "type": "uint256"
        },
        {
          "internalType": "string",
          "name": "",
          "type": "string"
        },
        {
          "internalType": "uint256",
          "name": "",
          "type": "uint256"
        },
        {
          "internalType": "string[]",
          "name": "",
          "type": "string[]"
        },
        {
          "internalType": "uint256",
          "name": "",
          "type": "uint256"
        },
        {
          "internalType": "string[]",
          "name": "",
          "type": "string[]"
        },
        {
          "internalType": "string",
          "name": "",
          "type": "string"
        },
        {
          "internalType": "string",
          "name": "",
          "type": "string"
        }
      ],
      "stateMutability": "view",
      "type": "function"
    },
    {
      "inputs": [
        {
          "internalType": "uint256",
          "name": "_uniqueId",
          "type": "uint256"
        },
        {
          "internalType": "string",
          "name": "_systemName",
          "type": "string"
        },
        {
          "internalType": "uint256",
          "name": "_numberOfCandidates",
          "type": "uint256"
        },
        {
          "internalType": "string[]",
          "name": "_candidates",
          "type": "string[]"
        },
        {
          "internalType": "uint256",
          "name": "numberOfDays",
          "type": "uint256"
        },
        {
          "internalType": "string[]",
          "name": "_votersForElection",
          "type": "string[]"
        },
        {
          "internalType": "string",
          "name": "_electionHelderName",
          "type": "string"
        },
        {
          "internalType": "string",
          "name": "_description",
          "type": "string"
        }
      ],
      "name": "createSystem",
      "outputs": [],
      "stateMutability": "nonpayable",
      "type": "function"
    },
    {
      "inputs": [
        {
          "internalType": "uint256",
          "name": "_uniqueId",
          "type": "uint256"
        },
        {
          "internalType": "string",
          "name": "_candidateName",
          "type": "string"
        },
        {
          "internalType": "string",
          "name": "_candidateAadhar",
          "type": "string"
        }
      ],
      "name": "voteKarteRaho",
      "outputs": [],
      "stateMutability": "nonpayable",
      "type": "function"
    },
    {
      "inputs": [
        {
          "internalType": "uint256",
          "name": "_uniqueId",
          "type": "uint256"
        }
      ],
      "name": "getCandidates",
      "outputs": [
        {
          "internalType": "string[]",
          "name": "",
          "type": "string[]"
        }
      ],
      "stateMutability": "view",
      "type": "function"
    },
    {
      "inputs": [
        {
          "internalType": "uint256",
          "name": "_uniqueId",
          "type": "uint256"
        }
      ],
      "name": "getVoters",
      "outputs": [
        {
          "internalType": "string[]",
          "name": "",
          "type": "string[]"
        }
      ],
      "stateMutability": "view",
      "type": "function"
    },
    {
      "inputs": [],
      "name": "addMoneyToOwner",
      "outputs": [],
      "stateMutability": "payable",
      "type": "function"
    },
    {
      "inputs": [
        {
          "internalType": "uint256",
          "name": "_uniqueId",
          "type": "uint256"
        }
      ],
      "name": "getWinner",
      "outputs": [
        {
          "internalType": "string",
          "name": "",
          "type": "string"
        }
      ],
      "stateMutability": "view",
      "type": "function"
    },
    {
      "inputs": [
        {
          "internalType": "uint256",
          "name": "_uniqueId",
          "type": "uint256"
        }
      ],
      "name": "getTimeRemaining",
      "outputs": [
        {
          "internalType": "uint256",
          "name": "",
          "type": "uint256"
        }
      ],
      "stateMutability": "view",
      "type": "function"
    },
    {
      "inputs": [
        {
          "internalType": "uint256",
          "name": "uniqueId",
          "type": "uint256"
        }
      ],
      "name": "getCandidateVoteCounts",
      "outputs": [
        {
          "internalType": "uint256[]",
          "name": "",
          "type": "uint256[]"
        }
      ],
      "stateMutability": "view",
      "type": "function"
    },
    {
      "inputs": [
        {
          "internalType": "string",
          "name": "_voterAddress",
          "type": "string"
        }
      ],
      "name": "getSystemIdsOfVoter",
      "outputs": [
        {
          "internalType": "uint256[]",
          "name": "",
          "type": "uint256[]"
        }
      ],
      "stateMutability": "view",
      "type": "function"
    }
  ],
  "bytecode": "0x608060405234801561001057600080fd5b5033600560006101000a81548173ffffffffffffffffffffffffffffffffffffffff021916908373ffffffffffffffffffffffffffffffffffffffff160217905550612a3b806100616000396000f3fe6080604052600436106100c25760003560e01c806386b646f21161007f578063b4ed7f7611610059578063b4ed7f7614610298578063c2967b5e146102c1578063cd9cf104146102fe578063cff29c1c14610342576100c2565b806386b646f2146101e15780638cd429911461021e5780639baafbcf1461025b576100c2565b80630ffca604146100c757806326906827146101095780633ab59bb6146101325780633e39a7a51461015d5780634129b2c91461019a57806384f3f148146101d7575b600080fd5b3480156100d357600080fd5b506100ee60048036038101906100e99190611815565b61037f565b604051610100969594939291906118e1565b60405180910390f35b34801561011557600080fd5b50610130600480360381019061012b9190611b72565b610553565b005b34801561013e57600080fd5b50610147610683565b6040516101549190611cb4565b60405180910390f35b34801561016957600080fd5b50610184600480360381019061017f9190611815565b610689565b6040516101919190611ddb565b60405180910390f35b3480156101a657600080fd5b506101c160048036038101906101bc9190611815565b610778565b6040516101ce9190611dfd565b60405180910390f35b6101df6109d4565b005b3480156101ed57600080fd5b5061020860048036038101906102039190611815565b610ab5565b6040516102159190611ddb565b60405180910390f35b34801561022a57600080fd5b5061024560048036038101906102409190611815565b610ba4565b6040516102529190611cb4565b60405180910390f35b34801561026757600080fd5b50610282600480360381019061027d9190611815565b610c85565b60405161028f9190611edd565b60405180910390f35b3480156102a457600080fd5b506102bf60048036038101906102ba9190611eff565b610deb565b005b3480156102cd57600080fd5b506102e860048036038101906102e39190611f8a565b610dfb565b6040516102f59190611cb4565b60405180910390f35b34801561030a57600080fd5b5061032560048036038101906103209190611815565b610e36565b604051610339989796959493929190611fe6565b60405180910390f35b34801561034e57600080fd5b5061036960048036038101906103649190612087565b611232565b6040516103769190611edd565b60405180910390f35b60046020528060005260406000206000915090508060000154908060010180546103a8906120ff565b80601f01602080910402602001604051908101604052809291908181526020018280546103d4906120ff565b80156104215780601f106103f657610100808354040283529160200191610421565b820191906000526020600020905b81548152906001019060200180831161040457829003601f168201915b505050505090806002015490806004015490806006018054610442906120ff565b80601f016020809104026020016040519081016040528092919081815260200182805461046e906120ff565b80156104bb5780601f10610490576101008083540402835291602001916104bb565b820191906000526020600020905b81548152906001019060200180831161049e57829003601f168201915b5050505050908060070180546104d0906120ff565b80601f01602080910402602001604051908101604052809291908181526020018280546104fc906120ff565b80156105495780601f1061051e57610100808354040283529160200191610549565b820191906000526020600020905b81548152906001019060200180831161052c57829003601f168201915b5050505050905086565b60006201518085610564919061215f565b4261056f91906121a1565b905060006040518061010001604052808b81526020018a815260200189815260200188815260200183815260200186815260200185815260200184815250905080600460008c81526020019081526020016000206000820151816000015560208201518160010190816105e29190612381565b506040820151816002015560608201518160030190805190602001906106099291906116f1565b506080820151816004015560a08201518160050190805190602001906106309291906116f1565b5060c08201518160060190816106469190612381565b5060e082015181600701908161065c9190612381565b5090505060008081548092919061067290612453565b919050555050505050505050505050565b60005481565b606060046000838152602001908152602001600020600301805480602002602001604051908101604052809291908181526020016000905b8282101561076d5783829060005260206000200180546106e0906120ff565b80601f016020809104026020016040519081016040528092919081815260200182805461070c906120ff565b80156107595780601f1061072e57610100808354040283529160200191610759565b820191906000526020600020905b81548152906001019060200180831161073c57829003601f168201915b5050505050815260200190600101906106c1565b505050509050919050565b6060600560009054906101000a900473ffffffffffffffffffffffffffffffffffffffff1673ffffffffffffffffffffffffffffffffffffffff163373ffffffffffffffffffffffffffffffffffffffff161461080a576040517f08c379a0000000000000000000000000000000000000000000000000000000008152600401610801906124e7565b60405180910390fd5b42600460008481526020019081526020016000206004015410610862576040517f08c379a000000000000000000000000000000000000000000000000000000000815260040161085990612553565b60405180910390fd5b6000606060005b60046000868152602001908152602001600020600201548110156109c9576000600160008781526020019081526020016000206004600088815260200190815260200160002060030183815481106108c4576108c3612573565b5b906000526020600020016040516108db9190612630565b9081526020016040518091039020549050838111156109b55780935060046000878152602001908152602001600020600301828154811061091f5761091e612573565b5b906000526020600020018054610934906120ff565b80601f0160208091040260200160405190810160405280929190818152602001828054610960906120ff565b80156109ad5780601f10610982576101008083540402835291602001916109ad565b820191906000526020600020905b81548152906001019060200180831161099057829003601f168201915b505050505092505b5080806109c190612453565b915050610869565b508092505050919050565b600560009054906101000a900473ffffffffffffffffffffffffffffffffffffffff1673ffffffffffffffffffffffffffffffffffffffff163373ffffffffffffffffffffffffffffffffffffffff1614610a64576040517f08c379a0000000000000000000000000000000000000000000000000000000008152600401610a5b906124e7565b60405180910390fd5b3373ffffffffffffffffffffffffffffffffffffffff166108fc670de0b6b3a76400009081150290604051600060405180830381858888f19350505050158015610ab2573d6000803e3d6000fd5b50565b606060046000838152602001908152602001600020600501805480602002602001604051908101604052809291908181526020016000905b82821015610b99578382906000526020600020018054610b0c906120ff565b80601f0160208091040260200160405190810160405280929190818152602001828054610b38906120ff565b8015610b855780601f10610b5a57610100808354040283529160200191610b85565b820191906000526020600020905b815481529060010190602001808311610b6857829003601f168201915b505050505081526020019060010190610aed565b505050509050919050565b600080600460008481526020019081526020016000206004015411610bfe576040517f08c379a0000000000000000000000000000000000000000000000000000000008152600401610bf590612693565b60405180910390fd5b42600460008481526020019081526020016000206004015411610c56576040517f08c379a0000000000000000000000000000000000000000000000000000000008152600401610c4d906126ff565b60405180910390fd5b6000426004600085815260200190815260200160002060040154610c7a919061271f565b905080915050919050565b606060008203610cca576040517f08c379a0000000000000000000000000000000000000000000000000000000008152600401610cc19061279f565b60405180910390fd5b6000600460008481526020019081526020016000206002015467ffffffffffffffff811115610cfc57610cfb611961565b5b604051908082528060200260200182016040528015610d2a5781602001602082028036833780820191505090505b50905060005b6004600085815260200190815260200160002060020154811015610de15760016000858152602001908152602001600020600460008681526020019081526020016000206003018281548110610d8957610d88612573565b5b90600052602060002001604051610da09190612630565b908152602001604051809103902054828281518110610dc257610dc1612573565b5b6020026020010181815250508080610dd990612453565b915050610d30565b5080915050919050565b610df6838383611386565b505050565b600160205281600052604060002081805160208101820180518482526020830160208501208183528095505050505050600091509150505481565b6000606060006060600060608060606000600460008b81526020019081526020016000206040518061010001604052908160008201548152602001600182018054610e80906120ff565b80601f0160208091040260200160405190810160405280929190818152602001828054610eac906120ff565b8015610ef95780601f10610ece57610100808354040283529160200191610ef9565b820191906000526020600020905b815481529060010190602001808311610edc57829003601f168201915b505050505081526020016002820154815260200160038201805480602002602001604051908101604052809291908181526020016000905b82821015610fdd578382906000526020600020018054610f50906120ff565b80601f0160208091040260200160405190810160405280929190818152602001828054610f7c906120ff565b8015610fc95780601f10610f9e57610100808354040283529160200191610fc9565b820191906000526020600020905b815481529060010190602001808311610fac57829003601f168201915b505050505081526020019060010190610f31565b5050505081526020016004820154815260200160058201805480602002602001604051908101604052809291908181526020016000905b828210156110c0578382906000526020600020018054611033906120ff565b80601f016020809104026020016040519081016040528092919081815260200182805461105f906120ff565b80156110ac5780601f10611081576101008083540402835291602001916110ac565b820191906000526020600020905b81548152906001019060200180831161108f57829003601f168201915b505050505081526020019060010190611014565b5050505081526020016006820180546110d8906120ff565b80601f0160208091040260200160405190810160405280929190818152602001828054611104906120ff565b80156111515780601f1061112657610100808354040283529160200191611151565b820191906000526020600020905b81548152906001019060200180831161113457829003601f168201915b5050505050815260200160078201805461116a906120ff565b80601f0160208091040260200160405190810160405280929190818152602001828054611196906120ff565b80156111e35780601f106111b8576101008083540402835291602001916111e3565b820191906000526020600020905b8154815290600101906020018083116111c657829003601f168201915b5050505050815250509050806000015181602001518260400151836060015184608001518560a001518660c001518760e001519850985098509850985098509850985050919395975091939597565b60606000805467ffffffffffffffff81111561125157611250611961565b5b60405190808252806020026020018201604052801561127f5781602001602082028036833780820191505090505b509050600080600190505b600054811161137b5760005b60046000838152602001908152602001600020600501805490508110156113675785805190602001206004600084815260200190815260200160002060050182815481106112e7576112e6612573565b5b906000526020600020016040516112fe9190612862565b60405180910390200361135457600460008381526020019081526020016000206000015484848151811061133557611334612573565b5b602002602001018181525050828061134c90612453565b935050611367565b808061135f90612453565b915050611296565b50808061137390612453565b91505061128a565b508192505050919050565b611390838261164b565b6113cf576040517f08c379a00000000000000000000000000000000000000000000000000000000081526004016113c6906128c5565b60405180910390fd5b600015156002600085815260200190815260200160002060003373ffffffffffffffffffffffffffffffffffffffff1673ffffffffffffffffffffffffffffffffffffffff16815260200190815260200160002060009054906101000a900460ff16151514611473576040517f08c379a000000000000000000000000000000000000000000000000000000000815260040161146a90612931565b60405180910390fd5b6000151560036000858152602001908152602001600020826040516114989190612982565b908152602001604051809103902060009054906101000a900460ff161515146114f6576040517f08c379a00000000000000000000000000000000000000000000000000000000081526004016114ed90612931565b60405180910390fd5b426004600085815260200190815260200160002060040154101561154f576040517f08c379a0000000000000000000000000000000000000000000000000000000008152600401611546906129e5565b60405180910390fd5b6001806000858152602001908152602001600020836040516115719190612982565b9081526020016040518091039020600082825461158e91906121a1565b9250508190555060016002600085815260200190815260200160002060003373ffffffffffffffffffffffffffffffffffffffff1673ffffffffffffffffffffffffffffffffffffffff16815260200190815260200160002060006101000a81548160ff021916908315150217905550600160036000858152602001908152602001600020826040516116219190612982565b908152602001604051809103902060006101000a81548160ff021916908315150217905550505050565b600080600090505b60046000858152602001908152602001600020600501805490508110156116e55782805190602001206004600086815260200190815260200160002060050182815481106116a4576116a3612573565b5b906000526020600020016040516116bb9190612862565b6040518091039020036116d25760019150506116eb565b80806116dd90612453565b915050611653565b50600090505b92915050565b828054828255906000526020600020908101928215611739579160200282015b828111156117385782518290816117289190612381565b5091602001919060010190611711565b5b509050611746919061174a565b5090565b5b8082111561176a5760008181611761919061176e565b5060010161174b565b5090565b50805461177a906120ff565b6000825580601f1061178c57506117ab565b601f0160209004906000526020600020908101906117aa91906117ae565b5b50565b5b808211156117c75760008160009055506001016117af565b5090565b6000604051905090565b600080fd5b600080fd5b6000819050919050565b6117f2816117df565b81146117fd57600080fd5b50565b60008135905061180f816117e9565b92915050565b60006020828403121561182b5761182a6117d5565b5b600061183984828501611800565b91505092915050565b61184b816117df565b82525050565b600081519050919050565b600082825260208201905092915050565b60005b8381101561188b578082015181840152602081019050611870565b60008484015250505050565b6000601f19601f8301169050919050565b60006118b382611851565b6118bd818561185c565b93506118cd81856020860161186d565b6118d681611897565b840191505092915050565b600060c0820190506118f66000830189611842565b818103602083015261190881886118a8565b90506119176040830187611842565b6119246060830186611842565b818103608083015261193681856118a8565b905081810360a083015261194a81846118a8565b9050979650505050505050565b600080fd5b600080fd5b7f4e487b7100000000000000000000000000000000000000000000000000000000600052604160045260246000fd5b61199982611897565b810181811067ffffffffffffffff821117156119b8576119b7611961565b5b80604052505050565b60006119cb6117cb565b90506119d78282611990565b919050565b600067ffffffffffffffff8211156119f7576119f6611961565b5b611a0082611897565b9050602081019050919050565b82818337600083830152505050565b6000611a2f611a2a846119dc565b6119c1565b905082815260208101848484011115611a4b57611a4a61195c565b5b611a56848285611a0d565b509392505050565b600082601f830112611a7357611a72611957565b5b8135611a83848260208601611a1c565b91505092915050565b600067ffffffffffffffff821115611aa757611aa6611961565b5b602082029050602081019050919050565b600080fd5b6000611ad0611acb84611a8c565b6119c1565b90508083825260208201905060208402830185811115611af357611af2611ab8565b5b835b81811015611b3a57803567ffffffffffffffff811115611b1857611b17611957565b5b808601611b258982611a5e565b85526020850194505050602081019050611af5565b5050509392505050565b600082601f830112611b5957611b58611957565b5b8135611b69848260208601611abd565b91505092915050565b600080600080600080600080610100898b031215611b9357611b926117d5565b5b6000611ba18b828c01611800565b985050602089013567ffffffffffffffff811115611bc257611bc16117da565b5b611bce8b828c01611a5e565b9750506040611bdf8b828c01611800565b965050606089013567ffffffffffffffff811115611c0057611bff6117da565b5b611c0c8b828c01611b44565b9550506080611c1d8b828c01611800565b94505060a089013567ffffffffffffffff811115611c3e57611c3d6117da565b5b611c4a8b828c01611b44565b93505060c089013567ffffffffffffffff811115611c6b57611c6a6117da565b5b611c778b828c01611a5e565b92505060e089013567ffffffffffffffff811115611c9857611c976117da565b5b611ca48b828c01611a5e565b9150509295985092959890939650565b6000602082019050611cc96000830184611842565b92915050565b600081519050919050565b600082825260208201905092915050565b6000819050602082019050919050565b600082825260208201905092915050565b6000611d1782611851565b611d218185611cfb565b9350611d3181856020860161186d565b611d3a81611897565b840191505092915050565b6000611d518383611d0c565b905092915050565b6000602082019050919050565b6000611d7182611ccf565b611d7b8185611cda565b935083602082028501611d8d85611ceb565b8060005b85811015611dc95784840389528151611daa8582611d45565b9450611db583611d59565b925060208a01995050600181019050611d91565b50829750879550505050505092915050565b60006020820190508181036000830152611df58184611d66565b905092915050565b60006020820190508181036000830152611e1781846118a8565b905092915050565b600081519050919050565b600082825260208201905092915050565b6000819050602082019050919050565b611e54816117df565b82525050565b6000611e668383611e4b565b60208301905092915050565b6000602082019050919050565b6000611e8a82611e1f565b611e948185611e2a565b9350611e9f83611e3b565b8060005b83811015611ed0578151611eb78882611e5a565b9750611ec283611e72565b925050600181019050611ea3565b5085935050505092915050565b60006020820190508181036000830152611ef78184611e7f565b905092915050565b600080600060608486031215611f1857611f176117d5565b5b6000611f2686828701611800565b935050602084013567ffffffffffffffff811115611f4757611f466117da565b5b611f5386828701611a5e565b925050604084013567ffffffffffffffff811115611f7457611f736117da565b5b611f8086828701611a5e565b9150509250925092565b60008060408385031215611fa157611fa06117d5565b5b6000611faf85828601611800565b925050602083013567ffffffffffffffff811115611fd057611fcf6117da565b5b611fdc85828601611a5e565b9150509250929050565b600061010082019050611ffc600083018b611842565b818103602083015261200e818a6118a8565b905061201d6040830189611842565b818103606083015261202f8188611d66565b905061203e6080830187611842565b81810360a08301526120508186611d66565b905081810360c083015261206481856118a8565b905081810360e083015261207881846118a8565b90509998505050505050505050565b60006020828403121561209d5761209c6117d5565b5b600082013567ffffffffffffffff8111156120bb576120ba6117da565b5b6120c784828501611a5e565b91505092915050565b7f4e487b7100000000000000000000000000000000000000000000000000000000600052602260045260246000fd5b6000600282049050600182168061211757607f821691505b60208210810361212a576121296120d0565b5b50919050565b7f4e487b7100000000000000000000000000000000000000000000000000000000600052601160045260246000fd5b600061216a826117df565b9150612175836117df565b9250828202612183816117df565b9150828204841483151761219a57612199612130565b5b5092915050565b60006121ac826117df565b91506121b7836117df565b92508282019050808211156121cf576121ce612130565b5b92915050565b60008190508160005260206000209050919050565b60006020601f8301049050919050565b600082821b905092915050565b6000600883026122377fffffffffffffffffffffffffffffffffffffffffffffffffffffffffffffffff826121fa565b61224186836121fa565b95508019841693508086168417925050509392505050565b6000819050919050565b600061227e612279612274846117df565b612259565b6117df565b9050919050565b6000819050919050565b61229883612263565b6122ac6122a482612285565b848454612207565b825550505050565b600090565b6122c16122b4565b6122cc81848461228f565b505050565b5b818110156122f0576122e56000826122b9565b6001810190506122d2565b5050565b601f82111561233557612306816121d5565b61230f846121ea565b8101602085101561231e578190505b61233261232a856121ea565b8301826122d1565b50505b505050565b600082821c905092915050565b60006123586000198460080261233a565b1980831691505092915050565b60006123718383612347565b9150826002028217905092915050565b61238a82611851565b67ffffffffffffffff8111156123a3576123a2611961565b5b6123ad82546120ff565b6123b88282856122f4565b600060209050601f8311600181146123eb57600084156123d9578287015190505b6123e38582612365565b86555061244b565b601f1984166123f9866121d5565b60005b82811015612421578489015182556001820191506020850194506020810190506123fc565b8683101561243e578489015161243a601f891682612347565b8355505b6001600288020188555050505b505050505050565b600061245e826117df565b91507fffffffffffffffffffffffffffffffffffffffffffffffffffffffffffffffff82036124905761248f612130565b5b600182019050919050565b7f4e6f7420417574686f72697a6564000000000000000000000000000000000000600082015250565b60006124d1600e8361185c565b91506124dc8261249b565b602082019050919050565b60006020820190508181036000830152612500816124c4565b9050919050565b7f566f74696e6720706572696f6420686173206e6f7420656e6465642079657400600082015250565b600061253d601f8361185c565b915061254882612507565b602082019050919050565b6000602082019050818103600083015261256c81612530565b9050919050565b7f4e487b7100000000000000000000000000000000000000000000000000000000600052603260045260246000fd5b600081905092915050565b600081546125ba816120ff565b6125c481866125a2565b945060018216600081146125df57600181146125f457612627565b60ff1983168652811515820286019350612627565b6125fd856121d5565b60005b8381101561261f57815481890152600182019150602081019050612600565b838801955050505b50505092915050565b600061263c82846125ad565b915081905092915050565b7f506f6c6c20686173206e6f742073746172746564207965740000000000000000600082015250565b600061267d60188361185c565b915061268882612647565b602082019050919050565b600060208201905081810360008301526126ac81612670565b9050919050565b7f506f6c6c2068617320656e646564000000000000000000000000000000000000600082015250565b60006126e9600e8361185c565b91506126f4826126b3565b602082019050919050565b60006020820190508181036000830152612718816126dc565b9050919050565b600061272a826117df565b9150612735836117df565b925082820390508181111561274d5761274c612130565b5b92915050565b7f496e76616c696420756e69717565204944000000000000000000000000000000600082015250565b600061278960118361185c565b915061279482612753565b602082019050919050565b600060208201905081810360008301526127b88161277c565b9050919050565b600081905092915050565b60008190508160005260206000209050919050565b600081546127ec816120ff565b6127f681866127bf565b94506001821660008114612811576001811461282657612859565b60ff1983168652811515820286019350612859565b61282f856127ca565b60005b8381101561285157815481890152600182019150602081019050612832565b838801955050505b50505092915050565b600061286e82846127df565b915081905092915050565b7f596f7520617265206e6f7420417574686f72697a656420746f20566f74650000600082015250565b60006128af601e8361185c565b91506128ba82612879565b602082019050919050565b600060208201905081810360008301526128de816128a2565b9050919050565b7f596f75206861766520616c726561647920566f74656400000000000000000000600082015250565b600061291b60168361185c565b9150612926826128e5565b602082019050919050565b6000602082019050818103600083015261294a8161290e565b9050919050565b600061295c82611851565b61296681856125a2565b935061297681856020860161186d565b80840191505092915050565b600061298e8284612951565b915081905092915050565b7f54686520766f74696e672074696d65206973204f766572210000000000000000600082015250565b60006129cf60188361185c565b91506129da82612999565b602082019050919050565b600060208201905081810360008301526129fe816129c2565b905091905056fea26469706673582212204d4e28530dcf8b38ad2bbd72501abeb5c1a6a58525af47e3bc44634f2cff8c7e64736f6c63430008120033",
  "immutableReferences": {},
  "source": "// SPDX-License-Identifier: GPL-3.0\r\n\r\npragma solidity >=0.7.0 <0.9.0;\r\n// import \"@openzeppelin/contracts/utils/Strings.sol\";\r\n\r\ncontract Voting{\r\n    // using Strings for string;\r\n    uint public systemCount;\r\n    struct VotingSystem{\r\n        uint uniqueId;\r\n        string systemName;\r\n        uint numberOfCandidates;\r\n        string[] candidates;\r\n        uint votingPeriod;       \r\n        string[] votersForElection;\r\n        string electionHelderName;\r\n        string description;\r\n    }\r\n\r\n    mapping (uint => mapping (string => uint)) public differentSystemVotes;\r\n    mapping (uint => mapping (address => bool)) differentSystemVotingDone;\r\n    mapping (uint => mapping (string => bool)) differentPanCardsVoting;\r\n    mapping (uint => VotingSystem) public systems;\r\n\r\n    function getSystemDetails(uint _uniqueId) public view returns (uint, string memory, uint, string[] memory, uint, string[] memory, string memory, string memory) {\r\n        VotingSystem memory system = systems[_uniqueId];\r\n        return (system.uniqueId, system.systemName, system.numberOfCandidates, system.candidates, system.votingPeriod, system.votersForElection, system.electionHelderName, system.description);\r\n    }\r\n\r\n    function createSystem(uint _uniqueId, string memory _systemName, uint _numberOfCandidates, string[] memory _candidates,uint numberOfDays,string[] memory _votersForElection, string memory _electionHelderName,string memory _description) public   {\r\n        uint _votingPeriod = block.timestamp + (numberOfDays * 1 days);\r\n        VotingSystem memory system =  VotingSystem(_uniqueId,_systemName,_numberOfCandidates,_candidates,_votingPeriod,_votersForElection,_electionHelderName,_description);\r\n        systems[_uniqueId] = system;\r\n        systemCount++;\r\n    }\r\n\r\n    address payable owner;\r\n    mapping (address => uint) votingDone;\r\n  \r\n    constructor() {\r\n        owner = payable(msg.sender);\r\n    }\r\n\r\n    // function showBalance() public view returns(uint) {\r\n    //     return address(this).balance;\r\n    // }\r\n\r\n    function voteKarteRaho(uint _uniqueId,string memory _candidateName,string memory _candidateAadhar) public  {\r\n        voteNow(_uniqueId,_candidateName,_candidateAadhar);\r\n    }\r\n\r\n    function checkIfUserExists(uint _uniqueId,string memory _candidateAadhar) internal view returns(bool){\r\n        for(uint i=0;i<systems[_uniqueId].votersForElection.length;i++){\r\n            if (keccak256(bytes(systems[_uniqueId].votersForElection[i])) == keccak256(bytes(_candidateAadhar))){\r\n                return true;\r\n            }\r\n        }\r\n        return false;\r\n    }\r\n\r\n    function voteNow(uint _uniqueId,string memory _candidateName,string memory _candidateAadhar) internal{\r\n        require(checkIfUserExists(_uniqueId, _candidateAadhar),\"You are not Authorized to Vote\");\r\n        require(differentSystemVotingDone[_uniqueId][msg.sender]==false,\"You have already Voted\");\r\n        require(differentPanCardsVoting[_uniqueId][_candidateAadhar]==false,\"You have already Voted\");\r\n        require(systems[_uniqueId].votingPeriod >= block.timestamp, \"The voting time is Over!\");\r\n        differentSystemVotes[_uniqueId][_candidateName] +=1;\r\n        differentSystemVotingDone[_uniqueId][msg.sender] = true;\r\n        differentPanCardsVoting[_uniqueId][_candidateAadhar]=true;\r\n    }\r\n\r\n    function getCandidates(uint _uniqueId) public view returns (string[] memory)  {\r\n        return systems[_uniqueId].candidates;\r\n    }\r\n\r\n    function getVoters(uint _uniqueId) public view returns (string[] memory)  {\r\n        return systems[_uniqueId].votersForElection;\r\n    }\r\n\r\n    function addMoneyToOwner() public payable{\r\n        require(msg.sender == owner, \"Not Authorized\");\r\n        payable(msg.sender).transfer(1 ether);\r\n    }\r\n\r\n    function getWinner(uint _uniqueId) public view returns (string memory) {\r\n        require(msg.sender == owner, \"Not Authorized\");\r\n        require(systems[_uniqueId].votingPeriod < block.timestamp, \"Voting period has not ended yet\");\r\n\r\n        uint maxVotes = 0;\r\n        string memory winner;\r\n\r\n        for (uint i = 0; i < systems[_uniqueId].numberOfCandidates; i++) {\r\n            uint candidateVotes = differentSystemVotes[_uniqueId][systems[_uniqueId].candidates[i]];\r\n            if (candidateVotes > maxVotes) {\r\n                maxVotes = candidateVotes;\r\n                winner = systems[_uniqueId].candidates[i];\r\n            }\r\n        }\r\n        return winner;\r\n    }\r\n\r\n    function getTimeRemaining(uint _uniqueId) public view returns (uint) {\r\n        require(systems[_uniqueId].votingPeriod > 0, \"Poll has not started yet\");\r\n        require(systems[_uniqueId].votingPeriod > block.timestamp, \"Poll has ended\");\r\n\r\n        uint timeRemaining = systems[_uniqueId].votingPeriod - block.timestamp;\r\n\r\n        return timeRemaining;\r\n    }\r\n\r\n    function getCandidateVoteCounts(uint uniqueId) public view returns (uint[] memory) {\r\n        require(uniqueId != 0, \"Invalid unique ID\");\r\n\r\n        uint[] memory voteCounts = new uint[](systems[uniqueId].numberOfCandidates);\r\n        for (uint i = 0; i < systems[uniqueId].numberOfCandidates; i++) {\r\n            voteCounts[i] = differentSystemVotes[uniqueId][systems[uniqueId].candidates[i]];\r\n        }\r\n        return voteCounts;\r\n    }\r\n    \r\n    function getSystemIdsOfVoter(string memory _voterAddress) public view returns (uint[] memory) {\r\n        uint[] memory systemIds = new uint[](systemCount);\r\n        uint systemIndex = 0;\r\n        for (uint i = 1; i <= systemCount; i++) {\r\n            for (uint j = 0; j < systems[i].votersForElection.length; j++) {\r\n                if (keccak256(bytes(systems[i].votersForElection[j])) == keccak256(bytes(_voterAddress))) {\r\n                    systemIds[systemIndex] = systems[i].uniqueId;\r\n                    systemIndex++;\r\n                    break;\r\n                }\r\n            }\r\n        }\r\n        return systemIds;\r\n    }\r\n//     function getUniqueIdsForVoter() public view returns(uint[] memory) {\r\n//     uint[] memory result = new uint[](systemCount);\r\n//     uint counter = 0;\r\n//     for(uint i = 0; i < systemCount; i++) {\r\n//         if(differentSystemVotingDone[i][msg.sender] || checkIfUserExists(i, msg.sender)) {\r\n//             result[counter] = i;\r\n//             counter++;\r\n//         }\r\n//     }\r\n//     return result;\r\n// }\r\n\r\n}",
  "sourcePath": "C:\\Users\\Anish Kulkarni\\Blockchain\\Code-a-palooza\\contracts\\Voting.sol",
  "compiler": {
    "name": "solc",
    "version": "0.8.18+commit.87f61d96.Emscripten.clang"
  },
  "schemaVersion": "3.4.12",
  "updatedAt": "2023-03-05T02:06:48.816Z",
  "devdoc": {
    "kind": "dev",
    "methods": {},
    "version": 1
  },
  "userdoc": {
    "kind": "user",
    "methods": {},
    "version": 1
  }
}